:040000000DEF14F0FC
:1000080000C018F001C017F002C016F003C015F0C8
:10001800E1CF1BF0E2CF1CF0E9CF19F0EACF1AF0DC
:10002800F2A414D0F2AA12D0010E0201006F01014D
:10003800D12B190ED15D05E3010E0201016F0101FB
:10004800D16B630ED76EBF0ED66EF2949DAA0AD0FE
:100058009EAA08D0ED0E03014A6F020E4B6FE9EC21
:100068000EF09E9A18C000F017C001F016C002F0FA
:1000780015C003F019C0E9FF1AC0EAFF1BC0E1FF71
:060088001CC0E2FF1100A4
:0C008E00020E0D6E0D2EFED700001200B9
:0A009A00850E0D6E0D2EFED712002C
:1000A4003A0E0C6E230E0D6E0D2EFED70C2EFCD7C1
:0200B400120038
:1000B600086A080E0C6E003408360450085ED8B084
:0E00C60002D00826D89000360C2EF5D7120076
:1000D400030149BF02D0819601D0818649BD02D077
:1000E400819401D0818449BB02D0819201D0818264
:1000F40049B902D0819001D0818001B102D0818AB6
:1001040001D0819A8188C1DF819849B702D0819654
:1001140001D0818649B502D0819401D0818449B34C
:1001240002D0819201D0818249B102D0819001D064
:10013400818001B102D0818A01D0819A8188A5DFB2
:0E014400819801A102D0ACDF01D0A5DF12002E
:1001520045C304F046C305F043C302F044C303F0B1
:1001620047C300F048C301F0010E0301475F000ED0
:10017200485B005001100FE004C0E9FF05C0EAFF30
:1001820002C0E1FF03C0E2FFEECFE6FF024A032A0C
:10019200044A052AE5D743C300F044C301F0120024
:0E01A2000301019143C349F394DF0181120070
:1001B0000301466B030E465D0AE246514425E16E9B
:1001C000000E4521E26E200EE66E462BF3D7465117
:1001D0004425E16E000E4521E26EE66A460746516F
:1001E0004425476F000E4521486F0A0E046E43C335
:1001F00000F061DF08C000F0300E002647C3E1FFC9
:1002000048C3E2FF00C0E6FF0A0E046E43C300F0DD
:1002100052DF00C043F30050000A01E102D046075C
:04022000DED7120013
:10022400086A096A100E0C6E013408360936045047
:10023400085E0550D8A0053C095ED8B007D004502C
:1002440008260550D8B0053C0926D890003601365A
:060254000C2EEAD7120097
:0E025A00ACB202D00000FCD73EC3ADFF1200D4
:1002680010D0800E03013E6F1AD0C00E3E6F17D01B
:10027800940E3E6F14D0D40E3E6F11D0800E3E6F98
:100288000ED003013E51010AECE03E51020AEDE0B6
:100298003E51030AEDE03E51040AEDE0EFD73F0579
:1002A800006E3E51002600C03EF300C049F30EDF49
:1002B8000191426B42514025E96E000E4121EA6EE0
:1002C800EE520BE042514025E96E000E4121EA6EE4
:0E02D800EECF43F362DF422BEDD7018112001F
:1002E60094928292010E0201EC6F0301066B3EC3EB
:1002F60000F33E51960A04E03E51A90A01E005D0FA
:0C030600010E3E19006FFF0E066F120082
:100312003EC343F303014333439F3FC344F340C30C
:1003220045F345DF010E3E15016E0150010A10E151
:10033200030E3F25436F000E4021446FAC0E456F04
:10034200010E466F040E476F000E486F01DF0FD09B
:10035200030E3F25436F000E4021446FA70E456FE9
:10036200010E466F040E476F000E486FF1DE120059
:100372007FA202D00000FCD77F9C3FC375FF3EC323
:1003820074FF40C373FF7F9E7F84F2CF00F0F29E22
:10039200550E7E6EAA0E7E6E7F8200BE02D0F29E47
:0803A20001D0F28E7F941200DD
:1003AA000B6A0A6A096A00500402F4CF09F0F3CF13
:1003BA0008F001500502F4CF0BF0F3CF0AF0005019
:1003CA000502F3500926F4500A22E86A0B2201506A
:1003DA000402F3500926F4500A22E86A0B2208C0E4
:1003EA0000F009C001F00AC002F00BC003F01200CD
:0C03FA00BAB201D0FDD73EC379FF12005B
:100406003EC3C9FFC7B002D00000FCD7C9CF00F079
:020416001200D2
:100418007F9C3FC375FF3EC374FF7F9E7F8073CF71
:0404280000F01200CE
:10042C00AECF01F0ABA202D0AB98AB8801C000F00C
:02043C001200AC
:0A043E00000EACB2010E006E1200B9
:0A044800000E9EBA010E006E1200B5
:100452007ACF01F0A6A202D0A698A68801C000F029
:02046200120086
:0A046400000EBAB2010E006E120085
:0A046E00000EA4BA010E006E120089
:1004780003013E6B3F6BE8C140F377DF010E0301D8
:100488003E6F000E3F6FE6C140F36FDF020E0301BF
:100498003E6F000E3F6FE7C140F367DF030E0301B5
:1004A8003E6F000E3F6FEDC140F35FDF040E0301A6
:1004B8003E6F000E3F6FEEC140F357DF050E03019C
:1004C8003E6F000E3F6FECC140F34FDF060E030195
:1004D8003E6F000E3F6FEAC140F347DFEEC13EF3C7
:0404E800FEDE120022
:1004EC0003013E6B3F6B92DF00C0E8F1010E3E6FE3
:1004FC00000E3F6F8BDF00C0E6F1020E3E6F000E68
:10050C003F6F84DF00C0E7F1030E3E6F000E3F6FBC
:10051C007DDF00C0EDF1040E3E6F000E3F6F76DF05
:10052C0000C0EEF1050E3E6F000E3F6F6FDF00C096
:10053C00ECF1060E3E6F000E3F6F68DF00C0EAF173
:02054C0012009B
:10054E0003013A6B3B6B3C6B3D6BD20E3225E96E71
:10055E00000E3321EA6E3451EE243A6F3551EE20FF
:10056E003B6F3651EE203C6F3751EE203D6F396BAD
:10057E001E0E395D6DE2070E006E000E016E39C360
:10058E0004F0000E056E0ADF3251002633510122AF
:10059E00050E0024E96E000E0120EA6EEE50010AEF
:1005AE0055E1070E006E000E016E39C304F0000E09
:1005BE00056EF4DE00503225E16E01503321E26EFD
:1005CE0038C3E6FF070E006E000E016E39C304F04D
:1005DE00000E056EE3DE3251002633510122010E6C
:1005EE000024E16E000E0120E26E3AC3E6FF3BC32B
:1005FE00E6FF3CC3E6FF3DC3E6FF070E006E000EAE
:10060E00016E39C304F0000E056EC8DE32510026AD
:10061E0033510122050E0024E16E000E0120E26E20
:10062E00E66A070E006E000E016E39C304F0000E6E
:10063E00056EB4DE3251002633510122060E00241F
:10064E00E16E000E0120E26EE66A02D0392B90D7E1
:02065E00120088
:10066000F250026EF29E0500FF6A0150FE6E0050CD
:08067000FD6E02BEF28E1200C5
:100678000301356B366B356B1E0E355D5AE2070E7E
:10068800006E000E016E35C304F0000E056E89DEA3
:100698003251002633510122050E0024E96E000E66
:1006A8000120EA6EEE50000A42E1070E006E000ECD
:1006B800016E35C304F0000E056E73DE325100265C
:1006C80033510122060E0024E96E000E0120EA6E65
:1006D800EE50010A2CE1070E006E000E016E35C3C4
:1006E80004F0000E056E5DDE00503225E96E015003
:1006F8003321EA6EEECF01F00150341918E1070EEC
:10070800006E000E016E35C304F0000E056E49DE62
:100718003251002633510122050E0024E16E000EED
:100728000120E26E010EE66E010E366F02D0352B07
:08073800A3D736C300F0120044
:100740000301366B050E365D0AE236513425E16E43
:10075000000E3521E26E200EE66E362BF3D73651B1
:100760003425E16E000E3521E26EE66A3607365119
:100770003425376F000E3521386F0A0E046E000ED7
:10078000056E32C300F033C301F04CDD08C000F049
:1007900009C001F0300E002637C3E1FF38C3E2FF85
:1007A00000C0E6FF0A0E046E000E056E32C300F0B4
:1007B00033C301F037DD00C032F301C033F3000E64
:1007C000011802E1000E001801E102D03607CFD770
:0207D000120015
:1007D2000B6A0A6A096A086A0E6A03340836045008
:1007E200085E0550D8A0053C095E0650D8A0063C1C
:1007F2000A5E0750D8A0073C0B5EE86AD8A0010E3B
:100802000E5E0336070E0C6E0334083609360A36BE
:100812000B360E36045003A012D0085E0550D8A045
:10082200053C095E0650D8A0063C0A5E0750D8A0D7
:10083200073C0B5EE86AD8A0010E0E5E11D00826B6
:100842000550D8B0053C09260650D8B0063C0A2609
:100852000750D8B0073C0B26E86AD8B0010E0E2626
:1008620003360C2ED1D70234083609360A360B3637
:100872000E36045003A012D0085E0550D8A0053CE5
:10088200095E0650D8A0063C0A5E0750D8A0073C75
:100892000B5EE86AD8A0010E0E5E11D00826055044
:1008A200D8B0053C09260650D8B0063C0A260750A7
:1008B200D8B0073C0B26E86AD8B0010E0E260236E5
:1008C200070E0C6E0234083609360A360B360E361F
:1008D200045002A012D0085E0550D8A0053C095E63
:1008E2000650D8A0063C0A5E0750D8A0073C0B5E13
:1008F200E86AD8A0010E0E5E11D008260550D8B0C5
:10090200053C09260650D8B0063C0A260750D8B046
:10091200073C0B26E86AD8B0010E0E2602360C2ED2
:10092200D1D70134083609360A360B360E36045052
:1009320002A012D0085E0550D8A0053C095E065000
:10094200D8A0063C0A5E0750D8A0073C0B5EE86AB6
:10095200D8A0010E0E5E11D008260550D8B0053C75
:1009620009260650D8B0063C0A260750D8B0073CE4
:100972000B26E86AD8B0010E0E260136070E0C6E61
:100982000134083609360A360B360E36045001A0F9
:1009920012D0085E0550D8A0053C095E0650D8A0CA
:1009A200063C0A5E0750D8A0073C0B5EE86AD8A056
:1009B200010E0E5E11D008260550D8B0053C09265E
:1009C2000650D8B0063C0A260750D8B0073C0B2682
:1009D200E86AD8B0010E0E2601360C2ED1D70034AB
:1009E200083609360A360B360E36045001A012D0EC
:1009F200085E0550D8A0053C095E0650D8A0063C0A
:100A02000A5E0750D8A0073C0B5EE86AD8A0010E28
:100A12000E5E11D008260550D8B0053C09260650B6
:100A2200D8B0063C0A260750D8B0073C0B26E86A25
:100A3200D8B0010E0E260036070E0C6E00340836B2
:100A420009360A360B360E36045000A012D0085E64
:100A52000550D8A0053C095E0650D8A0063C0A5EA7
:100A62000750D8A0073C0B5EE86AD8A0010E0E5EC4
:100A720011D008260550D8B0053C09260650D8B03A
:100A8200063C0A260750D8B0073C0B26E86AD8B0C5
:100A9200010E0E2600360C2ED1D700B00ED0045017
:100AA20008260550D8B0053C09260650D8B0063CA9
:0C0AB2000A260750D8B0073C0B261200A3
:100ABE000301356B1E0E355D41E2070E006E000E12
:100ACE00016E35C304F0000E056E68DC325100264F
:100ADE0033510122050E0024E96E000E0120EA6E4C
:100AEE00EE50000A29E1070E006E000E016E35C3AE
:100AFE0004F0000E056E52DC00503225E96E0150F6
:100B0E003321EA6EEECF01F00150341915E1070ED4
:100B1E00006E000E016E35C304F0000E056E3EDC55
:100B2E003251002633510122050E0024E16E000ED3
:0E0B3E000120E26E010EE66E352BBCD71200D0
:100B4C00320E0301436F030E446FFD0E456F000E12
:100B5C00466F0A0E476F000E486FA9EC00F0010EAD
:100B6C00496F6AEC00F010D10301010E3E6F010ECB
:100B7C003F6FD70E406F000E416F34EC01F0E8C1AF
:100B8C003EF3320E3F6F030E406F89EC01F0020E04
:100B9C003E6F050E3F6F320E406F030E416F34EC0B
:100BAC0001F014D10301010E3E6F010E3F6F500E88
:100BBC00406F000E416F34EC01F0E6C13EF3320E93
:100BCC003F6F030E406F89EC01F0020E3E6F050E75
:100BDC003F6F320E406F030E416F34EC01F0F6D0D4
:100BEC000301010E3E6F010E3F6F610E406F000E50
:100BFC00416F34EC01F0E7C13EF3320E3F6F030E50
:100C0C00406F89EC01F0020E3E6F050E3F6F320E05
:100C1C00406F030E416F34EC01F0D8D00301010E8C
:100C2C003E6F010E3F6F3F0E406F000E416F34EC74
:100C3C0001F0EDC13EF3320E3F6F030E406F89ECB5
:100C4C0001F0020E3E6F050E3F6F320E406F030E29
:100C5C00416F34EC01F0BAD00301010E3E6F010E6E
:100C6C003F6F1D0E406F000E416F34EC01F0EEC172
:100C7C0043F3320E446F030E456FD8EC00F0020EB6
:100C8C003E6F050E3F6F320E406F030E416F34EC1A
:100C9C0001F09CD00301010E3E6F010E3F6F2E0E32
:100CAC00406F000E416F34EC01F00101EC51000A71
:100CBC000CE1020E03013E6F010E3F6F720E406F8E
:100CCC00000E416F34EC01F00BD00301020E3E6FAD
:100CDC00010E3F6FB60E406F000E416F34EC01F009
:100CEC0075D00301010E3E6F010E3F6FC70E406FB2
:100CFC00000E416F34EC01F00101EA51000A0CE1E5
:100D0C00020E03013E6F010E3F6FA50E406F000EE9
:100D1C00416F34EC01F00BD00301020E3E6F010E5B
:100D2C003F6F830E406F000E416F34EC01F04ED0DC
:100D3C000301010E3E6F010E3F6F940E406F000ECB
:100D4C00416F34EC01F0020E3E6F010E3F6FB0C1EB
:100D5C0040F3B1C141F334EC01F038D00301010E82
:100D6C003E6F010E3F6FB20E406F010E416F34ECBF
:100D7C0001F0020E3E6F010E3F6FB0C140F3B1C1E6
:100D8C0041F334EC01F022D001011051000AD8B427
:100D9C00EBD61051010AD8B405D71051020AD8B4B9
:100DAC001FD71051030AD8B439D71051040AD8B43C
:100DBC0053D71051050AD8B46DD71051060A91E0DB
:0E0DCC001051070AB5E01051080AC8E01200E5
:100DDA0017C310F318C311F319C312F31AC313F389
:100DEA001BC302F31CC303F31DC304F31EC305F3A1
:100DFA001FC30CF320C30DF321C30EF322C30FF359
:100E0A0023C308F324C309F325C30AF326C30BF348
:020E1A001200C4
:100E1C005A0E0301026F020E036F3E0E046F030E97
:100E2C00056F2C0E106F040E116F000E126F000E5A
:100E3C00136F480E0C6F040E0D6F000E0E6F000E2C
:100E4C000F6F3E0E086F040E096F000E0A6F000E36
:100E5C000B6FAC8A900EAB6E948E949C9EAA03D0B2
:080E6C00AECF00F0FBD712002D
:100E74009398939A93909392939493968198819A4A
:100E8400819681948192819052EC00F052EC00F0B2
:100E940052EC00F081828180818847EC00F08198D7
:100EA40052EC00F0818847EC00F0819852EC00F09D
:100EB400818847EC00F0819852EC00F081908188A1
:100EC40047EC00F0819852EC00F0818847EC00F088
:100ED400819881928186818847EC00F0819852EC58
:100EE40000F081968180818847EC00F081988190A0
:100EF400818847EC00F0819852EC00F0818847EC3F
:100F040000F081988180818847EC00F0819852EC50
:100F140000F08190818847EC00F08198818681847B
:100F240081828180818847EC00F0819852EC00F046
:060F34000301018112001F
:100F3A000301196B1E0E195D56E2070E006E000EB4
:100F4A00016E19C304F0000E056ED5EC01F00050D5
:100F5A001725E16E01501821E26EE66A070E006E4F
:100F6A00000E016E19C304F0000E056ED5EC01F0F7
:100F7A001751002618510122010E0024E16E000EBD
:100F8A000120E26EE66AE66AE66AE66A070E006E23
:100F9A00000E016E19C304F0000E056ED5EC01F0C7
:100FAA001751002618510122050E0024E16E000E89
:100FBA000120E26E010EE66E070E006E000E016E53
:100FCA0019C304F0000E056ED5EC01F01751002686
:100FDA0018510122060E0024E16E000E0120E26E75
:100FEA00E66A192BA7D7D20E1725E16E000E182133
:0C0FFA00E26EE66AE66AE66AE66A120049
:0A100600A2DD020E0001E86F1200E7
:10101000C7C105F0C8C106F0C9C107F0CAC108F0D0
:101020000101CB51055ECC51065ACD51075ACE5124
:10103000085A05C001F006C002F007C003F008C05E
:1010400004F00432033202320132049E01C017F36D
:1010500002C018F303C019F304C01AF304500201CC
:10106000FB1908E10350FA1905E10250F91902E1F0
:101070000150F819D8B4CAD017C3F8F218C3F9F25E
:1010800019C3FAF21AC3FBF23C0E046E000E056E91
:10109000066E076E17C300F018C301F019C302F003
:1010A0001AC303F0E9EC03F008C000F009C001F036
:1010B0000AC002F00BC003F000C01CF33C0E046E2B
:1010C000000E056E066E076E17C300F018C301F020
:1010D00019C302F01AC303F0E9EC03F000C02EF3C9
:1010E00001C02FF302C030F303C031F32EC317F356
:1010F0002FC318F330C319F331C31AF33C0E046E37
:10110000000E056E066E076E2EC300F02FC301F0B1
:1011100030C302F031C303F0E9EC03F008C000F083
:1011200009C001F00AC002F00BC003F000C01BF3BD
:101130003C0E046E000E056E066E076E2EC300F0A8
:101140002FC301F030C302F031C303F0E9EC03F028
:1011500000C032F301C033F31F0E0301346F030EDE
:10116000356FA0EC03F01BC343F3250E446F030E51
:10117000456FD8EC00F01CC343F3290E446F030EF7
:10118000456FD8EC00F01D0E436F030E446F5C0EEC
:10119000456F010E466F030E476F000E486FA9ECB6
:1011A00000F0240E436F030E446F600E456F010E76
:1011B000466F020E476F000E486FA9EC00F0280E34
:1011C000436F030E446F220E456F010E466F020EF1
:1011D000476F000E486FA9EC00F02C0E436F030E12
:1011E000446FC40E456F010E466F020E476F000E2E
:1011F000486FA9EC00F02D6B010E3E6F010E3F6FA2
:0E1200001D0E406F030E416F34EC01F0120022
:10120E0010D0800E0301176F1AD0C00E176F17D0B3
:10121E00940E176F14D0D40E176F11D0800E176F57
:10122E000ED003011751010AECE01751020AEDE04E
:10123E001751030AEDE01751040AEDE0EFD7180538
:10124E00006E1751002600C017F3018100C049F34C
:10125E006AEC00F0019119C349F36AEC00F00181C8
:02126E0012006C
:101270007AD0150E0301326F020E336F010E346FF8
:10128000000E356F366F376F060E386FA7EC02F021
:10129000150E326F020E336F020E346F000E356F73
:1012A000366F376F070E386FA7EC02F0150E326FEE
:1012B000020E336F030E346F000E356F366F376FCB
:1012C000040E386FA7EC02F0150E326F020E336F6A
:1012D000040E346F000E356F366F376F050E386FA2
:1012E000A7EC02F0010E0101EB6F44D0150E0301D3
:1012F000326F020E336F010E346F000E356F366F92
:10130000376F060E386FA7EC02F0150E326F020E23
:10131000336F020E346F000E356F366F376F070E66
:10132000386FA7EC02F0150E326F020E336F030E0A
:10133000346F000E356F366F376F040E386FA7ECC1
:1013400002F0150E326F020E336F040E346F000E72
:10135000356F366F376F050E386FA7EC02F0010E50
:101360000101EB6F07D00101EC51000A82E0EC5162
:06137000010ABCE01200BE
:10137600150E0301326F020E336F360E346F3CECDE
:1013860003F0005217E0020E0201EB6F0001FA5162
:10139600000A0EE1E851000A0BE1020E03013E6F5E
:1013A600010E3F6F960E406F010E416F34EC01F057
:0613B6000001FB6B1200B8
:1013BC0000C31DF30301065303E0010E00191D6F5A
:1013CC00828219051C6F04C3E1FF05C3E2FF960E70
:1013DC00E66E02C300F003C301F030EC03F003012E
:1013EC001D51960A04E01D51A90A01E002D01D719D
:1013FC00198D04C3E1FF05C3E2FF1DC3E6FF02C361
:10140C0000F003C301F030EC03F003011A6B1A5126
:10141C001C5D32E31A511725E96E000E1821EA6E95
:10142C00EECF01F001C01EF30150960A04E01E51EC
:10143C00A90A01E01FD01A511725016E000E1821C0
:10144C00026E01C0E9FF02C0EAFF010EEE18006E49
:10145C0001C0E1FF02C0E2FF00C0E6FF1AC301F0C9
:10146C00040E006E015004E000360090FF0FFBD715
:10147C00005019131A2BCBD704C3E1FF05C3E2FFAD
:10148C0019C3E6FF02C300F003C301F030EC03F014
:10149C0003011D5119191B6F1A6B1A511C5D1FE3A7
:1014AC001A511725006E000E1821016E00C0D9FFCD
:1014BC0001C0DAFFDE501B1B04C3E1FF05C3E2FFD2
:1014CC0000C0E9FF01C0EAFFEECFE6FF02C300F067
:1014DC0003C301F030EC03F003011A2BDED71B1D04
:1014EC00016E01C01BF30150960A04E01B51A90ABE
:1014FC0001E001D01B2B04C3E1FF05C3E2FF1BC3BA
:10150C00E6FF02C300F003C301F030EC03F004C3A8
:10151C00E1FF05C3E2FFA90EE66E02C300F003C3B0
:10152C0001F030EC03F008C300F009C301F030EC1B
:0E153C0003F00050000A01E1F6D7829212007F
:10154A000101EB5329E0150E0301326F020E336FCE
:10155A00E8C134F3000E356F366F376F320E386FCD
:10156A00A7EC02F0030E0201EB6F0001FA51000A28
:10157A000EE1E851000A0BE1020E03013E6F010E73
:10158A003F6FE90E406F000E416F34EC01F0010E1F
:0A159A000001FB6F0101EB6B120072
:1015A400150E0301326F020E336F340E346F3CECB0
:1015B40003F0005236E0040E0201EB6F0001FA5111
:1015C400000A0EE1E851000A0BE1020E03013E6F2E
:1015D400010E3F6F850E406F010E416F34EC01F038
:1015E400040E0001FB6F150E0301326F020E336F00
:1015F400E7C100F0000E016E003601360090005085
:101604000101E65D0301346F01C035F3000E355767
:10161400000E35BFFF0E366F376F350E386FA7ECEF
:1016240002F082B007D00101EAB102D0D89008D00C
:10163400D88006D00101EAB102D0D88001D0D89078
:1016440038E2150E0301326F020E336F350E346F1C
:101654005FEC05F0150E326F020E336F340E346FEB
:101664005FEC05F0030E0201EB6F0001FA51000A72
:101674000EE1E851000A0BE1020E03013E6F010E78
:101684003F6F630E406F010E416F34EC01F0010EA9
:101694000001FB6F150E0301326F020E336FE7C1B9
:1016A40034F3000E356F366F376F320E386FA7EC98
:0416B40002F012002E
:1016B8007AD0150E0301326F020E336F010E346FAC
:1016C800000E356F366F376F060E386FA7EC02F0D5
:1016D800150E326F020E336F020E346F000E356F27
:1016E800366F376F070E386FA7EC02F0150E326FA2
:1016F800020E336F030E346F000E356F366F376F7F
:10170800040E386FA7EC02F0150E326F020E336F1D
:10171800040E346F000E356F366F376F050E386F55
:10172800A7EC02F0010E0101EB6F44D0150E030186
:10173800326F020E336F010E346F000E356F366F45
:10174800376F060E386FA7EC02F0150E326F020ED7
:10175800336F020E346F000E356F366F376F070E1A
:10176800386FA7EC02F0150E326F020E336F030EBE
:10177800346F000E356F366F376F040E386FA7EC75
:1017880002F0150E326F020E336F040E346F000E26
:10179800356F366F376F050E386FA7EC02F0010E04
:1017A8000101EB6F07D00101EC51000A82E0EC5116
:0617B800010ABCE0120072
:1017BE00150E0301326F020E336F330E346F3CEC95
:1017CE0003F000523AE00201EB6B0001FA51000AFD
:1017DE000EE1E851000A0BE1020E03013E6F010E0D
:1017EE003F6F360E406F010E416F34EC01F0030E69
:1017FE000001FB6F150E0301326F020E336FE7C14E
:10180E0034F3000E356F343735373491000E35BF53
:10181E00FF0E366F376F340E386FA7EC02F00101F2
:10182E00E751C725476F000EC821486F000EC9212A
:0C183E00496F000ECA214A6FEB6B1200CC
:10184A00010E01010F6FE1D00EA106D0FF0EE85D77
:10185A0003E2E82BA6EC05F001010EA506D0E8513B
:10186A00000803E2E807A6EC05F001010EA303D085
:10187A00010E0001E86FEDD001010EA106D0FF0EA6
:10188A00E65D03E2E62BA6EC05F001010EA506D003
:10189A00E651000803E2E607A6EC05F001010EA3F3
:1018AA0003D0010E0001E86FD4D001010EA106D0C9
:1018BA00FF0EE75D03E2E72BA6EC05F001010EA59A
:1018CA0006D0E751000803E2E707A6EC05F001019C
:1018DA000EA303D0010E0001E86FBBD001010EA1D7
:1018EA0006D0FF0EED5D03E2ED2BA6EC05F001013B
:1018FA000EA506D0ED51000803E2ED07A6EC05F0AF
:10190A0001010EA303D0010E0001E86FA2D001016C
:10191A000EA106D0FF0EEE5D03E2EE2BA6EC05F05B
:10192A0001010EA506D0EE51000803E2EE07A6EC6F
:10193A0005F001010EA303D0010E0001E86F89D062
:10194A0001010EA106D0010EEC5D03E2EC2BA6EC20
:10195A0005F001010EA506D0EC51000803E2EC07E0
:10196A00A6EC05F001010EA303D0010E0001E86FF9
:10197A0070D001010EA106D0010EEC5D03E2EC2B42
:10198A00A6EC05F001010EA506D0EC51000803E211
:10199A00EC07A6EC05F001010EA303D0010E00012D
:1019AA00E86F57D001010EA106D0010EEA5D03E2ED
:1019BA00EA2BA6EC05F001010EA506D0EA510008B3
:1019CA0003E2EA07A6EC05F001010EA303D0010E1B
:1019DA000001E86F3ED001010EA302D00001E86BBE
:1019EA0001010F6B3CEC02F00001E86B140EFC6F76
:1019FA0030D001010EA302D00001E86B01010F6B88
:101A0A0076EC02F00001E86B24D001011051000AC3
:101A1A00D8B41AD71051010AD8B42ED71051020AD5
:101A2A00D8B443D71051030AD8B458D71051040A6E
:101A3A00D8B46DD71051050A83E01051060A99E00F
:101A4A001051070AAFE01051080AC5E01051090AFF
:041A5A00D0E01200C6
:101A5E00150E0301326F020E336F350E346F3CECF0
:101A6E0003F000522CE00201EB6B0001FA51000A68
:101A7E000EE1E851000A0BE1020E03013E6F010E6A
:101A8E003F6F110E406F010E416F34EC01F0050EE9
:101A9E000001FB6F150E0301326F020E336FE7C1AB
:101AAE0034F3000E356F343735373491000E35BFB1
:101ABE00FF0E366F376F360E386FA7EC02F082B01E
:101ACE0007D00101EAB102D0D89008D0D88006D054
:101ADE000101EAB102D0D88001D0D8904AE2150EA9
:101AEE000301326F020E336F350E346F5FEC05F06B
:101AFE00150E326F020E336F360E346F5FEC05F03B
:101B0E00030E0201EB6F0001FA51000A0EE1E851DB
:101B1E00000A0BE1020E03013E6F010E3F6F4B0EEA
:101B2E00406F010E416F34EC01F0010E0001FB6FAE
:101B3E00150E0301326F020E336FC7C134F3C8C1E5
:101B4E0035F3C9C136F3CAC137F301014751030159
:101B5E00345F010148510301355B01014951030115
:101B6E00365B01014A510301375B320E386FA7EC29
:101B7E0002F00101EB534CE0150E0301326F020E21
:101B8E00336F350E346F5FEC05F0150E326F020EAB
:101B9E00336F360E346F5FEC05F0030E0201EB6F00
:101BAE000001FA51000A0EE1E851000A0BE1020EA3
:101BBE0003013E6F010E3F6F740E406F010E416FB9
:101BCE0034EC01F0010E0001FB6F150E0301326FB4
:101BDE00020E336FC7C134F3C8C135F3C9C136F332
:101BEE00CAC137F3010147510301345F0101485166
:101BFE000301355B010149510301365B01014A5175
:101C0E000301375B320E386FA7EC02F00101EB6B6C
:021C1E001200B2
:101C2000150E0301326F020E336F320E346F3CEC2F
:101C300003F000522EE0010E0201EB6F0001FA5199
:101C4000000A0EE1E851000A0BE1020E03013E6FAB
:101C5000010E3F6F250E406F010E416F34EC01F015
:101C6000020E0001FB6F150E0301326F020E336F7F
:101C70000101E751ED5D0301346F356B000E355BFB
:101C8000000E35BFFF0E366F376F330E386FA7EC7F
:041C900002F012004C
:101C940001010F6B0EA50AD01051000802E21007D3
:101CA40002D0080E106F010E0001E86F01010EA1B1
:101CB40009D0080E105D02E2102B01D0106B010E4A
:101CC4000001E86F01010EA303D0030E0001E86FC9
:021CD4001200FC
:101CD6000900F5CFE6FF0006FBE10106F9E1120077
:101CE6000101D0510008D8A0D007CF510008D8A0D4
:041CF600CF07120002
:101CFA00600ED36E9B8C0F015D6B5C6B806A816A90
:101D0A00826A836A846AD70E926EC00E936EBD0E83
:101D1A00946E700E956E0F0E966E810ED56E630ED2
:101D2A00D76EBF0ED66EF28EF28A3AEC07F00C0E20
:101D3A00496F6AEC00F0150E0B6E4B0E0C6EBE0E60
:101D4A000D6E0D2EFED70C2EFCD70B2EFAD70000E7
:101D5A00808ACF0EAF6EAC840EEC07F09E9A9D8AF5
:101D6A009F8AF28C2C0E176F040E186F000E196FD3
:101D7A00000E1A6F5A0E1B6F020E1C6F3E0E1D6F5D
:101D8A00030E1E6F480E1F6F040E206F000E216F88
:101D9A00000E226F3E0E236F040E246F000E256F75
:101DAA00000E266FEDEC06F0150E176F020E186F77
:101DBA009DEC07F0020E0201EB6F76EC02F0EEC129
:081DCA003EF373EC01F012007E
:101DD2000CC300F00DC301F030EC03F0005201E13E
:101DE20041D110C300F011C301F030EC03F000C088
:101DF20007F31CD103010751960A04E1020E020106
:101E0200EC6FFF6B2FD103010751001904E007515A
:101E1200320A01E008D0030E0201EC6F0301075100
:101E22000201FF1B03D00201010EEC6F1BD1030163
:101E320006530AE0400E0715016E0150000A04E144
:101E4200010E0201EC6F0ED1030107AF19D0040E8F
:101E52000201EC6F07C3F7F2030107510201FF1BF6
:101E6200030E03010715016E01C0FDF20150000AC5
:101E720003E1050E0201EC6F0201010EFC6F0CD0B2
:101E8200050E03014A25E16E000E4B21E26EFF0EA4
:101E9200E66E010E0201EC6FE5D003010751A90ABB
:101EA2000CE1050E4A25E16E000E4B21E26EFF0E9B
:101EB200E66E010E0201EC6FD5D00201FC51FD5D10
:101EC200006E016A000E015A0050011013E0FC0579
:101ED200006E016A000E015A005003014A25E16EAC
:101EE20001504B21E26E07C3E6FF07510201FF1BBF
:101EF200FC2B15D0FC05006E016A000E015A005041
:101F020003014A25E16E01504B21E26E07C3E6FF51
:101F1200050E0201EC6F030107510201FF1BA2D063
:101F2200FF1D016E01C0FFF20150960A04E0FF514D
:101F3200A90A01E001D0FF2BFF510301071904E1B7
:101F4200060E0201EC6F0CD0050E03014A25E16E6C
:101F5200000E4B21E26EFF0EE66E010E0201EC6FE7
:101F620081D003010751A90A44E1010E0201EC6F7D
:101F7200040E03014A25E16E000E4B21E26EFF0EB4
:101F8200E66E030E4A25E16E000E4B21E26EFDC2A3
:101F9200E6FF010E0201FC6FFC51FD5D29E3FCC26C
:101FA20001F0020E006E015004E000360090FF0FB7
:101FB200FBD7F751001619E0FC05006E016A000E0E
:101FC200015A005003014A25026E01504B21036E53
:101FD20002C0E9FF03C0EAFF010EEE18006E02C064
:101FE200E1FF03C0E2FF00C0E6FF0201FC2BD4D7F1
:101FF2000CD0050E03014A25E16E000E4B21E26E64
:10200200FF0EE66E010E0201EC6F2CD0050E0301ED
:102012004A25E16E000E4B21E26EFF0EE66E010EC6
:102022000201EC6F1FD0010EEC6F1CD00201EC51CB
:10203200010AD8B4DFD6EC51020AD8B4E4D6EC5186
:10204200030AD8B4F4D6EC51040AD8B426D7EC511A
:10205200050AD8B465D7EC51060A83E0EC51070AA9
:06206200D5E0E1D71200F9
:10206800150E0301326F020E336F040E346F3CEC11
:1020780003F00052D8A48380150E326F020E336F1E
:10208800050E346F3CEC03F00052D8A48390150E73
:10209800326F020E336F060E346F3CEC03F00052C1
:1020A800D8A48382150E326F020E336F070E346F79
:1020B8003CEC03F00052D8A48392150E326F020E46
:1020C800336F080E346F3CEC03F00052D8A48386BB
:1020D800150E326F020E336F090E346F3CEC03F0AD
:1020E8000052D8A48396150E326F020E336F010E7C
:1020F800346F3CEC03F0005202E00101AB6B150EAB
:102108000301326F020E336F020E346F3CEC03F0A2
:10211800005202E00101C36B0201EB51020A18E10F
:102128000101AB5315E0C35313E15CEC0BF0010E56
:10213800C36F150E0301326F020E336F060E346F34
:10214800000E356F366F376F020E386FA7EC02F04E
:102158000201EB51040A18E10101AB5315E0C35326
:1021680013E138EC09F0010EC36F150E0301326F4D
:10217800020E336F060E346F000E356F366F376FF1
:0A218800020E386FA7EC02F01200FF
:1021920013D001010EA305D0010E0001E86F010169
:1021A200106B08EC08F015D003EC08F012D071DDCA
:1021B20010D025EC0CF00DD00001E851000AE9E046
:1021C200E851010AF1E0E851020AF1E0E851030A9C
:0421D200F0E0120027
:1021D60001010F5368E00FC1FEF2E95332E0020E2F
:1021E6000301176F010E186F3E0E196F07EC09F009
:1021F600020E176F020E186F3E0E196F07EC09F0EC
:10220600020E176F030E186F3E0E196F07EC09F0DA
:10221600020E176F100E186F3C0E196F07EC09F0BF
:10222600020E176F0F0E186F3C0E196F07EC09F0B0
:10223600020E176F0E0E186F3C0E196F07EC09F0A1
:1022460031D00301020E176F010E186F200E196FA1
:1022560007EC09F0020E176F020E186F200E196FA9
:1022660007EC09F0020E176F030E186F200E196F98
:1022760007EC09F0020E176F100E186F200E196F7B
:1022860007EC09F0020E176F0F0E186F200E196F6C
:1022960007EC09F0020E176F0E0E186F200E196F5D
:1022A60007EC09F036D00201FE5331E0020E0301BD
:1022B600176F010E186F200E196F07EC09F0020E4A
:1022C600176F020E186F200E196F07EC09F0020E39
:1022D600176F030E186F200E196F07EC09F0020E28
:1022E600176F100E186F200E196F07EC09F0020E0B
:1022F600176F0F0E186F200E196F07EC09F0020EFC
:10230600176F0E0E186F200E196F07EC09F0E9C152
:04231600FEF21200C1
:10231A0011D0A5EC0AF021D07EDC1FD0DFEC0BF047
:10232A001CD0D2EC0AF019D02FEC0DF016D0BBEC71
:10233A0009F013D00001FB51000AEBE0FB51010A3E
:10234A00EBE0FB51020AEAE0FB51030AEAE0FB5127
:0C235A00040AEAE0FB51050AEAE0120068
:102366000301146B156B83BC02D0148101D0149148
:1023760080BA02D0148301D0149383B802D0148596
:1023860001D01495F6D003011451000A0EE00101A4
:10239600D051000A0AE114C315F3010ED06F640E82
:1023A600CF6F010EE56F14C3E4F1F6D00101D051F1
:1023B600000A0AE103011451000A06E1156B010146
:1023C600E46B010ED06FE56B0101D051000A10E1FC
:1023D600030114510101E4190BE1CF51000A08E190
:1023E60014C315F3020EE56F060ECF6F0A0EE36FE8
:1023F600D051000A10E1030114510101E4190BE068
:1024060003011451000A07E014C315F314C3E4F1E1
:10241600010E0101D06FC0D0030114510101E4196E
:102426000BE1CF51000A08E1E351000805E214C3AD
:1024360015F3060ECF6FE307030114510101E419EA
:102446000EE1CF51000A0BE1E351000A08E114C383
:1024560015F3060ECF6F0A0EE36F030EE56F030149
:1024660014510101E4190FE003011451000A0BE0B5
:1024760014C315F314C3E4F1010E0101D06F640E09
:10248600CF6F010EE56F03011451000A06E1156BCB
:102496000101E46B010ED06FE56B7ED00301145190
:1024A6000101E4190BE1CF51000A08E1E3510008EC
:1024B60005E214C315F3060ECF6FE30703011451AB
:1024C6000101E4190CE1CF51000A09E1E351000AC8
:1024D60006E114C315F3060ECF6F040EE56F030174
:1024E60014510101E4190FE003011451000A0BE035
:1024F60014C315F314C3E4F1010E0101D06F640E89
:10250600CF6F010EE56F03011451000A06E1156B4A
:102516000101E46B010ED06FE56B3ED0030114514F
:102526000101E41907E1CF51000A04E114C315F3D0
:10253600060ECF6F030114510101E4190FE00301E8
:102546001451000A0BE014C315F314C3E4F1010E91
:102556000101D06F640ECF6F010EE56F03011451B8
:10256600000A06E1156B0101E46B010ED06FE56B05
:1025760013D00101E551000AD8B405D7E551010A87
:10258600D8B414D7E551020AD8B446D7E551030AA0
:0E25960085E0E551040AC2E015C300F0120012
:1025A4000201F1536AE0F16B61D0C7C1CBF1C8C13C
:1025B400CCF1C9C1CDF1CAC1CEF1010E0101AB6F9D
:1025C400150E0301326F020E336F010E346F5FEC90
:1025D40005F0150E326F020E336F3C0E346F000E91
:1025E400356F366F376F010E386FA7EC02F0C80EE7
:1025F4000201ED6F0B0E0C6E620E0D6E0D2EFED7EA
:102604000C2EFCD70000ED0E0301176F020E186F9D
:10261400010E196FDEEC09F0838E2FD0DC0E02015F
:10262400ED6FEB51020A04E0EB51040A01E002D021
:10263400C80EED6FEB51010A04E0EB51030A01E00F
:1026440002D0D20EED6F0B0E0C6E620E0D6E0D2EBF
:10265400FED70C2EFCD70000ED0E0301176F020EFF
:10266400186F010E196FDEEC09F007D00201ED516D
:0C267400010A9BE0ED51020AD1E01200C7
:10268000D20E03011425E96E000E1521EA6EEECF7D
:1026900001F0EECF02F0EECF03F0EECF04F00450E5
:1026A000FF0A08E10350FF0A05E10250FF0A02E1B8
:1026B0000150FF0A23E0D20E1425046E000E1521EE
:1026C000056E04C0E9FF05C0EAFF010EEE24006EAE
:1026D000000EEE20016E000EEE20026E000EEE20C7
:1026E000036E04C0E1FF05C0E2FF00C0E6FF01C0C9
:1026F000E6FF02C0E6FF03C0E6FF0AD0D20E1425B3
:10270000E16E000E1521E26EE66AE66AE66AE66AA6
:022710001200B5
:102712000301166B166B1E0E165DD8B07CD0070E29
:10272200006E000E016E16C304F0000E056ED5ECAD
:1027320001F01451002615510122050E0024E96E04
:10274200000E0120EA6EEE50000A63E1070E006EF1
:10275200000E016E16C304F0000E056ED5EC01F0FA
:102762001451002615510122010E0024E96E000EBB
:102772000120EA6EEECF05F0EECF06F0EECF07F0C5
:10278200EECF08F0D20E1425D96E000E1521DA6EA6
:10279200DECF01F0DECF02F0DECF03F0DECF04F0B9
:1027A2000850041808E10750031805E10650021802
:1027B20002E1055001182DE1070E006E000E016EB8
:1027C20016C304F0000E056ED5EC01F0145100267C
:1027D20015510122060E0024E96E000E0120EA6E58
:1027E200EE50000A16E1070E006E000E016E16C3CF
:1027F20004F0000E056ED5EC01F0145100261551BF
:102802000122060E0024E16E000E0120E26E010E8E
:08281200E66E162B80D71200C0
:10281A007EEC15F07DEC0EF0010E3E6F010E3F6F5F
:10282A00EF0E406F010E416F34EC01F0020E3E6F65
:10283A00010E3F6F040E406F020E416F34EC01F03F
:10284A00020100530CE073EC0EF00001FC51000889
:10285A0003E2FC07808601D080960201006B0153D7
:10286A0029E0000E006E0351005C02E102510008EB
:10287A0005E2010E025F000E035B01D0809A01019E
:10288A00E953010ED8A4000EE96FA0DC010E010184
:10289A00C727000EC823C923CA23150E0301146FC4
:1028AA00020E156FE8DE150E146F020E156F2CDF7F
:1028BA000201016B53DD00C00EF10050000A08E06E
:1028CA00680E0201026F010E036F030E0001FC6F16
:1028DA000001FA51000A01E157DC1ADD5EDE34EC30
:1028EA0010F0000E006E02010351005C02E1025179
:0A28FA000008D8A0808AA4D7FFD7F9
:102AFC0010EE1DF0F80E006E020E016E040EF66E56
:0E2B0C00290EF76E000EF86E6BEC0EF0120044
:1029040035204E6574204164647265737320202001
:0129140000C2
:102915003620576F726B696E67204D6F6465202096
:0129250000B1
:1029260034204175746F636C6F73652054696D65EF
:0129360000A0
:102937003220436C6F73696E672054696D65202080
:01294700008F
:102948003320496E76616C69642054696D65202076
:01295800007E
:1029590020202053746172742F53746F70202020CB
:01296900006D
:10296A00202020202020204E4F2020202020202000
:01297A00005C
:10297B00382053617665204368616E67657320204C
:01298B00004B
:10298C00202020202020204E4320202020202020EA
:01299C00003A
:10299D002020204F70656E2F436C6F7365202020B3
:0129AD000029
:1029AE003720495220696E204D6F6465202020002B
:1029BE0031204F70656E6E696E672054696D6520AB
:0129CE000008
:0129CF000007
:1029D000202020204F70656E6E696E6720202020B9
:0129E00000F6
:0129E10000F5
:0129E20000F4
:0129E30005EE
:1029E40020202020202020202020202020202020E3
:0129F40000E2
:0129F50000E1
:0129F60000E0
:0129F70000DF
:1029F80020202020496E76616C69642020202020E8
:012A080000CD
:032A09004D20005D
:102A0C0020202020204F70656E656420202020201F
:012A1C0000B9
:102A1D0020202020496E76616C69642020202020C2
:012A2D0000A8
:042A2E0000000000A4
:102A3200202020204F70656E6E696E672020202056
:012A42000093
:042A43004C433A00C6
:032A470048200024
:102A4A00202020204F70656E6E696E67202020203E
:012A5A00007B
:102A5B00202020204F70656E6E696E67202020202D
:012A6B00006A
:102A6C0020202020436C6F73696E6720202020206B
:012A7C000059
:102A7D002020202020436C6F7365642020202020AF
:012A8D000048
:042A8E002E30730073
:012A92000043
:042A93002E35730069
:022A9700D2016A
:102A9900392044697363617264202620457869741A
:012AA900002C
:012AAA00002B
:032AAB00532000B5
:042AAE000000000024
:042AB2000000000020
:012AB600001F
:012AB700001E
:012AB800001D
:102AB900202020202020202020202020202020200D
:012AC900000C
:012ACA00000B
:012ACB00000A
:012ACC000009
:012ACD000AFE
:012ACE000106
:012ACF000AFC
:012AD0000005
:012AD1000004
:012AD2000003
:012AD3000002
:012AD40014ED
:012AD5000000
:102AD6002020202020537461727421202020202081
:012AE60000EF
:012AE70000EE
:012AE80000ED
:022AE900680182
:102AEB0020202020202020202020202020202020DB
:012AFB0000DA
:020000040030CA
:0E00000015187F7CFF8991FF0FC00FE00F40A5
:0200000400F00A
:10000000141402280A000000000000000000000094
:10001000FFFFFFFFFFFFFFFFFFFFFFFFFFFFFFFFF0
:10002000FFFFFFFFFFFFFFFFFFFFFFFFFFFFFFFFE0
:10003000FFFFFFFFFFFFFFFFFFFFFFFFFFFFFFFFD0
:10004000FFFFFFFFFFFFFFFFFFFFFFFFFFFFFFFFC0
:00000001FF
