:0400000030EF14F0D9
:1000080000C018F001C017F002C016F003C015F0C8
:10001800E1CF1BF0E2CF1CF0E9CF19F0EACF1AF0DC
:10002800F2A410D0F2AA0ED0010E296E542A190E8D
:10003800545C03E3010E2A6E546A630ED76EBF0E3A
:10004800D66EF2949DAA0AD09EAA08D02D0E02015F
:10005800536F010E546F87EC0FF09E9A18C000F092
:1000680017C001F016C002F015C003F019C0E9FF6F
:0E0078001AC0EAFF1BC0E1FF1CC0E2FF11002E
:100086003A0E0C6E230E0D6E0D2EFED70C2EFCD7DF
:02009600120056
:0A009800850E0D6E0D2EFED712002E
:0C00A200020E0D6E0D2EFED700001200A5
:1000AE00086A080E0C6E003408360450085ED8B08C
:0E00BE0002D00826D89000360C2EF5D712007E
:1000CC00020152BF02D0819601D0818652BD02D06E
:1000DC00819401D0818452BB02D0819201D0818263
:1000EC0052B902D0819001D08180010153B102D06C
:1000FC00818A01D0819A8188CEDF8198020152B722
:10010C0002D0819601D0818652B502D0819401D063
:10011C00818452B302D0819201D0818252B102D03B
:10012C00819001D08180010153B102D0818A01D02C
:10013C00819A8188B0DF819853A102D09EDF01D0D3
:04014C00A5DF120019
:100150004EC204F04FC205F04CC202F04DC203F093
:1001600050C200F051C201F0010E0201505F000EBA
:10017000515B005001100FE004C0E9FF05C0EAFF29
:1001800002C0E1FF03C0E2FFEECFE6FF024A032A0E
:10019000044A052AE5D74CC200F04DC201F0120016
:0E01A000010153914CC252F291DF53811200C3
:1001AE0002014F6B030E4F5D0AE24F514D25E16E7A
:1001BE00000E4E21E26E200EE66E4F2BF3D74F51FE
:1001CE004D25E16E000E4E21E26EE66A4F074F514D
:1001DE004D25506F000E4E21516F0A0E046E4CC20B
:1001EE0000F05EDF08C000F0300E002650C2E1FFC6
:1001FE0051C2E2FF00C0E6FF0A0E046E4CC200F0D0
:10020E004FDF00C04CF20050000A01E102D04F0750
:04021E00DED7120015
:100222000900F5CFE6FF0006FBE10106F9E1120045
:100232007F9C42C275FF41C274FF7F9E7F8073CF55
:0402420000F01200B6
:100246000B6A0A6A096A00500402F4CF09F0F3CF78
:1002560008F001500502F4CF0BF0F3CF0AF000507E
:100266000502F3500926F4500A22E86A0B220150CF
:100276000402F3500926F4500A22E86A0B2208C049
:1002860000F009C001F00AC002F00BC003F0120032
:10029600086A096A100E0C6E0134083609360450D5
:1002A600085E0550D8A0053C095ED8B007D00450BA
:1002B60008260550D8B0053C0926D89000360136E8
:0602C6000C2EEAD7120025
:0C02CC00BAB201D0FDD741C279FF120088
:1002D80010D0800E0201416F1AD0C00E416F17D0A6
:1002E800940E416F14D0D40E416F11D0800E416F1F
:1002F8000ED002014151010AECE04151020AEDE041
:100308004151030AEDE04151040AEDE0EFD74205FF
:10031800006E4151002600C041F200C052F2D2DE08
:1003280053910201456B45514325E96E000E442166
:10033800EA6EEE520CE045514325E96E000E442169
:10034800EA6EEECF4CF228DF0201452BECD7010113
:0403580053811200BB
:10035C0094928292010E0101376F446B41C254F1A9
:10036C0002014151960A04E04151A90A01E006D06C
:0E037C00010E41190101546FFF0E446F120073
:10038A007FA202D00000FCD77F9C42C275FF41C207
:10039A0074FF43C273FF7F9E7F84F2CF00F0F29E08
:1003AA00550E7E6EAA0E7E6E7F8200BE02D0F29E2F
:0803BA0001D0F28E7F941200C5
:1003C20041C24CF202014C334C9F42C24DF243C235
:1003D2004EF2ECDE010E4115016E0150010A17E1E9
:1003E200030E42254C6F000E43214D6F2E0E446FBB
:1003F200350E456F730E466F476B440E4E6F020EFD
:100402004F6F040E506F000E516FA1DE16D0030E17
:1004120042254C6F000E43214D6F2E0E486F300E59
:10042200496F730E4A6F4B6B480E4E6F020E4F6F41
:0C043200040E506F000E516F8ADE1200A5
:10043E0041C2C9FFC7B002D00000FCD7C9CF00F03F
:02044E0012009A
:0E045000ACB202D00000FCD741C2ADFF1200DA
:0A045E00000EACB2010E006E120099
:0A046800000E9EBA010E006E120095
:10047200AECF01F0ABA202D0AB98AB8801C000F0C6
:02048200120066
:0A048400000EBAB2010E006E120065
:0A048E00000EA4BA010E006E120069
:100498007ACF01F0A6A202D0A698A68801C000F0E3
:0204A800120040
:1004AA000101B26B1E0EB25D4DE2AFC1B3F1B0C134
:1004BA00B4F1070E006E000E016EB2C104F0000E18
:1004CA00056EBCDEB3510026B4510122050E00248C
:1004DA00E96E000E0120EA6EEE50000A31E1AFC16A
:1004EA00B3F1B0C1B4F1070E006E000E016EB2C1D5
:1004FA0004F0000E056EA2DE0050B325E96E01502D
:10050A00B421EA6EEECF01F00150B11919E1AFC181
:10051A00B3F1B0C1B4F1070E006E000E016EB2C1A4
:10052A0004F0000E056E8ADEB3510026B451012292
:10053A00050E0024E16E000E0120E26E010EE66E49
:06054A00B22BB0D7120035
:100550000201416B426B1FC043F217DF010E020123
:10056000416F000E426F1EC043F20FDF020E020108
:10057000416F000E426F1DC043F207DF030E020100
:10058000416F000E426F20C043F2FFDE040E0201F5
:10059000416F000E426F22C043F2F7DE22C041F2EB
:0405A000DDDE12008A
:1005A4000101B76BB86BB96BBA6BD20EAF25E96EAC
:1005B400000EB021EA6EB151EE24B76FB251EE20B5
:1005C400B86FB351EE20B96FB451EE20BA6FB66B69
:1005D4001E0EB65DD8B081D0AFC1BBF1B0C1BCF1C5
:1005E400070E006E000E016EB6C104F0000E056E1B
:1005F40028DEBB510026BC510122050E0024E96E01
:10060400000E0120EA6EEE50010A65E1AFC1BBF1B4
:10061400B0C1BCF1070E006E000E016EB6C104F04D
:10062400000E056E0EDE0050BB25E16E0150BC21AC
:10063400E26EB5C1E6FFAFC1BBF1B0C1BCF1070EBC
:10064400006E000E016EB6C104F0000E056EF9DDF9
:10065400BB510026BC510122010E0024E16E000EA4
:100664000120E26EB7C1E6FFB8C1E6FFB9C1E6FFFB
:10067400BAC1E6FFAFC1BBF1B0C1BCF1070E006E59
:10068400000E016EB6C104F0000E056EDADDBB513A
:100694000026BC510122050E0024E16E000E01204B
:1006A400E26EE66AAFC1BBF1B0C1BCF1070E006EE9
:1006B400000E016EB6C104F0000E056EC2DDBB5122
:1006C4000026BC510122060E0024E16E000E01201A
:0C06D400E26EE66A02D0B62B7BD7120063
:1006E0000B6A0A6A096A086A0E6A033408360450FB
:1006F000085E0550D8A0053C095E0650D8A0063C0F
:100700000A5E0750D8A0073C0B5EE86AD8A0010E2D
:100710000E5E0336070E0C6E0334083609360A36B1
:100720000B360E36045003A012D0085E0550D8A038
:10073000053C095E0650D8A0063C0A5E0750D8A0CA
:10074000073C0B5EE86AD8A0010E0E5E11D00826A9
:100750000550D8B0053C09260650D8B0063C0A26FC
:100760000750D8B0073C0B26E86AD8B0010E0E2619
:1007700003360C2ED1D70234083609360A360B362A
:100780000E36045003A012D0085E0550D8A0053CD8
:10079000095E0650D8A0063C0A5E0750D8A0073C68
:1007A0000B5EE86AD8A0010E0E5E11D00826055037
:1007B000D8B0053C09260650D8B0063C0A2607509A
:1007C000D8B0073C0B26E86AD8B0010E0E260236D8
:1007D000070E0C6E0234083609360A360B360E3612
:1007E000045002A012D0085E0550D8A0053C095E56
:1007F0000650D8A0063C0A5E0750D8A0073C0B5E06
:10080000E86AD8A0010E0E5E11D008260550D8B0B7
:10081000053C09260650D8B0063C0A260750D8B039
:10082000073C0B26E86AD8B0010E0E2602360C2EC5
:10083000D1D70134083609360A360B360E36045045
:1008400002A012D0085E0550D8A0053C095E0650F3
:10085000D8A0063C0A5E0750D8A0073C0B5EE86AA9
:10086000D8A0010E0E5E11D008260550D8B0053C68
:1008700009260650D8B0063C0A260750D8B0073CD7
:100880000B26E86AD8B0010E0E260136070E0C6E54
:100890000134083609360A360B360E36045001A0EC
:1008A00012D0085E0550D8A0053C095E0650D8A0BD
:1008B000063C0A5E0750D8A0073C0B5EE86AD8A049
:1008C000010E0E5E11D008260550D8B0053C092651
:1008D0000650D8B0063C0A260750D8B0073C0B2675
:1008E000E86AD8B0010E0E2601360C2ED1D700349E
:1008F000083609360A360B360E36045001A012D0DF
:10090000085E0550D8A0053C095E0650D8A0063CFC
:100910000A5E0750D8A0073C0B5EE86AD8A0010E1B
:100920000E5E11D008260550D8B0053C09260650A9
:10093000D8B0063C0A260750D8B0073C0B26E86A18
:10094000D8B0010E0E260036070E0C6E00340836A5
:1009500009360A360B360E36045000A012D0085E57
:100960000550D8A0053C095E0650D8A0063C0A5E9A
:100970000750D8A0073C0B5EE86AD8A0010E0E5EB7
:1009800011D008260550D8B0053C09260650D8B02D
:10099000063C0A260750D8B0073C0B26E86AD8B0B8
:1009A000010E0E2600360C2ED1D700B00ED004500A
:1009B00008260550D8B0053C09260650D8B0063C9C
:0C09C0000A260750D8B0073C0B26120096
:1009CC00F250026EF29E0500FF6A0150FE6E00505E
:0809DC00FD6E02BEF28E120056
:1009E4000101B36B050EB35D0AE2B351B125E16EAB
:1009F400000EB221E26E200EE66EB32BF3D7B35194
:100A0400B125E16E000EB221E26EE66AB307B3517E
:100A1400B125B46F000EB221B56F0A0E046E000E3C
:100A2400056EAFC100F0B0C101F033DC08C000F0C6
:100A340009C001F0300E0026B4C1E1FFB5C1E2FFE8
:100A440000C0E6FF0A0E046E000E056EAFC100F092
:100A5400B0C101F01EDC00C0AFF101C0B0F1000E66
:100A6400011802E1000E001801E102D0B307CFD74C
:020A740012006E
:100A76000101B26BB36BB26B1E0EB25D6EE2AFC11B
:100A8600B4F1B0C1B5F1070E006E000E016EB2C131
:100A960004F0000E056E23EC01F0B4510026B551AA
:100AA6000122050E0024E96E000E0120EA6EEE50CA
:100AB600000A51E1AFC1B4F1B0C1B5F1070E006E45
:100AC600000E016EB2C104F0000E056E23EC01F0BB
:100AD600B4510026B5510122060E0024E96E000E1F
:100AE6000120EA6EEE50010A36E1AFC1B4F1B0C1A1
:100AF600B5F1070E006E000E016EB2C104F0000ED5
:100B0600056E23EC01F00050B425E96E0150B521C5
:100B1600EA6EEECF01F00150B1191DE1AFC1B4F19B
:100B2600B0C1B5F1070E006E000E016EB2C104F041
:100B3600000E056E23EC01F0B4510026B5510122DA
:100B4600050E0024E16E000E0120E26E010EE66E37
:100B5600010EB36F02D0B22B8FD7B3C100F01200D3
:100B66000201416B426B19EC01F000C01FF0010E4F
:100B7600416F000E426F19EC01F000C01EF0020E2C
:100B8600416F000E426F19EC01F000C01DF0030E1C
:100B9600416F000E426F19EC01F000C020F0040E08
:100BA600416F000E426F19EC01F000C022F01200F6
:100BB600370E02014C6F020E4D6F780EF66E290E3F
:100BC600F76E000EF86EAF0EE16E010EE26E110EBC
:100BD600006E010E016E11EC01F0AF0E4E6F010EAC
:100BE6004F6F0A0E506F000E516FA8EC00F0010E09
:100BF600526F66EC00F039D1010E0201416F010E11
:100C0600426F890EF66E290EF76E000EF86EC00E54
:100C1600E16E010EE26E110E006E010E016E11EC18
:100C260001F0C00E436F010E446F6CEC01F01FC063
:100C360041F2370E0201426F020E436FE1EC01F002
:100C4600020E416F050E426F370E436F020E446F60
:100C56006CEC01F024D1010E0201416F010E426FCE
:100C66009A0EF66E290EF76E000EF86ED10EE16E34
:100C7600010EE26E110E006E010E016E11EC01F016
:100C8600D10E436F010E446F6CEC01F01EC041F2B1
:100C9600370E0201426F020E436FE1EC01F0020EC5
:100CA600416F050E426F370E436F020E446F6CECB8
:100CB60001F0F5D0010E0201416F010E426FAB0E3D
:100CC600F66E290EF76E000EF86EE20EE16E010E5C
:100CD600E26E110E006E010E016E11EC01F0E20ED5
:100CE600436F010E446F6CEC01F01DC041F2370EEC
:100CF6000201426F020E436FE1EC01F0020E416FFA
:100D0600050E426F370E436F020E446F6CEC01F016
:100D1600C6D0010E0201416F010E426FBC0EF66E87
:100D2600290EF76E000EF86EF30EE16E010EE26EFE
:100D3600110E006E010E016E11EC01F0F30E436F01
:100D4600010E446F6CEC01F020C041F2370E020137
:100D5600426F020E436FE1EC01F0020E416F050E89
:100D6600426F370E436F020E446F6CEC01F097D062
:100D7600010E0201416F010E426FCD0EF66E290E75
:100D8600F76E000EF86E040EE16E020EE26E110EA4
:100D9600006E010E016E11EC01F0040E436F020E9F
:100DA600446F6CEC01F022C04CF2370E02014D6F1D
:100DB600020E4E6FD7EC00F0020E416F050E426F29
:100DC600370E436F020E446F6CEC01F068D0010ED3
:100DD6000201416F010E426FDE0EF66E290EF76EAE
:100DE600000EF86E150EE16E020EE26E110E006E2A
:100DF600010E016E11EC01F0150E436F020E446FE9
:100E06006CEC01F0020E0201416F010E426F30C020
:100E160043F231C044F26CEC01F041D0010E020104
:100E2600416F010E426FEF0EF66E290EF76E000E41
:100E3600F86E260EE16E020EE26E110E006E010EC7
:100E4600016E11EC01F0260E436F020E446F6CEC3E
:100E560001F0020E0201416F010E426F30C043F2F3
:100E660031C044F26CEC01F01AD04150000AD8B4FB
:100E7600C3D64150010AD8B4EED64150020AD8B4BE
:100E860019D74150030AD8B444D74150040AD8B4FC
:100E96006FD74150050A9BE04150060ABFE0120099
:100EA600CC0E0101456F020E466F410E476F020ED2
:100EB600486F980E386F040E396F000E3A6F000EA9
:100EC6003B6F8E0E3C6F040E3D6F000E3E6F000EA4
:100ED6003F6F840E406F040E416F000E426F000E8E
:100EE600436FBA8A900EA66E958E959CA4AA03D0DF
:080EF6007ACF00F0FBD71200D7
:100EFE007CC138F17DC139F17EC13AF17FC13BF140
:100F0E0080C145F181C146F182C147F183C148F1EB
:100F1E0084C13CF185C13DF186C13EF187C13FF1EF
:100F2E0088C140F189C141F18AC142F18BC143F1BF
:020F3E0012009F
:100F400001017E6B1E0E7E5D66E27CC17FF17DC17C
:100F500080F1070E006E000E016E7EC104F0000EDF
:100F6000056E23EC01F000507F25E16E01508021D9
:100F7000E26EE66A7CC17FF17DC180F1070E006EF2
:100F8000000E016E7EC104F0000E056E23EC01F030
:100F90007F51002680510122010E0024E16E000ED7
:100FA0000120E26EE66AE66AE66AE66A7CC17FF1E3
:100FB0007DC180F1070E006E000E016E7EC104F04F
:100FC000000E056E23EC01F07F51002680510122B6
:100FD000050E0024E16E000E0120E26E010EE66EA9
:100FE0007CC17FF17DC180F1070E006E000E016EA5
:100FF0007EC104F0000E056E23EC01F07F51002647
:1010000080510122060E0024E16E000E0120E26EE6
:10101000E66A7E2B97D7D20E7C25E16E000E7D21ED
:0C102000E26EE66AE66AE66AE66A120022
:10102C009398939A93909392939493968198819A90
:10103C00819681948192819043EC00F043EC00F016
:10104C0043EC00F081828180818851EC00F0819822
:10105C0043EC00F0818851EC00F0819843EC00F0F7
:10106C00818851EC00F0819843EC00F081908188EC
:10107C0051EC00F0819843EC00F0818851EC00F0C9
:10108C00819881928186818851EC00F0819843ECA3
:10109C0000F081968180818851EC00F081988190DC
:1010AC00818851EC00F0819843EC00F0818851EC80
:1010BC0000F081988180818851EC00F0819843EC9C
:1010CC0000F08190818851EC00F0819881868184B8
:1010DC0081828180818851EC00F0819843EC00F092
:0610EC0001015381120016
:1010F20080BA02D0008001D0009078D0560E010153
:10110200AF6F000EB06F010EB16F000EB26FB36F12
:10111200B46F060EB56FD2EC02F0560EAF6F000E32
:10112200B06F020EB16F000EB26FB36FB46F070EE5
:10113200B56FD2EC02F0560EAF6F000EB06F030E19
:10114200B16F000EB26FB36FB46F040EB56FD2EC15
:1011520002F0560EAF6F000EB06F040EB16F000EAC
:10116200B26FB36FB46F050EB56FD2EC02F0010E21
:10117200216E40D00101560EAF6F000EB06F010E0E
:10118200B16F000EB26FB36FB46F060EB56FD2ECD3
:1011920002F0560EAF6F000EB06F020EB16F000E6E
:1011A200B26FB36FB46F070EB56FD2EC02F0560E8A
:1011B200AF6F000EB06F030EB16F000EB26FB36F60
:1011C200B46F040EB56FD2EC02F0560EAF6F000E84
:1011D200B06F040EB16F000EB26FB36FB46F050E35
:1011E200B56FD2EC02F0010E216E04D000A086D7BA
:0611F20000B0C0D712009E
:1011F80033C005F034C006F035C007F036C008F03B
:101208003750055E3850065A3950075A3A50085A2E
:1012180005C001F006C002F007C003F008C004F0E2
:101228000432033202320132049E01C07CF102C052
:101238007DF103C07EF104C07FF104500101511912
:1012480008E10350501905E102504F1902E101501D
:101258004E19D8B4DAD07CC14EF17DC14FF17EC1B0
:1012680050F17FC151F13C0E046E000E056E066E02
:10127800076E7CC100F07DC101F07EC102F07FC124
:1012880003F070EC03F008C000F009C001F00AC0D8
:1012980002F00BC003F000C081F13C0E046E000E9A
:1012A800056E066E076E7CC100F07DC101F07EC13F
:1012B80002F07FC103F070EC03F000C07CF101C0C4
:1012C8007DF102C07EF103C07FF13C0E046E000E7A
:1012D800056E066E076E70EC03F008C000F009C0DA
:1012E80001F00AC002F00BC003F000C080F13C0E10
:1012F800046E000E056E066E076E7CC100F07DC19F
:1013080001F07EC102F07FC103F070EC03F000C071
:10131800AFF101C0B0F1840EB16F010EB26FF2EC03
:1013280004F080C14CF28A0E02014D6F010E4E6F1F
:10133800D7EC00F081C14CF28E0E4D6F010E4E6F4E
:10134800D7EC00F0820E4C6F010E4D6F4C0E010170
:10135800936F430E946F3A0E956F966B930E02013E
:101368004E6F010E4F6F030E506F000E516FA8ECB9
:1013780000F0890E4C6F010E4D6F480E0101976FFA
:10138800200E986F996B970E02014E6F010E4F6FEA
:10139800020E506F000E516FA8EC00F08D0E4C6FCE
:1013A800010E4D6F4D0E01019A6F200E9B6F9C6BC5
:1013B8009A0E02014E6F010E4F6F020E506F000E13
:1013C800516FA8EC00F0910E4C6F010E4D6F530E4B
:1013D80001019D6F200E9E6F9F6B9D0E02014E6F47
:1013E800010E4F6F020E506F000E516FA8EC00F007
:1013F8000101926B010E0201416F010E426F820ED4
:0C140800436F010E446F6CEC01F0120009
:0A141400DBEC05F0020E3C6E120046
:10141E00560E0101AF6F000EB06F360EB16F3BEC82
:10142E0005F0005224E0020E2C6F3D50000A1EE122
:10143E003C50000A1BE1020E0201416F010E426F89
:10144E00B00EF66E2A0EF76E000EF86E7C0EE16E82
:10145E00010EE26E110E006E010E016E11EC01F026
:10146E007C0E436F010E446F6CEC01F03B6A120070
:10147E0010D0800E01017C6F1AD0C00E7C6F17D079
:10148E00940E7C6F14D0D40E7C6F11D0800E7C6FB6
:10149E000ED001017C51010AECE07C51020AEDE014
:1014AE007C51030AEDE07C51040AEDE0EFD77D0597
:1014BE00006E7C51002600C07CF1538100C052F2B8
:1014CE0066EC00F053917EC152F266EC00F053814F
:0214DE001200FA
:1014E000500E0101456F040E466F410E476F020E0C
:1014F000486F720E386F040E396F000E3A6F000E8F
:101500003B6F680E3C6F040E3D6F000E3E6F000E89
:101510003F6F5E0E406F040E416F000E426F000E73
:10152000436FAC8A900EAB6E948E949C9EAA03D0AF
:08153000AECF00F0FBD7120062
:10153800560E0101AF6F000EB06F350EB16F3BEC68
:1015480005F0005238E02C6B3D50000A1EE13C507B
:10155800000A1BE1020E0201416F010E426F390EB3
:10156800F66E2A0EF76E000EF86E7C0EE16E010E16
:10157800E26E110E006E010E016E11EC01F07C0E90
:10158800436F010E446F6CEC01F0050E3B6E560E76
:10159800AF6F000EB06F1DC0B1F1000EB26FB13762
:1015A800B237B191000EB2BFFF0EB36FB46F360EF3
:1015B800B56FD2EC02F082A04DD0560EAF6F000E80
:1015C800B06F350EB16F55EC02F0560EAF6F000ECE
:1015D800B06F360EB16F55EC02F0030E2C6F3D5014
:1015E800000A1EE13C50000A1BE1020E0201416F95
:1015F800010E426F4A0EF66E2A0EF76E000EF86E56
:101608008D0EE16E010EE26E110E006E010E016E7E
:1016180011EC01F08D0E436F010E446F6CEC01F07C
:10162800010E3B6E560EAF6F000EB06F33C0B1F1B6
:1016380034C0B2F135C0B3F136C0B4F12C50B15F4B
:101648002D50B25B2E50B35B2F50B45B320EB56F8A
:10165800D2EC02F021524EE0560EAF6F000EB06F82
:10166800350EB16F55EC02F0560EAF6F000EB06F2D
:10167800360EB16F55EC02F0030E2C6F3D50000A88
:101688001EE13C50000A1BE1020E0201416F010EEF
:10169800426F5B0EF66E2A0EF76E000EF86E9E0E07
:1016A800E16E010EE26E110E006E010E016E11EC7C
:1016B80001F09E0E436F010E446F6CEC01F0010EB9
:1016C8003B6E560EAF6F000EB06F33C0B1F134C031
:1016D800B2F135C0B3F136C0B4F12C50B15F2D5022
:1016E800B25B2E50B35B2F50B45B320EB56FD2ECA9
:0616F80002F0216A12005D
:1016FE0054C182F10101445303E0010E5419826F6B
:10170E0082827E05816F47C1E1FF48C1E2FF960EDE
:10171E00E66E45C100F046C101F0E6EC04F00101B1
:10172E008251960A04E08251A90A01E002D0827128
:10173E007E8D47C1E1FF48C1E2FF82C1E6FF45C190
:10174E0000F046C101F0E6EC04F001017F6B7F5121
:10175E00815D32E37F517C25E96E000E7D21EA6EBC
:10176E00EECF01F001C083F10150960A04E08351DF
:10177E00A90A01E01FD07F517C25016E000E7D214C
:10178E00026E01C0E9FF02C0EAFF010EEE18006E04
:10179E0001C0E1FF02C0E2FF00C0E6FF7FC101F021
:1017AE00040E006E015004E000360090FF0FFBD7D0
:1017BE0000507E137F2BCBD747C1E1FF48C1E2FF1C
:1017CE007EC1E6FF45C100F046C101F0E6EC04F033
:1017DE00010182517E19806F7F6B7F51815D1FE306
:1017EE007F517C25006E000E7D21016E00C0D9FF59
:1017FE0001C0DAFFDE50801B47C1E1FF48C1E2FFA6
:10180E0000C0E9FF01C0EAFFEECFE6FF45C100F0E0
:10181E0046C101F0E6EC04F001017F2BDED7801DFE
:10182E00016E01C080F10150960A04E08051A90AB0
:10183E0001E001D0802B47C1E1FF48C1E2FF80C12A
:10184E00E6FF45C100F046C101F0E6EC04F047C1E9
:10185E00E1FF48C1E2FFA90EE66E45C100F046C1A8
:10186E0001F0E6EC04F040C100F041C101F0E6ECFD
:0E187E0004F00050000A01E1F6D78292120039
:10188C0080BA02D0008001D0009078D0560E0101B1
:10189C00AF6F000EB06F010EB16F000EB26FB36F71
:1018AC00B46F060EB56FD2EC02F0560EAF6F000E91
:1018BC00B06F020EB16F000EB26FB36FB46F070E44
:1018CC00B56FD2EC02F0560EAF6F000EB06F030E78
:1018DC00B16F000EB26FB36FB46F040EB56FD2EC74
:1018EC0002F0560EAF6F000EB06F040EB16F000E0B
:1018FC00B26FB36FB46F050EB56FD2EC02F0010E80
:10190C00216E40D00101560EAF6F000EB06F010E6C
:10191C00B16F000EB26FB36FB46F060EB56FD2EC31
:10192C0002F0560EAF6F000EB06F020EB16F000ECC
:10193C00B26FB36FB46F070EB56FD2EC02F0560EE8
:10194C00AF6F000EB06F030EB16F000EB26FB36FBE
:10195C00B46F040EB56FD2EC02F0560EAF6F000EE2
:10196C00B06F040EB16F000EB26FB36FB46F050E93
:10197C00B56FD2EC02F0010E216E04D000A086D718
:06198C0000B0C0D71200FC
:10199200560E0101AF6F000EB06F340EB16F3BEC0B
:1019A20005F0005240E0040E2C6F3D50000A1EE18B
:1019B2003C50000A1BE1020E0201416F010E426F10
:1019C2008E0EF66E2A0EF76E000EF86E7C0EE16E2B
:1019D200010EE26E110E006E010E016E11EC01F0AD
:1019E2007C0E436F010E446F6CEC01F0040E3B6EF3
:1019F200560EAF6F000EB06F1DC000F0000E016EEC
:101A020000360136009000501E5CB16F01C0B2F189
:101A1200000EB257000EB2BFFF0EB36FB46F350E99
:101A2200B56FD2EC02F082A043D0560EAF6F000E1B
:101A3200B06F350EB16F55EC02F0560EAF6F000E5F
:101A4200B06F340EB16F55EC02F0030E2C6F3D50A7
:101A5200000A1EE13C50000A1BE1020E0201416F26
:101A6200010E426F9F0EF66E2A0EF76E000EF86E92
:101A72008D0EE16E010EE26E110E006E010E016E10
:101A820011EC01F08D0E436F010E446F6CEC01F00E
:101A9200010E3B6E560EAF6F000EB06F1DC0B1F15E
:101AA200000EB26FB36FB46F320EB56FD2EC02F0AC
:021AB200120020
:101AB400560E0101AF6F000EB06F330EB16F3BECE9
:101AC40005F0005245E02C6B3D50000A1EE13C50ED
:101AD400000A1BE1020E0201416F010E426FD20E99
:101AE400F66E2A0EF76E000EF86E7C0EE16E010E95
:101AF400E26E110E006E010E016E11EC01F07C0E0F
:101B0400436F010E446F6CEC01F0030E3B6E560EF6
:101B1400AF6F000EB06F1DC0B1F1000EB26FB137E0
:101B2400B237B191000EB2BFFF0EB36FB46F340E73
:101B3400B56FD2EC02F01D5033242C6E000E34200D
:101B44002D6E000E35202E6E000E36202F6E216A6B
:021B540012007D
:101B5600010E3E6E79D040A206D0FF0E1F5C03E256
:101B66001F2ADBEC05F040A406D01F50000803E254
:101B76001F06DBEC05F040A002D0010E3C6E79D0CA
:101B860040A206D0FF0E1E5C03E21E2ADBEC05F027
:101B960040A406D01E50000803E21E06DBEC05F04A
:101BA60040A002D0010E3C6E64D040A206D0FF0ECB
:101BB6001D5C03E21D2ADBEC05F040A406D01D5097
:101BC600000803E21D06DBEC05F040A002D0010E82
:101BD6003C6E4FD040A206D0FF0E205C03E2202AC6
:101BE600DBEC05F040A406D02050000803E22006F6
:101BF600DBEC05F040A002D0010E3C6E3AD040A2CC
:101C060006D0FF0E225C03E2222ADBEC05F040A49C
:101C160006D02250000803E22206DBEC05F040A0C5
:101C260002D0010E3C6E25D040B03C6A3E6AA8EC5C
:101C360002F03C6A140E3F6E1CD040B03C6A3E6A0D
:101C4600B3EC05F03C6A15D04150000A84E04150DF
:101C5600010A96E04150020AA8E04150030ABAE0A0
:101C66004150040ACCE04150050ADEE04150060A24
:041C7600E4E0120094
:101C7A003E6A40A409D04150000802E2410602D05F
:101C8A00060E416E010E3C6E40A208D0060E415C63
:101C9A0002E2412A01D0416A010E3C6E40A002D004
:061CAA00030E3C6E120067
:101CB000560E0101AF6F000EB06F320EB16F3BECEC
:101CC00005F0005238E0010E2C6F3D50000A1EE175
:101CD0003C50000A1BE1020E0201416F010E426FEF
:101CE000E30EF66E2A0EF76E000EF86E7C0EE16EB5
:101CF000010EE26E110E006E010E016E11EC01F08C
:101D00007C0E436F010E446F6CEC01F0020E3B6ED3
:101D1000560EAF6F000EB06F1D50205CB16FB26BEE
:101D2000000EB25B000EB2BFFF0EB36FB46F330E86
:081D3000B56FD2EC02F01200C5
:101D3800215235E0560E0101AF6F000EB06F1FC083
:101D4800B1F1000EB26FB36FB46F320EB56FD2EC53
:101D580002F0030E2C6F3D50000A1EE13C50000AB1
:101D68001BE1020E0201416F010E426FC10EF66EB9
:101D78002A0EF76E000EF86E7C0EE16E010EE26E12
:101D8800110E006E010E016E11EC01F07C0E436F16
:101D9800010E446F6CEC01F0010E3B6E216A1200DB
:101DA800560E0101AF6F000EB06F040EB16F3BEC21
:101DB80005F00052D8A48386560EAF6F000EB06FA0
:101DC800050EB16F3BEC05F00052D8A48396560E71
:101DD800AF6F000EB06F060EB16F3BEC05F000520E
:101DE800D8A48384560EAF6F000EB06F070EB16F84
:101DF8003BEC05F00052D8A48394560EAF6F000E4A
:101E0800B06F080EB16F3BEC05F00052D8A4838286
:101E1800560EAF6F000EB06F090EB16F3BEC05F0B8
:101E28000052D8A48392560EAF6F000EB06F010E09
:101E3800B16F3BEC05F00052D8A42B6A560EAF6F79
:101E4800000EB06F020EB16F3BEC05F00052D8A443
:101E5800326A2C51020A16E12B5214E0325212E176
:101E680011DD010E326E560E0101AF6F000EB06F1C
:101E7800060EB16F000EB26FB36FB46F020EB56F7E
:101E8800D2EC02F02C51040A17E12B5215E0325221
:101E980013E179EC08F0010E326E560E0101AF6FB6
:101EA800000EB06F060EB16F000EB26FB36FB46F55
:0A1EB800020EB56FD2EC02F012002A
:101EC20024500008D8A0240625500008D8A02506D2
:021ED2001200FC
:101ED4000FD040A003D0010E3C6E416AFCEC08F028
:101EE40013D00AEC0AF010D0C6DE0ED032DE0CD0CD
:101EF4003C50000AEEE03C50010AF3E03C50020A78
:0A1F0400F3E03C50030AF2E0120083
:101F0E003CC100F03DC101F0E6EC04F0005201E1ED
:101F1E002BD138C100F039C101F0E6EC04F000C05D
:101F2E004BF106D101014B51960A03E1020E376FB8
:101F3E004A6B1AD14B51541904E04B51320A01E04D
:101F4E0005D0030E376F4B514A1B02D0010E376F6F
:101F5E000BD1445309E0400E4B15016E0150000A9F
:101F6E0003E1010E376F00D14BAF13D0040E376F64
:101F7E004BC152F14B514A1B030E4B15016E01C062
:101F8E004CF10150000A02E1050E376F010E496F48
:101F9E000CD0050E02015325E16E000E5421E26EA7
:101FAE00FF0EE66E010E0101376FDED04B51A90A0E
:101FBE000DE1050E02015325E16E000E5421E26E75
:101FCE00FF0EE66E010E0101376FCED049514C5D0A
:101FDE00006E016A000E015A0050011013E049050F
:101FEE00006E016A000E015A005002015325E16E87
:101FFE0001505421E26E4BC1E6FF01014B514A1BC9
:10200E00492B13D04905006E016A000E015A00508B
:10201E0002015325E16E01505421E26E4BC1E6FFE1
:10202E00050E0101376F4B514A1B9ED04A1D016EA2
:10203E0001C04AF10150960A04E04A51A90A01E092
:10204E0001D04A2B4A514B1903E1060E376F0CD0C3
:10205E00050E02015325E16E000E5421E26EFF0EB5
:10206E00E66E010E0101376F7FD04B51A90A43E195
:10207E00010E376F040E02015325E16E000E54213E
:10208E00E26EFF0EE66E030E5325E16E000E542136
:10209E00E26E4CC1E6FF010E0101496F49514C5DE4
:1020AE0029E349C101F0020E006E015004E0003632
:1020BE000090FF0FFBD75251001619E04905006E34
:1020CE00016A000E015A005002015325026E0150A2
:1020DE005421036E02C0E9FF03C0EAFF010EEE18A1
:1020EE00006E02C0E1FF03C0E2FF00C0E6FF010187
:1020FE00492BD4D70CD0050E02015325E16E000EEC
:10210E005421E26EFF0EE66E010E0101376F2CD0E8
:10211E00050E02015325E16E000E5421E26EFF0EF4
:10212E00E66E010E0101376F1FD0010E376F1CD006
:10213E0001013751010AD8B4F5D63751020AD8B485
:10214E00F9D63751030AD8B404D73751040AD8B494
:10215E002DD73751050AD8B469D73751060A85E00D
:0A216E003751070AD5E0E1D712004F
:102178000101776B786B83BA02D0778101D07791B0
:1021880080BE02D0778301D0779383B802D0778559
:1021980001D07795CED07751000A0DE02450000A7F
:1021A8000AE177C178F1010E246E640E256E010EE6
:1021B800236E77C142F0CFD02450000A08E177514E
:1021C800000A05E1786B426A010E246E236A2450E6
:1021D800000A0EE1775142180BE12550000A08E188
:1021E80077C178F1020E236E060E256E0A0E556E23
:1021F8002450000A0CE17751421809E07751000A8F
:1022080006E077C178F177C142F0010E246EA3D0C1
:10221800775142180BE12550000A08E15550000893
:1022280005E277C178F1060E256E550677514218FA
:102238000EE12550000A0BE15550000A08E177C16C
:1022480078F1060E256E0A0E556E030E236E775131
:1022580042180DE07751000A0AE077C178F177C19A
:1022680042F0010E246E640E256E010E236E775126
:10227800000A05E1786B426A010E246E236A6BD06E
:10228800775142180BE12550000A08E15550000823
:1022980005E277C178F1060E256E5506775142188A
:1022A8000CE12550000A09E15550000A06E177C102
:1022B80078F1060E256E040E236E775142180DE054
:1022C8007751000A0AE077C178F177C142F0010E30
:1022D800246E640E256E010E236E7751000A05E107
:1022E800786B426A010E246E236A35D07751421802
:1022F80007E12550000A04E177C178F1060E256E42
:10230800775142180DE07751000A0AE077C178F159
:1023180077C142F0010E246E640E256E010E236E05
:102328007751000A05E1786B426A010E246E236A30
:1023380012D02350000AD8B42ED72350010AD8B49B
:102348003BD72350020AD8B463D72350030A98E036
:0C2358002350040ACBE078C100F0120012
:10236400600ED36E9B8C0F015D6B5C6B806A816A1F
:10237400826A836A846ABF0E926EC00E936E810E67
:10238400946EB00E956E0E0E966E810ED56E630E23
:10239400D76EBF0ED66EF28EF28A16EC08F00C0ED3
:1023A4000201526F66EC00F0150E0B6E4B0E0C6EB4
:1023B400BE0E0D6E0D2EFED70C2EFCD70B2EFAD7AB
:1023C4000000808CCF0EAF6EAC8470EC0AF0B9863E
:1023D400030E7C6E400E7B6EBA8453EC07F09E9A1B
:1023E4009D8A9F8AF28C720E7C6F040E7D6F000EA4
:1023F4007E6F000E7F6F500E806F040E816F410E52
:10240400826F020E836F680E846F040E856F000E58
:10241400866F000E876F5E0E886F040E896F000E44
:102424008A6F000E8B6F7FEC07F0560E7C6F000EE8
:102434007D6FA0EC07F0020E2C6FB3EC05F022C008
:0824440041F2AEEC01F01200C0
:10244C0010D074DC20D02EDC1ED05AEC0DF01BD03A
:10245C00C9EC0CF018D09CEC0AF015D00FEC0AF07B
:10246C0012D03B50000AEDE03B50010AECE03B502F
:10247C00020AEBE03B50030AEBE03B50040AEBE0B2
:08248C003B50050AEBE01200D1
:102494000101796B796B1E0E795DD8B08CD077C150
:1024A4007AF178C17BF1070E006E000E016E79C1DE
:1024B40004F0000E056E23EC01F07A5100267B51E6
:1024C4000122050E0024E96E000E0120EA6EEE5092
:1024D400000A6FE177C17AF178C17BF1070E006ED3
:1024E400000E016E79C104F0000E056E23EC01F0BC
:1024F4007A5100267B510122010E0024E96E000E60
:102504000120EA6EEECF05F0EECF06F0EECF07F035
:10251400EECF08F0D20E7725D96E000E7821DA6E50
:10252400DECF01F0DECF02F0DECF03F0DECF04F029
:102534000850041808E10750031805E10650021872
:1025440002E10550011835E177C17AF178C17BF1D8
:10255400070E006E000E016E79C104F0000E056EC8
:1025640023EC01F07A5100267B510122060E00244F
:10257400E96E000E0120EA6EEE50000A1AE177C1FE
:102584007AF178C17BF1070E006E000E016E79C1FD
:1025940004F0000E056E23EC01F07A5100267B5105
:1025A4000122060E0024E16E000E0120E26E010EEF
:0825B400E66E792B70D71200CE
:1025BC003E5268E03EC04DF1285232E0020E01015D
:1025CC007C6F010E7D6F3E0E7E6F3FEC0AF0020EAB
:1025DC007C6F020E7D6F3E0E7E6F3FEC0AF0020E9A
:1025EC007C6F030E7D6F3E0E7E6F3FEC0AF0020E89
:1025FC007C6F100E7D6F3C0E7E6F3FEC0AF0020E6E
:10260C007C6F0F0E7D6F3C0E7E6F3FEC0AF0020E5E
:10261C007C6F0E0E7D6F3C0E7E6F3FEC0AF031D05E
:10262C000101020E7C6F010E7D6F200E7E6F3FEC60
:10263C000AF0020E7C6F020E7D6F200E7E6F3FEC57
:10264C000AF0020E7C6F030E7D6F200E7E6F3FEC46
:10265C000AF0020E7C6F100E7D6F200E7E6F3FEC29
:10266C000AF0020E7C6F0F0E7D6F200E7E6F3FEC1A
:10267C000AF0020E7C6F0E0E7D6F200E7E6F3FEC0B
:10268C000AF035D001014D5330E0020E7C6F010E83
:10269C007D6F200E7E6F3FEC0AF0020E7C6F020EF7
:1026AC007D6F200E7E6F3FEC0AF0020E7C6F030EE6
:1026BC007D6F200E7E6F3FEC0AF0020E7C6F100EC9
:1026CC007D6F200E7E6F3FEC0AF0020E7C6F0F0EBA
:1026DC007D6F200E7E6F3FEC0AF0020E7C6F0E0EAB
:1026EC007D6F200E7E6F3FEC0AF028C04DF112007A
:1026FC000101315365E0316B5CD033C037F034C02D
:10270C0038F035C039F036C03AF0010E2B6E560E4B
:10271C00AF6F000EB06F010EB16F55EC02F0560E9C
:10272C00AF6F000EB06F3C0EB16F000EB26FB36F97
:10273C00B46F010EB56FD2EC02F0C80E2D6F0B0EFC
:10274C000C6E620E0D6E0D2EFED70C2EFCD70000FB
:10275C002D0E7C6F010E7D6F010E7E6F7FEC0BF0EA
:10276C0084802ED0DC0E01012D6F2C51020A04E066
:10277C002C51040A01E002D0C80E2D6F2C51010A15
:10278C0004E02C51030A01E002D0D20E2D6F0B0E87
:10279C000C6E620E0D6E0D2EFED70C2EFCD70000AB
:1027AC002D0E7C6F010E7D6F010E7E6F7FEC0BF09A
:1027BC0007D001012D51010AA0E02D51020AD2E0EF
:0227CC001200F9
:1027CE00D20E01017725E96E000E7821EA6EEECF6A
:1027DE0001F0EECF02F0EECF03F0EECF04F0045096
:1027EE00FF0A08E10350FF0A05E10250FF0A02E169
:1027FE000150FF0A23E0D20E7725046E000E7821D9
:10280E00056E04C0E9FF05C0EAFF010EEE24006E5E
:10281E00000EEE20016E000EEE20026E000EEE2077
:10282E00036E04C0E1FF05C0E2FF00C0E6FF01C079
:10283E00E6FF02C0E6FF03C0E6FF0AD0D20E772500
:10284E00E16E000E7821E26EE66AE66AE66AE66AF4
:02285E00120066
:102860007AEC15F07FDD010E0201416F010E426F1F
:102870006C0EF66E2A0EF76E000EF86E550EE16EB7
:10288000010EE26E110E006E010E016E11EC01F0F0
:10289000550E436F010E446F6CEC01F0020E020105
:1028A000416F010E426F7D0EF66E2A0EF76E000E1E
:1028B000F86E660EE16E010EE26E110E006E010EF4
:1028C000016E11EC01F0660E436F010E446F6CEC6B
:1028D00001F029520AE061EC0FF03F50000803E2DA
:1028E0003F06828A01D0829A296A2A5225E0000E88
:1028F000006E2750005C02E12650000805E2010E40
:10290000265E000E275A01D0809C2852010ED8A4C2
:10291000000E286E53DE010E3326000E34223522BF
:102920003622560E776F000E786F51DF560E776F96
:10293000000E786FAFDD2A6A1FDC00C040F0005047
:10294000000A06E0680E266E010E276E030E3F6E2B
:102950003D50000A02E16AEC0FF078DDCFDED4ECE6
:102960000EF0000E006E2750005C02E126500008B9
:08297000D8A0808CAED7FFD780
:102AF40010EE1DF0390E006E010E016E000EF66E22
:0E2B04002A0EF76E000EF86E11EC01F01200B2
:10297800202020202020202020202020202020204F
:01298800004E
:1029890031204F70656E6E696E672054696D6520E0
:01299900003D
:10299A003220436C6F73696E672054696D6520201D
:0129AA00002C
:1029AB003320496E76616C69642054696D65202013
:0129BB00001B
:1029BC0034204175746F636C6F73652054696D6559
:0129CC00000A
:1029CD0035204E6574204164647265737320202038
:0129DD0000F9
:1029DE00362053617665204368616E6765732020EB
:0129EE0000E8
:1029EF0037204469736361726420262045786974C7
:0129FF0000D7
:012A000001D4
:012A01000ACA
:012A02000AC9
:012A030014BE
:012A040000D1
:012A050000D0
:012A060000CF
:012A070000CE
:012A080000CD
:022A0900680162
:012A0B0000CA
:012A0C0000C9
:012A0D0000C8
:012A0E0000C7
:042A0F0000000000C3
:022A130043007E
:012A150000C0
:042A160000000000BC
:042A1A0000000000B8
:012A1E0000B7
:012A1F0000B6
:012A200000B5
:012A210000B4
:012A220005AE
:012A230000B2
:012A240000B1
:012A250000B0
:102A260020202020202020202020202020202020A0
:012A3600009F
:012A3700009E
:012A3800009D
:102A390020202020496E76616C69642020202020A6
:012A4900008C
:102A4A00202020204F70656E6E696E67202020203E
:012A5A00007B
:102A5B00202020204F70656E6E696E67202020202D
:012A6B00006A
:102A6C0020202020205374617274212020202020EB
:012A7C000059
:102A7D002020202020202020202020202020202049
:012A8D000048
:102A8E0020202020436C6F73696E67202020202049
:012A9E000037
:102A9F00202020204F70656E6E696E6720202020E9
:012AAF000026
:102AB0002020202020436C6F73656420202020207C
:012AC0000015
:102AC100202020204F70656E6E696E6720202020C7
:012AD1000004
:102AD20020202020496E76616C696420202020200D
:012AE20000F3
:102AE30020202020204F70656E6564202020202048
:012AF30000E2
:020000040030CA
:0E00000015187F7CFF8991FF0FC00FE00F40A5
:0200000400F00A
:10000000141402280A000000000000000000000094
:10001000FFFFFFFFFFFFFFFFFFFFFFFFFFFFFFFFF0
:10002000FFFFFFFFFFFFFFFFFFFFFFFFFFFFFFFFE0
:10003000FFFFFFFFFFFFFFFFFFFFFFFFFFFFFFFFD0
:10004000FFFFFFFFFFFFFFFFFFFFFFFFFFFFFFFFC0
:00000001FF
