:040000008AEF13F080
:1000080000C018F001C017F002C016F003C015F0C8
:10001800E1CF1BF0E2CF1CF0E9CF19F0EACF1AF0DC
:10002800F2A411D0F2AA0FD0010E0101C36FC12BA7
:10003800190EC15D03E3010EC26FC16B630ED76E6B
:10004800BF0ED66EF2949DAA0AD09EAA08D0B90E09
:100058000301186F020E196F79EC0EF09E9A18C002
:1000680000F017C001F016C002F015C003F019C067
:10007800E9FF1AC0EAFF1BC0E1FF1CC0E2FF110044
:0C008800020E0D6E0D2EFED700001200BF
:0A009400850E0D6E0D2EFED7120032
:10009E003A0E0C6E230E0D6E0D2EFED70C2EFCD7C7
:0200AE0012003E
:1000B000086A080E0C6E003408360450085ED8B08A
:0E00C00002D00826D89000360C2EF5D712007C
:1000CE00030117BF02D0819601D0818617BD02D0E1
:1000DE00819401D0818417BB02D0819201D081829C
:1000EE0017B902D0819001D081800201E0B102D017
:1000FE00818A01D0819A8188C0DF8198030117B768
:10010E0002D0819601D0818617B502D0819401D09C
:10011E00818417B302D0819201D0818217B102D0AF
:10012E00819001D081800201E0B102D0818A01D09C
:10013E00819A8188A2DF8198E0A102D0A9DF01D047
:04014E00A2DF12001A
:1001520013C304F014C305F011C302F012C303F079
:1001620015C300F016C301F0010E0301155F000E66
:10017200165B005001100FE004C0E9FF05C0EAFF62
:1001820002C0E1FF03C0E2FFEECFE6FF024A032A0C
:10019200044A052AE5D711C300F012C301F0120088
:0E01A2000201E09111C317F391DFE08112001A
:1001B0000301146B030E145D0AE214511225E16E63
:1001C000000E1321E26E200EE66E142BF3D71451AD
:1001D0001225E16E000E1321E26EE66A1407145137
:1001E0001225156F000E1321166F0A0E046E11C32F
:1001F00000F05EDF08C000F0300E002615C3E1FFFE
:1002000016C3E2FF00C0E6FF0A0E046E11C300F041
:100210004FDF00C011F30050000A01E102D01407C3
:04022000DED7120013
:10022400086A096A100E0C6E013408360936045047
:10023400085E0550D8A0053C095ED8B007D004502C
:1002440008260550D8B0053C0926D890003601365A
:060254000C2EEAD7120097
:0E025A00ACB202D00000FCD70CC3ADFF120006
:1002680010D0800E03010C6F1AD0C00E0C6F17D07F
:10027800940E0C6F14D0D40E0C6F11D0800E0C6F2E
:100288000ED003010C51010AECE00C51020AEDE01A
:100298000C51030AEDE00C51040AEDE0EFD70D050F
:1002A800006E0C51002600C00CF300C017F30BDFE2
:1002B800E0910301106B10510E25E96E000E0F211D
:1002C800EA6EEE520CE010510E25E96E000E0F2179
:1002D800EA6EEECF11F361DF0301102BECD70201B8
:0402E800E08112009F
:1002EC0094928292010E0201DF6FC46B0CC3C8F2B0
:1002FC0003010C51960A04E00C51A90A01E006D046
:0E030C00010E0C190201C86FFF0EC46F120023
:10031A000CC311F303011133119F0DC312F30EC362
:10032A0013F341DF010E0C15016E0150010A10E1B1
:10033A00030E0D25116F000E0E21126F790E136F29
:10034A00010E146F040E156F000E166FFDDE0FD02E
:10035A00030E0D25116F000E0E21126F7D0E136F05
:10036A00010E146F040E156F000E166FEDDE1200EB
:10037A007FA202D00000FCD77F9C0DC375FF0CC37F
:10038A0074FF0EC373FF7F9E7F84F2CF00F0F29E4C
:10039A00550E7E6EAA0E7E6E7F8200BE02D0F29E3F
:0803AA0001D0F28E7F941200D5
:1003B2000B6A0A6A096A00500402F4CF09F0F3CF0B
:1003C20008F001500502F4CF0BF0F3CF0AF0005011
:1003D2000502F3500926F4500A22E86A0B22015062
:1003E2000402F3500926F4500A22E86A0B2208C0DC
:1003F20000F009C001F00AC002F00BC003F01200C5
:0C040200BAB201D0FDD70CC379FF120084
:10040E000CC3C9FFC7B002D00000FCD7C9CF00F0A3
:02041E001200CA
:100420007F9C0DC375FF0CC374FF7F9E7F8073CFCD
:0404300000F01200C6
:10043400AECF01F0ABA202D0AB98AB8801C000F004
:020444001200A4
:0A044600000EACB2010E006E1200B1
:0A045000000E9EBA010E006E1200AD
:10045A007ACF01F0A6A202D0A698A68801C000F021
:02046A0012007E
:0A046C00000EBAB2010E006E12007D
:0A047600000EA4BA010E006E120081
:1004800003010C6B0D6BDCC10EF377DF010E030172
:100490000C6F000E0D6FDDC10EF36FDF020E030156
:1004A0000C6F000E0D6FDEC10EF367DF030E03014C
:1004B0000C6F000E0D6FD9C10EF35FDF040E030148
:1004C0000C6F000E0D6FDAC10EF357DF050E03013E
:1004D0000C6F000E0D6FDBC10EF34FDFDAC10CF3B2
:0404E00005DF120022
:1004E40003010C6B0D6B9ADF00C0DCF1010E0C6F85
:1004F400000E0D6F93DF00C0DDF1020E0C6F000ED5
:100504000D6F8CDF00C0DEF1030E0C6F000E0D6F5B
:1005140085DF00C0D9F1040E0C6F000E0D6F7EDF75
:1005240000C0DAF1050E0C6F000E0D6F77DF00C00E
:04053400DBF11200E5
:100538000301086B096B0A6B0B6BD20E0125E96E80
:10054800000E0221EA6E0351EE24086F0451EE20DA
:10055800096F0551EE200A6F0651EE200B6F02015C
:10056800FF6B1E0EFF5D6FE2070E006E000E016E40
:10057800FFC204F0000E056E18DF030101510026CA
:1005880002510122050E0024E96E000E0120EA6ED8
:10059800EE50010A55E1070E006E000E016EFFC213
:1005A80004F0000E056E01DF00500125E16E0150D8
:1005B8000221E26E07C3E6FF070E006E000E016E11
:1005C800FFC204F0000E056EF0DE01510026025154
:1005D8000122010E0024E16E000E0120E26E08C324
:1005E800E6FF09C3E6FF0AC3E6FF0BC3E6FF070EF3
:1005F800006E000E016EFFC204F0000E056ED5DE1F
:100608000151002602510122050E0024E16E000E60
:100618000120E26EE66A070E006E000E016EFFC250
:1006280004F0000E056EC1DE0151002602510122C0
:10063800060E0024E16E000E0120E26EE66A03D089
:080648000201FF2B8ED7120006
:10065000F250026EF29E0500FF6A0150FE6E0050DD
:08066000FD6E02BEF28E1200D5
:100668000201FF6B0301006B0201FF6B1E0EFF5DB1
:100678005CE2070E006E000E016EFFC204F0000E71
:10068800056E93DE03010151002602510122050E79
:100698000024E96E000E0120EA6EEE50000A42E1E5
:1006A800070E006E000E016EFFC204F0000E056E0C
:1006B8007CDE0151002602510122060E0024E96E5B
:1006C800000E0120EA6EEE50010A2CE1070E006EC2
:1006D800000E016EFFC204F0000E056E66DE0050CB
:1006E8000125E96E01500221EA6EEECF01F00150BA
:1006F800031918E1070E006E000E016EFFC204F028
:10070800000E056E52DE0151002602510122050E2F
:100718000024E16E000E0120E26E010EE66E010E6D
:10072800006F03D00201FF2BA1D700C300F0120015
:100738000201FF6B050EFF5D0CE2FF51030103256B
:10074800E16E000E0421E26E200EE66E0201FF2B20
:10075800F1D7FF5103010325E16E000E0421E26E7B
:10076800E66A0201FF07FF5103010325056F000E2A
:100778000421066F0A0E046E000E056E01C300F018
:1007880002C301F04BDD08C000F009C001F0300ED3
:10079800002605C3E1FF06C3E2FF00C0E6FF0A0E1C
:1007A800046E000E056E01C300F002C301F036DDD1
:1007B80000C001F301C002F3000E011802E1000EAF
:0E07C800001801E103D00201FF07CDD7120097
:1007D6000B6A0A6A096A086A0E6A03340836045004
:1007E600085E0550D8A0053C095E0650D8A0063C18
:1007F6000A5E0750D8A0073C0B5EE86AD8A0010E37
:100806000E5E0336070E0C6E0334083609360A36BA
:100816000B360E36045003A012D0085E0550D8A041
:10082600053C095E0650D8A0063C0A5E0750D8A0D3
:10083600073C0B5EE86AD8A0010E0E5E11D00826B2
:100846000550D8B0053C09260650D8B0063C0A2605
:100856000750D8B0073C0B26E86AD8B0010E0E2622
:1008660003360C2ED1D70234083609360A360B3633
:100876000E36045003A012D0085E0550D8A0053CE1
:10088600095E0650D8A0063C0A5E0750D8A0073C71
:100896000B5EE86AD8A0010E0E5E11D00826055040
:1008A600D8B0053C09260650D8B0063C0A260750A3
:1008B600D8B0073C0B26E86AD8B0010E0E260236E1
:1008C600070E0C6E0234083609360A360B360E361B
:1008D600045002A012D0085E0550D8A0053C095E5F
:1008E6000650D8A0063C0A5E0750D8A0073C0B5E0F
:1008F600E86AD8A0010E0E5E11D008260550D8B0C1
:10090600053C09260650D8B0063C0A260750D8B042
:10091600073C0B26E86AD8B0010E0E2602360C2ECE
:10092600D1D70134083609360A360B360E3604504E
:1009360002A012D0085E0550D8A0053C095E0650FC
:10094600D8A0063C0A5E0750D8A0073C0B5EE86AB2
:10095600D8A0010E0E5E11D008260550D8B0053C71
:1009660009260650D8B0063C0A260750D8B0073CE0
:100976000B26E86AD8B0010E0E260136070E0C6E5D
:100986000134083609360A360B360E36045001A0F5
:1009960012D0085E0550D8A0053C095E0650D8A0C6
:1009A600063C0A5E0750D8A0073C0B5EE86AD8A052
:1009B600010E0E5E11D008260550D8B0053C09265A
:1009C6000650D8B0063C0A260750D8B0073C0B267E
:1009D600E86AD8B0010E0E2601360C2ED1D70034A7
:1009E600083609360A360B360E36045001A012D0E8
:1009F600085E0550D8A0053C095E0650D8A0063C06
:100A06000A5E0750D8A0073C0B5EE86AD8A0010E24
:100A16000E5E11D008260550D8B0053C09260650B2
:100A2600D8B0063C0A260750D8B0073C0B26E86A21
:100A3600D8B0010E0E260036070E0C6E00340836AE
:100A460009360A360B360E36045000A012D0085E60
:100A56000550D8A0053C095E0650D8A0063C0A5EA3
:100A66000750D8A0073C0B5EE86AD8A0010E0E5EC0
:100A760011D008260550D8B0053C09260650D8B036
:100A8600063C0A260750D8B0073C0B26E86AD8B0C1
:100A9600010E0E2600360C2ED1D700B00ED0045013
:100AA60008260550D8B0053C09260650D8B0063CA5
:0C0AB6000A260750D8B0073C0B2612009F
:100AC2000201FF6B1E0EFF5D43E2070E006E000E79
:100AD200016EFFC204F0000E056E6ADC03010151D3
:100AE200002602510122050E0024E96E000E0120AB
:100AF200EA6EEE50000A29E1070E006E000E016E4A
:100B0200FFC204F0000E056E53DC00500125E96EB1
:100B120001500221EA6EEECF01F00150031915E1F6
:100B2200070E006E000E016EFFC204F0000E056E8D
:100B32003FDC0151002602510122050E0024E16E24
:100B4200000E0120E26E010EE66E0201FF2BBAD703
:020B520012008F
:100B5400FF0E0301116F020E126FDE0E136F000EF3
:100B6400146F0A0E156F000E166FA9EC00F0010E3B
:100B7400176F67EC00F0F0D0010E03010C6F010E4B
:100B84000D6F500E0E6F000E0F6F34EC01F0DCC1D0
:100B94000CF3FF0E03010D6F020E0E6F8DEC01F0CE
:100BA400020E0C6F050E0D6FFF0E0E6F020E0F6F0F
:100BB40034EC01F0EFD0010E03010C6F010E0D6F48
:100BC400610E0E6F000E0F6F34EC01F0DDC10CF3FB
:100BD400FF0E03010D6F020E0E6F8DEC01F0020E7D
:100BE4000C6F050E0D6FFF0E0E6F020E0F6F34ECBF
:100BF40001F0D0D0010E03010C6F010E0D6F3F0EFA
:100C04000E6F000E0F6F34EC01F0DEC10CF3FF0E1B
:100C140003010D6F020E0E6F8DEC01F0020E0C6FCE
:100C2400050E0D6FFF0E0E6F020E0F6F34EC01F008
:100C3400B1D0010E03010C6F010E0D6F1D0E0E6F6E
:100C4400000E0F6F34EC01F0D9C10CF3FF0E030159
:100C54000D6F020E0E6F8DEC01F0020E0C6F050E7F
:100C64000D6FFF0E0E6F020E0F6F34EC01F092D079
:100C7400010E03010C6F010E0D6F2E0E0E6F000E90
:100C84000F6F34EC01F0DAC111F3FF0E0301126FA0
:100C9400020E136FD8EC00F0020E0C6F050E0D6FF0
:100CA400FF0E0E6F020E0F6F34EC01F073D0010EC5
:100CB40003010C6F010E0D6F720E0E6F000E0F6F9D
:100CC40034EC01F00101DB51000A0CE1020E0301D6
:100CD4000C6F010E0D6FA70E0E6F000E0F6F34EC2C
:100CE40001F00BD0020E03010C6F010E0D6FB80E54
:100CF4000E6F000E0F6F34EC01F04CD0010E0301A7
:100D04000C6F010E0D6F960E0E6F000E0F6F34EC0C
:100D140001F0020E03010C6F010E0D6F83C00EF380
:100D240084C00FF334EC01F035D0010E03010C6FD5
:100D3400010E0D6F850E0E6F000E0F6F34EC01F077
:100D4400020E03010C6F010E0D6F83C00EF384C0FD
:100D54000FF334EC01F01ED00001F151000AD8B4B5
:100D64000BD7F151010AD8B426D7F151020AD8B4ED
:100D740041D7F151030AD8B45CD7F151040AD8B46D
:100D840077D7F151050A93E0F151060AB7E0F15122
:060D9400070ACBE012008B
:100D9A00E4C2DBF2E5C2DCF2E6C2DDF2E7C2DEF271
:100DAA00E8C2D7F2E9C2D8F2EAC2D9F2EBC2DAF261
:100DBA00ECC2CAF2EDC2CBF2EEC2CCF2EFC2CDF275
:100DCA00F0C2D3F2F1C2D4F2F2C2D5F2F3C2D6F231
:020DDA00120005
:100DDC005A0E0201D76F020ED86F0C0ED96F030E8C
:100DEC00DA6F340EDB6F040EDC6F000EDD6F000E5D
:100DFC00DE6F500ECA6F040ECB6F000ECC6F000E60
:100E0C00CD6F460ED36F040ED46F000ED56F000E4F
:100E1C00D66FAC8A900EAB6E948E949C9EAA03D027
:080E2C00AECF00F0FBD712006D
:100E34009398939A93909392939493968198819A8A
:100E440081968194819281904FEC00F04FEC00F0F8
:100E54004FEC00F081828180818844EC00F081981D
:100E64004FEC00F0818844EC00F081984FEC00F0E6
:100E7400818844EC00F081984FEC00F081908188E7
:100E840044EC00F081984FEC00F0818844EC00F0D1
:100E9400819881928186818844EC00F081984FEC9E
:100EA40000F081968180818844EC00F081988190E3
:100EB400818844EC00F081984FEC00F0818844EC88
:100EC40000F081988180818844EC00F081984FEC97
:100ED40000F08190818844EC00F0819881868184BF
:100EE40081828180818844EC00F081984FEC00F08D
:060EF4000201E081120082
:100EFA000201E66B1E0EE65D56E2070E006E000E5C
:100F0A00016EE6C204F0000E056ED9EC01F0005045
:100F1A00E425E16E0150E521E26EE66A070E006EF5
:100F2A00000E016EE6C204F0000E056ED9EC01F067
:100F3A00E4510026E5510122010E0024E16E000E63
:100F4A000120E26EE66AE66AE66AE66A070E006E63
:100F5A00000E016EE6C204F0000E056ED9EC01F037
:100F6A00E4510026E5510122050E0024E16E000E2F
:100F7A000120E26E010EE66E070E006E000E016E93
:100F8A00E6C204F0000E056ED9EC01F0E451002629
:100F9A00E5510122060E0024E16E000E0120E26EE8
:100FAA00E66AE62BA7D7D20EE425E16E000EE5210C
:0C0FBA00E26EE66AE66AE66AE66A120089
:0A0FC600C6DD020E0001C96F120023
:100FD000ABC105F0ACC106F0ADC107F0AEC108F081
:100FE0000101A751055EA851065AA951075AAA51F5
:100FF000085A05C001F006C002F007C003F008C09F
:1010000004F00432033202320132049E01C0E4F2E1
:1010100002C0E5F203C0E6F204C0E7F204500201A8
:10102000D11908E10350D01905E10250CF1902E1AE
:101030000150CE19D8B4CDD0E4C2CEF2E5C2CFF281
:10104000E6C2D0F2E7C2D1F23C0E046E000E056E8D
:10105000066E076EE4C200F0E5C201F0E6C202F0DF
:10106000E7C203F0EBEC03F008C000F009C001F0A8
:101070000AC002F00BC003F000C0E9F23C0E046E9F
:10108000000E056E066E076EE4C200F0E5C201F0C8
:10109000E6C202F0E7C203F0EBEC03F000C0FBF2A3
:1010A00001C0FCF202C0FDF203C0FEF2FBC2E4F29A
:1010B000FCC2E5F2FDC2E6F2FEC2E7F23C0E046EAF
:1010C000000E056E066E076EFBC200F0FCC201F05A
:1010D000FDC202F0FEC203F0EBEC03F008C000F02A
:1010E00009C001F00AC002F00BC003F000C0E8F232
:1010F0003C0E046E000E056E066E076EFBC200F01D
:10110000FCC201F0FDC202F0FEC203F0EBEC03F002
:1011100000C001F301C002F3EC0E0301036F020EE5
:10112000046F9CEC03F0E8C211F3F20E0301126F9E
:10113000020E136FD8EC00F0E9C211F3F60E126F35
:10114000020E136FD8EC00F0EA0E116F020E126F50
:10115000620E136F010E146F030E156F000E166FE3
:10116000A9EC00F0F10E116F020E126F4E0E136F0C
:10117000010E146F020E156F000E166FA9EC00F031
:10118000F50E116F020E126F480E136F010E146FE1
:10119000020E156F000E166FA9EC00F0F90E116F1C
:1011A000020E126F4B0E136F010E146F020E156FAD
:1011B000000E166FA9EC00F00201FA6B010E03019C
:1011C0000C6F010E0D6FEA0E0E6F020E0F6F34ECF6
:0411D00001F0120018
:1011D40010D0800E0201E46F1AD0C00EE46F17D055
:1011E400940EE46F14D0D40EE46F11D0800EE46F2B
:1011F4000ED00201E451010AECE0E451020AEDE0F0
:10120400E451030AEDE0E451040AEDE0EFD7E5050B
:10121400006EE451002600C0E4F2E08100C017F340
:1012240067EC00F0E091E6C217F367EC00F0E081B0
:021234001200A6
:1012360080D0E20E0301016F010E026F010E036FF3
:10124600000E046F056F066F060E076F9CEC02F02A
:10125600E20E0301016F010E026F020E036F000E14
:10126600046F056F066F070E076F9CEC02F0E20E27
:101276000301016F010E026F030E036F000E046F70
:10128600056F066F040E076F9CEC02F0E20E030179
:10129600016F010E026F040E036F000E046F056FDF
:1012A600066F050E076F9CEC02F0010E0101AF6F91
:1012B60048D0E20E0301016F010E026F010E036FAB
:1012C600000E046F056F066F060E076F9CEC02F0AA
:1012D600E20E0301016F010E026F020E036F000E94
:1012E600046F056F066F070E076F9CEC02F0E20EA7
:1012F6000301016F010E026F030E036F000E046FF0
:10130600056F066F040E076F9CEC02F0E20E0301F8
:10131600016F010E026F040E036F000E046F056F5E
:10132600066F050E076F9CEC02F0010E0101AF6F10
:1013360008D00101DB51000AD8B47BD7DB51010A82
:04134600B8E01200F9
:10134A00E20E0301016F010E026F360E036F34ECD9
:10135A0003F0005217E0020E0201B86F0001DB51E0
:10136A00000A0EE1C951000A0BE1020E03010C6FDB
:10137A00010E0D6F960E0E6F010E0F6F34EC01F019
:06138A000001DC6B120003
:10139000C8C2EAF20201C45303E0010EC819EA6FA1
:1013A0008282E605E96FD9C2E1FFDAC2E2FF960E5A
:1013B000E66ED7C200F0D8C201F028EC03F00201BB
:1013C000EA51960A04E0EA51A90A01E002D0EA7162
:1013D000E68DD9C2E1FFDAC2E2FFEAC2E6FFD7C278
:1013E00000F0D8C201F028EC03F00201E76BE751EE
:1013F000E95D32E3E751E425E96E000EE521EA6E8E
:10140000EECF01F001C0EBF20150960A04E0EB517F
:10141000A90A01E01FD0E751E425016E000EE52185
:10142000026E01C0E9FF02C0EAFF010EEE18006E75
:1014300001C0E1FF02C0E2FF00C0E6FFE7C201F029
:10144000040E006E015004E000360090FF0FFBD741
:101450000050E613E72BCBD7D9C2E1FFDAC2E2FF97
:10146000E6C2E6FFD7C200F0D8C201F028EC03F0D4
:101470000201EA51E619E86FE76BE751E95D1FE306
:10148000E751E425006E000EE521016E00C0D9FF92
:1014900001C0DAFFDE50E81BD9C2E1FFDAC2E2FF89
:1014A00000C0E9FF01C0EAFFEECFE6FFD7C200F0BF
:1014B000D8C201F028EC03F00201E72BDED7E81DCB
:1014C000016E01C0E8F20150960A04E0E851A90A51
:1014D00001E001D0E82BD9C2E1FFDAC2E2FFE8C2A5
:1014E000E6FFD7C200F0D8C201F028EC03F0D9C261
:1014F000E1FFDAC2E2FFA90EE66ED7C200F0D8C261
:1015000001F028EC03F0D3C200F0D4C201F028ECC3
:0E15100003F00050000A01E1F6D782921200AB
:10151E000101AF5329E0E20E0301016F010E026FCC
:10152E00DCC103F3000E046F056F066F320E076FFA
:10153E009CEC02F0030E0201B86F0001DB51000AB1
:10154E000EE1C951000A0BE1020E03010C6F010EF0
:10155E000D6FCA0E0E6F000E0F6F34EC01F0010E00
:0A156E000001DC6F0101AF6B1200F9
:10157800E20E0301016F010E026F340E036F34ECAB
:1015880003F0005236E0040E0201B86F0001DB518F
:10159800000A0EE1C951000A0BE1020E03010C6FAB
:1015A800010E0D6F370E0E6F010E0F6F34EC01F048
:1015B800040E0001DC6FE20E0301016F010E026FE1
:1015C800DEC100F0000E016E0036013600900050BA
:1015D8000101DD5D0301036F01C004F3000E045730
:1015E800000E04BFFF0E056F066F350E076F9CECEB
:1015F80002F082A038D0E20E0301016F010E026FE3
:10160800350E036F61EC05F0E20E0301016F010E68
:10161800026F340E036F61EC05F0030EB86F000122
:10162800DB51000A0EE1C951000A0BE1020E030169
:101638000C6F010E0D6F510E0E6F010E0F6F34EC13
:1016480001F0010E0001DC6FE20E0301016F010ED3
:10165800026FDEC103F3000E046F056F066F320ED2
:08166800076F9CEC02F0120078
:1016700080D0E20E0301016F010E026F010E036FB5
:10168000000E046F056F066F060E076F9CEC02F0EC
:10169000E20E0301016F010E026F020E036F000ED6
:1016A000046F056F066F070E076F9CEC02F0E20EE9
:1016B0000301016F010E026F030E036F000E046F32
:1016C000056F066F040E076F9CEC02F0E20E03013B
:1016D000016F010E026F040E036F000E046F056FA1
:1016E000066F050E076F9CEC02F0010E0101AF6F53
:1016F00048D0E20E0301016F010E026F010E036F6D
:10170000000E046F056F066F060E076F9CEC02F06B
:10171000E20E0301016F010E026F020E036F000E55
:10172000046F056F066F070E076F9CEC02F0E20E68
:101730000301016F010E026F030E036F000E046FB1
:10174000056F066F040E076F9CEC02F0E20E0301BA
:10175000016F010E026F040E036F000E046F056F20
:10176000066F050E076F9CEC02F0010E0101AF6FD2
:1017700008D00101DB51000AD8B47BD7DB51010A44
:04178000B8E01200BB
:10178400E20E0301016F010E026F330E036F34EC9E
:1017940003F000523AE00201B86B0001DB51000A89
:1017A4000EE1C951000A0BE1020E03010C6F010E98
:1017B4000D6F810E0E6F010E0F6F34EC01F0030EEE
:1017C4000001DC6FE20E0301016F010E026FDEC146
:1017D40003F3000E046F033704370391000E04BFB4
:1017E400FF0E056F066F340E076F9CEC02F00101CB
:1017F400DE51AB25926F000EAC21936F000EAD212C
:0C180400946F000EAE21956FAF6B1200C8
:10181000010E0001F06FAAD0EFA107D0FF0E010169
:10182000DC5D03E2DC2BAAEC05F00001EFA507D09C
:101830000101DC51000803E2DC07AAEC05F000011D
:10184000EFA302D0010EC96FACD0EFA107D0FF0EFD
:101850000101DD5D03E2DD2BAAEC05F00001EFA53F
:1018600007D00101DD51000803E2DD07AAEC05F015
:101870000001EFA302D0010EC96F93D0EFA107D0F2
:10188000FF0E0101DE5D03E2DE2BAAEC05F0000194
:10189000EFA507D00101DE51000803E2DE07AAEC44
:1018A00005F00001EFA302D0010EC96F7AD0EFA1BD
:1018B00007D0FF0E0101D95D03E2D92BAAEC05F098
:1018C0000001EFA507D00101D951000803E2D907B3
:1018D000AAEC05F00001EFA302D0010EC96F61D0A0
:1018E000EFA107D0FF0E0101DA5D03E2DA2BAAECCB
:1018F00005F00001EFA507D00101DA51000803E26D
:10190000DA07AAEC05F00001EFA302D0010EC96FBF
:1019100048D0EFA107D0010E0101DB5D03E2DB2B14
:10192000AAEC05F00001EFA507D00101DB5100088A
:1019300003E2DB07AAEC05F00001EFA302D0010EE1
:10194000C96F2FD0EFA301D0C96BF06B40EC02F050
:101950000001C96B140EDD6F24D0EFA301D0C96B59
:10196000F06B72EC02F00001C96B1BD0F151000A60
:10197000D8B452D7F151010AD8B467D7F151020A4D
:10198000D8B47CD7F151030A92E0F151040AA8E0DF
:10199000F151050ABEE0F151060AD4E0F151070AFF
:0419A000DCE0120075
:1019A400E20E0301016F010E026F350E036F34EC7A
:1019B40003F000522CE00201B86B0001DB51000A75
:1019C4000EE1C951000A0BE1020E03010C6F010E76
:1019D4000D6F260E0E6F010E0F6F34EC01F0050E25
:1019E4000001DC6FE20E0301016F010E026FDEC124
:1019F40003F3000E046F033704370391000E04BF92
:101A0400FF0E056F066F360E076F9CEC02F082A086
:101A14004AD0E20E0301016F010E026F350E036F0F
:101A240061EC05F0E20E0301016F010E026F360E48
:101A3400036F61EC05F0030EB86F0001DB51000A7F
:101A44000EE1C951000A0BE1020E03010C6F010EF5
:101A54000D6FF20E0E6F000E0F6F34EC01F0010EDD
:101A64000001DC6FE20E0301016F010E026FABC1D6
:101A740003F3ACC104F3ADC105F3AEC106F3010138
:101A840092510301035F010193510301045B0101BE
:101A940094510301055B010195510301065B320E6C
:101AA400076F9CEC02F00101AF534CE0E20E03011E
:101AB400016F010E026F350E036F61EC05F0E20E4B
:101AC4000301016F010E026F360E036F61EC05F026
:101AD400030EB86F0001DB51000A0EE1C951000A80
:101AE4000BE1020E03010C6F010E0D6F030E0E6F5E
:101AF400010E0F6F34EC01F0010E0001DC6FE20EF9
:101B04000301016F010E026FABC103F3ACC104F317
:101B1400ADC105F3AEC106F3010192510301035FA8
:101B2400010193510301045B010194510301055B1D
:101B3400010195510301065B320E076F9CEC02F024
:061B44000101AF6B12006D
:101B4A00E20E0301016F010E026F320E036F34ECD5
:101B5A0003F000522EE0010E0201B86F0001DB51C2
:101B6A00000A0EE1C951000A0BE1020E03010C6FD3
:101B7A00010E0D6F150E0E6F010E0F6F34EC01F092
:101B8A00020E0001DC6FE20E0301016F010E026F0B
:101B9A000101DE51D95D0301036F046B000E045B82
:101BAA00000E04BFFF0E056F066F330E076F9CEC25
:041BBA0002F0120023
:101BBE000001F06BEFA509D0F151000802E2F10728
:101BCE0002D0060EF16F010EC96FEFA108D0060EFE
:101BDE00F15D02E2F12B01D0F16B010EC96FEFA3A3
:081BEE0002D0030EC96F1200C2
:101BF6000900F5CFE6FF0006FBE10106F9E1120058
:101C06000101D5510008D8A0D507DF510008D8A09A
:041C1600DF071200D2
:101C1A00600ED36E9B8C0F015D6B5C6B806A816A70
:101C2A00826A836A846AD70E926EC00E936EBD0E64
:101C3A00946E700E956E0F0E966E810ED56E630EB3
:101C4A00D76EBF0ED66EF28EF28A1AEC07F00C0E21
:101C5A000301176F67EC00F0150E0B6E4B0E0C6E3E
:101C6A00BE0E0D6E0D2EFED70C2EFCD70B2EFAD7FC
:101C7A000000808ACF0EAF6EAC84EEEC06F09E9A1E
:101C8A009D8A9F8AF28C340EE46F040EE56F000E73
:101C9A00E66F000EE76F5A0EE86F020EE96F0C0E40
:101CAA00EA6F030EEB6F500EEC6F040EED6F000E31
:101CBA00EE6F000EEF6F460EF06F040EF16F000E1E
:101CCA00F26F000EF36FCDEC06F0E20EE46F010E38
:101CDA00E56F7DEC07F0020EB86F72EC02F0DAC124
:081CEA000CF376EC01F012008E
:101CF200CAC200F0CBC201F028EC03F0005201E1AD
:101D02002BD1DBC200F0DCC201F028EC03F000C0F2
:101D1200C6F206D10201C651960A03E1020EDF6F36
:101D2200C96B1AD1C651C81904E0C651320A01E082
:101D320005D0030EDF6FC651C91B02D0010EDF6F43
:101D42000BD1C45309E0400EC615016E0150000AC2
:101D520003E1010EDF6F00D1C6AF13D0040EDF6FB7
:101D6200C6C2C7F2C651C91B030EC615016E01C019
:101D7200C5F20150000A02E1050EDF6F010EC36FCA
:101D82000CD0050E03011825E16E000E1921E26E3A
:101D9200FF0EE66E010E0201DF6FDED0C651A90A08
:101DA2000DE1050E03011825E16E000E1921E26E08
:101DB200FF0EE66E010E0201DF6FCED0C351C55D8C
:101DC200006E016A000E015A0050011013E0C305B3
:101DD200006E016A000E015A005003011825E16EDF
:101DE20001501921E26EC6C2E6FF0201C651C91BAB
:101DF200C32B13D0C305006E016A000E015A0050B6
:101E020003011825E16E01501921E26EC6C2E6FFF8
:101E1200050E0201DF6FC651C91B9ED0C91D016E9E
:101E220001C0C9F20150960A04E0C951A90A01E0B1
:101E320001D0C92BC951C61903E1060EDF6F0CD0C0
:101E4200050E03011825E16E000E1921E26EFF0E48
:101E5200E66E010E0201DF6F7FD0C651A90A43E18F
:101E6200010EDF6F040E03011825E16E000E192129
:101E7200E26EFF0EE66E030E1825E16E000E1921CA
:101E8200E26EC5C2E6FF010E0201C36FC351C55D1A
:101E920029E3C3C201F0020E006E015004E00036D5
:101EA2000090FF0FFBD7C751001619E0C305006E63
:101EB200016A000E015A005003011825026E0150FA
:101EC2001921036E02C0E9FF03C0EAFF010EEE18FA
:101ED200006E02C0E1FF03C0E2FF00C0E6FF0201A4
:101EE200C32BD4D70CD0050E03011825E16E000ECA
:101EF2001921E26EFF0EE66E010E0201DF6F2CD099
:101F0200050E03011825E16E000E1921E26EFF0E87
:101F1200E66E010E0201DF6F1FD0010EDF6F1CD0D3
:101F22000201DF51010AD8B4F5D6DF51020AD8B452
:101F3200F9D6DF51030AD8B404D7DF51040AD8B462
:101F42002DD7DF51050AD8B469D7DF51060A85E0DB
:0A1F5200DF51070AD5E0E1D71200C5
:101F5C00E20E0301016F010E026F040E036F34ECED
:101F6C0003F00052D8A48380E20E0301016F010E2E
:101F7C00026F050E036F34EC03F00052D8A483906B
:101F8C00E20E0301016F010E026F060E036F34ECBB
:101F9C0003F00052D8A48382E20E0301016F010EFC
:101FAC00026F070E036F34EC03F00052D8A4839237
:101FBC00E20E0301016F010E026F080E036F34EC89
:101FCC0003F00052D8A48386E20E0301016F010EC8
:101FDC00026F090E036F34EC03F00052D8A4839601
:101FEC00E20E0301016F010E026F010E036F34EC60
:101FFC0003F0005202E00101666BE20E0301016F77
:10200C00010E026F020E036F34EC03F0005202E07B
:10201C000101676B0201B851020A18E10101665314
:10202C0015E0675313E138EC0BF0010E676FE20E0D
:10203C000301016F010E026F060E036F000E046F99
:10204C00056F066F020E076F9CEC02F00201B8518F
:10205C00040A18E10101665315E0675313E11BEC08
:10206C0009F0010E676FE20E0301016F010E026FA2
:10207C00060E036F000E046F056F066F020E076FDE
:06208C009CEC02F01200C2
:1020920011D00001EFA303D0010EC96FF16BE8EC80
:1020A20007F015D0E3EC07F012D088DD10D008EC71
:1020B2000CF00DD00001C951000AEBE0C951010A30
:1020C200F1E0C951020AF1E0C951030AF0E012003D
:1020D2000001F05369E0F0C0D2F20101145332E082
:1020E200020E0201E46F010EE56F3E0EE66FEAECAE
:1020F20008F0020EE46F020EE56F3E0EE66FEAECA8
:1021020008F0020EE46F030EE56F3E0EE66FEAEC96
:1021120008F0020EE46F100EE56F3C0EE66FEAEC7B
:1021220008F0020EE46F0F0EE56F3C0EE66FEAEC6C
:1021320008F0020EE46F0E0EE56F3C0EE66FEAEC5D
:1021420008F031D00201020EE46F010EE56F200E9D
:10215200E66FEAEC08F0020EE46F020EE56F200E65
:10216200E66FEAEC08F0020EE46F030EE56F200E54
:10217200E66FEAEC08F0020EE46F100EE56F200E37
:10218200E66FEAEC08F0020EE46F0F0EE56F200E28
:10219200E66FEAEC08F0020EE46F0E0EE56F200E19
:1021A200E66FEAEC08F035D00201D25330E0020EBD
:1021B200E46F010EE56F200EE66FEAEC08F0020E06
:1021C200E46F020EE56F200EE66FEAEC08F0020EF5
:1021D200E46F030EE56F200EE66FEAEC08F0020EE4
:1021E200E46F100EE56F200EE66FEAEC08F0020EC7
:1021F200E46F0F0EE56F200EE66FEAEC08F0020EB8
:10220200E46F0E0EE56F200EE66FEAEC08F014C1E3
:04221200D2F21200F2
:1022160011D08FEC0AF021D095DC1FD0C2EC0BF068
:102226001CD0BCEC0AF019D0D2EC0CF016D0A5EC00
:1022360009F013D00001DC51000AEBE0DC51010A81
:10224600EBE0DC51020AEAE0DC51030AEAE0DC5189
:0C225600040AEAE0DC51050AEAE012008C
:102262000201E16BE26B83BC02D0E18101D0E1911A
:1022720080BA02D0E18301D0E19383B802D0E18534
:1022820001D0E195F6D00201E151000A0EE0010110
:10229200D551000A0AE1E1C2E2F2010ED56F640EE5
:1022A200DF6F010ED66FE1C2E1F1F6D00101D55127
:1022B200000A0AE10201E151000A06E1E26B0101B2
:1022C200E16B010ED56FD66B0101D551000A10E109
:1022D2000201E1510101E1190BE1DF51000A08E1BC
:1022E200E1C2E2F2020ED66F060EDF6F0A0EE06F57
:1022F200D551000A10E10201E1510101E1190BE09F
:102302000201E151000A07E0E1C2E2F2E1C2E1F1B9
:10231200010E0101D56FC0D00201E1510101E119A5
:102322000BE1DF51000A08E1E051000805E2E1C2D9
:10233200E2F2060EDF6FE0070201E1510101E1194D
:102342000EE1DF51000A0BE1E051000A08E1E1C2AF
:10235200E2F2060EDF6F0A0EE06F030ED66F020185
:10236200E1510101E1190FE00201E151000A0BE024
:10237200E1C2E2F2E1C2E1F1010E0101D56F640EA8
:10238200DF6F010ED66F0201E151000A06E1E26B36
:102392000101E16B010ED56FD66B7ED00201E151D6
:1023A2000101E1190BE1DF51000A08E1E0510008E7
:1023B20005E2E1C2E2F2060EDF6FE0070201E1513F
:1023C2000101E1190CE1DF51000A09E1E051000AC3
:1023D20006E1E1C2E2F2060EDF6F040ED66F0201E1
:1023E200E1510101E1190FE00201E151000A0BE0A4
:1023F200E1C2E2F2E1C2E1F1010E0101D56F640E28
:10240200DF6F010ED66F0201E151000A06E1E26BB5
:102412000101E16B010ED56FD66B3ED00201E15195
:102422000101E11907E1DF51000A04E1E1C2E2F230
:10243200060EDF6F0201E1510101E1190FE0020115
:10244200E151000A0BE0E1C2E2F2E1C2E1F1010E68
:102452000101D56F640EDF6F010ED66F0201E151EB
:10246200000A06E1E26B0101E16B010ED56FD66B4A
:1024720013D00101D651000AD8B405D7D651010AAA
:10248200D8B414D7D651020AD8B446D7D651030AC3
:0E24920085E0D651040AC2E0E2C200F012005A
:1024A0000201BD5369E0BD6B60D0ABC1A7F1ACC107
:1024B000A8F1ADC1A9F1AEC1AAF1010E0101666F8B
:1024C000E20E0301016F010E026F010E036F61EC5A
:1024D00005F0E20E0301016F010E026F3C0E036F67
:1024E000000E046F056F066F010E076F9CEC02F083
:1024F000C80E0201B96F0B0E0C6E620E0D6E0D2E22
:10250000FED70C2EFCD70000B90EE46F020EE56F6B
:10251000010EE66FC8EC09F0838E2ED0DC0E0201AE
:10252000B96FB851020A04E0B851040A01E002D0C0
:10253000C80EB96FB851010A04E0B851030A01E0AE
:1025400002D0D20EB96F0B0E0C6E620E0D6E0D2EF8
:10255000FED70C2EFCD70000B90EE46F020EE56F1B
:10256000010EE66FC8EC09F007D00201B951010A6B
:0A2570009CE0B951020AD2E012000B
:10257A00D20E0201E125E96E000EE221EA6EEECFEB
:10258A0001F0EECF02F0EECF03F0EECF04F00450EC
:10259A00FF0A08E10350FF0A05E10250FF0A02E1BF
:1025AA000150FF0A23E0D20EE125046E000EE2215B
:1025BA00056E04C0E9FF05C0EAFF010EEE24006EB5
:1025CA00000EEE20016E000EEE20026E000EEE20CE
:1025DA00036E04C0E1FF05C0E2FF00C0E6FF01C0D0
:1025EA00E6FF02C0E6FF03C0E6FF0AD0D20EE125ED
:1025FA00E16E000EE221E26EE66AE66AE66AE66AE1
:02260A001200BC
:10260C000201E36BE36B1E0EE35DD8B07CD0070ECA
:10261C00006E000E016EE3C204F0000E056ED9ECE4
:10262C0001F0E1510026E2510122050E0024E96E71
:10263C00000E0120EA6EEE50000A63E1070E006EF8
:10264C00000E016EE3C204F0000E056ED9EC01F031
:10265C00E1510026E2510122010E0024E96E000E28
:10266C000120EA6EEECF05F0EECF06F0EECF07F0CC
:10267C00EECF08F0D20EE125D96E000EE221DA6E13
:10268C00DECF01F0DECF02F0DECF03F0DECF04F0C0
:10269C000850041808E10750031805E10650021809
:1026AC0002E1055001182DE1070E006E000E016EBF
:1026BC00E3C204F0000E056ED9EC01F0E1510026E6
:1026CC00E2510122060E0024E96E000E0120EA6E92
:1026DC00EE50000A16E1070E006E000E016EE3C20A
:1026EC0004F0000E056ED9EC01F0E1510026E25128
:1026FC000122060E0024E16E000E0120E26E010E96
:08270C00E66EE32B80D71200FA
:10271400E3EC14F00DEC0EF0010E03010C6F010E4E
:102724000D6F680E0E6F010E0F6F34EC01F0020E88
:1027340003010C6F010E0D6FC40E0E6F010E0F6FAF
:1027440034EC01F00101C3530CE003EC0EF0000182
:10275400DD51000803E2DD07808601D08096010187
:10276400C36BC25328E0000E006ED851005C02E136
:10277400D751000805E2010ED75F000ED85B01D0E7
:10278400809A1453010ED8A4000E146FA0DC010E1D
:102794000101AB27000EAC23AD23AE23E20E0201F0
:1027A400E16F010EE26FE7DEE20EE16F010EE26F10
:1027B4002BDF0101C26B53DD00C0EFF00050000AB3
:1027C40008E0680E0101D76F010ED86F030E0001F7
:1027D400DD6F0001DB51000A01E159DC1ADD5EDE28
:1027E400AEEC0FF0000E006E0101D851005C02E166
:0C27F400D7510008D8A0808AA5D7FFD7D5
:1029C60010EE1DF0C50E006E020E016E000EF66EC4
:0E29D600280EF76E000EF86EFBEC0DF01200EE
:1028000034204175746F636C6F73652054696D6516
:0128100000C7
:1028110035204E65742041646472657373202020F5
:0128210000B6
:102822003320496E76616C69642054696D6520209D
:0128320000A5
:1028330031204F70656E6E696E672054696D652037
:012843000094
:102844003220436C6F73696E672054696D65202074
:012854000083
:102855003620576F726B696E67204D6F6465202057
:012865000072
:02286600B001BF
:10286800372044697363617264202620457869744F
:01287800005F
:10287900362053617665204368616E676573202051
:01288900004E
:10288A0020202053746172742F53746F702020209B
:01289A00003D
:10289B002020204F70656E2F436C6F7365202020B6
:0128AB00002C
:0128AC00002B
:1028AD00202020204F70656E6E696E6720202020DD
:0128BD00001A
:0128BE000019
:0128BF000018
:0128C0000512
:1028C1002020202020202020202020202020202007
:0128D1000006
:0128D2000005
:0128D3000004
:0128D4000003
:1028D500202020204F70656E6E696E6720202020B5
:0128E50000F2
:1028E600202020204F70656E6E696E6720202020A4
:0128F60000E1
:0128F70000E0
:1028F80020202020204F70656E6564202020202035
:0129080000CE
:1029090020202020496E76616C69642020202020D7
:0129190000BD
:10291A0020202020436C6F73696E672020202020BE
:01292A0000AC
:03292B004D20003C
:03292E0053200033
:032931004820003B
:10293400202020204F70656E6E696E672020202055
:012944000092
:042945004C433A00C5
:01294900008D
:01294A00008C
:10294B00202020202053746172742120202020200D
:01295B00007B
:04295C002E357300A1
:042960002E307300A2
:1029640020202020496E76616C696420202020207C
:012974000062
:04297500000000005E
:102979002020202020436C6F7365642020202020B4
:01298900004D
:04298A000000000049
:04298E000000000045
:012992000044
:102993002020202020202020202020202020202034
:0129A3000033
:0129A4000032
:0129A5000031
:0129A6000030
:1029A7002020202020202020202020202020202020
:0129B700001F
:0129B800001E
:0129B900001D
:0229BA006801B2
:0129BC001406
:0129BD000019
:0129BE000018
:0129BF000A0D
:0129C0000A0C
:0129C1000114
:0129C2000014
:0129C3000013
:0129C4000012
:020000040030CA
:0E00000015187F7CFF8991FF0FC00FE00F40A5
:0200000400F00A
:10000000141402280A000000000000000000000094
:10001000FFFFFFFFFFFFFFFFFFFFFFFFFFFFFFFFF0
:10002000FFFFFFFFFFFFFFFFFFFFFFFFFFFFFFFFE0
:10003000FFFFFFFFFFFFFFFFFFFFFFFFFFFFFFFFD0
:10004000FFFFFFFFFFFFFFFFFFFFFFFFFFFFFFFFC0
:00000001FF
