:040000001FEF14F0EA
:1000080000C018F001C017F002C016F003C015F0C8
:10001800E1CF1BF0E2CF1CF0E9CF19F0EACF1AF0DC
:10002800F2A411D0F2AA0FD0010E0101B06F8D2BEE
:10003800190E8D5D03E3010EBB6F8D6B630ED76EDA
:10004800BF0ED66EF2949DAA0AD09EAA08D0280E9A
:1000580003015D6F020E5E6F07EC0FF09E9A18C0E9
:1000680000F017C001F016C002F015C003F019C067
:10007800E9FF1AC0EAFF1BC0E1FF1CC0E2FF110044
:0C008800020E0D6E0D2EFED700001200BF
:0A009400850E0D6E0D2EFED7120032
:10009E003A0E0C6E230E0D6E0D2EFED70C2EFCD7C7
:0200AE0012003E
:1000B000086A080E0C6E003408360450085ED8B08A
:0E00C00002D00826D89000360C2EF5D712007C
:1000CE0003015CBF02D0819601D081865CBD02D057
:1000DE00819401D081845CBB02D0819201D0818257
:1000EE005CB902D0819001D0818002014FB102D063
:1000FE00818A01D0819A8188C0DF819803015CB723
:10010E0002D0819601D081865CB502D0819401D057
:10011E0081845CB302D0819201D081825CB102D025
:10012E00819001D0818002014FB102D0818A01D02D
:10013E00819A8188A2DF81984FA102D0A9DF01D0D8
:04014E00A2DF12001A
:1001520058C304F059C305F056C302F057C303F065
:100162005AC300F05BC301F0010E03015A5F000E97
:100172005B5B005001100FE004C0E9FF05C0EAFF1D
:1001820002C0E1FF03C0E2FFEECFE6FF024A032A0C
:10019200044A052AE5D756C300F057C301F01200FE
:0E01A20002014F9156C35CF391DF4F811200B2
:1001B0000301596B030E595D0AE259515725E16E4F
:1001C000000E5821E26E200EE66E592BF3D75951DE
:1001D0005725E16E000E5821E26EE66A5907595123
:1001E00057255A6F000E58215B6F0A0E046E56C3D6
:1001F00000F05EDF08C000F0300E00265AC3E1FFB9
:100200005BC3E2FF00C0E6FF0A0E046E56C300F0B7
:100210004FDF00C056F30050000A01E102D0590739
:04022000DED7120013
:10022400086A096A100E0C6E013408360936045047
:10023400085E0550D8A0053C095ED8B007D004502C
:1002440008260550D8B0053C0926D890003601365A
:060254000C2EEAD7120097
:0E025A00ACB202D00000FCD751C3ADFF1200C1
:1002680010D0800E0301516F1AD0C00E516F17D0F5
:10027800940E516F14D0D40E516F11D0800E516F5F
:100288000ED003015151010AECE05151020AEDE090
:100298005151030AEDE05151040AEDE0EFD7520540
:1002A800006E5151002600C051F300C05CF30BDF13
:1002B8004F910301556B55515325E96E000E54219A
:1002C800EA6EEE520CE055515325E96E000E5421AA
:1002D800EA6EEECF56F361DF0301552BECD702012E
:0402E8004F81120030
:1002EC0094928292010E0201326F406B51C33FF225
:1002FC0003015151960A04E05151A90A01E006D0BC
:0E030C00010E511902013F6FFF0E406F1200EB
:10031A0051C356F303015633569F52C357F353C37F
:10032A0058F341DF010E5115016E0150010A10E127
:10033A00030E5225566F000E5321576F500E586FF9
:10034A00010E596F040E5A6F000E5B6FFDDE0FD05F
:10035A00030E5225566F000E5321576F540E586FD5
:10036A00010E596F040E5A6F000E5B6FEDDE12001C
:10037A007FA202D00000FCD77F9C52C375FF51C3F5
:10038A0074FF53C373FF7F9E7F84F2CF00F0F29E07
:10039A00550E7E6EAA0E7E6E7F8200BE02D0F29E3F
:0803AA0001D0F28E7F941200D5
:1003B2000B6A0A6A096A00500402F4CF09F0F3CF0B
:1003C20008F001500502F4CF0BF0F3CF0AF0005011
:1003D2000502F3500926F4500A22E86A0B22015062
:1003E2000402F3500926F4500A22E86A0B2208C0DC
:1003F20000F009C001F00AC002F00BC003F01200C5
:0C040200BAB201D0FDD751C379FF12003F
:10040E0051C3C9FFC7B002D00000FCD7C9CF00F05E
:02041E001200CA
:100420007F9C52C375FF51C374FF7F9E7F8073CF43
:0404300000F01200C6
:10043400AECF01F0ABA202D0AB98AB8801C000F004
:020444001200A4
:0A044600000EACB2010E006E1200B1
:0A045000000E9EBA010E006E1200AD
:10045A007ACF01F0A6A202D0A698A68801C000F021
:02046A0012007E
:0A046C00000EBAB2010E006E12007D
:0A047600000EA4BA010E006E120081
:100480000301516B526BD9C153F377DF010E0301A6
:10049000516F000E526FD8C153F36FDF020E03018C
:1004A000516F000E526FDAC153F367DF030E030181
:1004B000516F000E526FDCC153F35FDF040E030176
:1004C000516F000E526FDBC153F357DF050E03016E
:1004D000516F000E526FD7C153F34FDF060E030169
:1004E000516F000E526FD4C153F347DF070E030163
:1004F000516F000E526FD5C153F33FDFDBC151F393
:04050000F5DE120012
:100504000301516B526B8ADF00C0D9F1010E516FA8
:10051400000E526F83DF00C0D8F1020E516F000E3F
:10052400526F7CDF00C0DAF1030E516F000E526F80
:1005340075DF00C0DCF1040E516F000E526F6EDFE8
:1005440000C0DBF1050E516F000E526F67DF00C073
:10055400D7F1060E516F000E526F60DF00C0D4F168
:10056400070E516F000E526F59DF00C0D5F1120013
:1005740003014D6B4E6B4F6B506BD20E4525E96EEC
:10058400000E4621EA6E4751EE244D6F4851EE208D
:100594004E6F4951EE204F6F4A51EE20506F4C6B15
:1005A4001E0E4C5D6DE2070E006E000E016E4CC314
:1005B40004F0000E056EFBDE455100264651012273
:1005C400050E0024E96E000E0120EA6EEE50010AC9
:1005D40055E1070E006E000E016E4CC304F0000ED0
:1005E400056EE5DE00504525E16E01504621E26EC0
:1005F4004BC3E6FF070E006E000E016E4CC304F001
:10060400000E056ED4DE4551002646510122010E2E
:100614000024E16E000E0120E26E4DC3E6FF4EC3DE
:10062400E6FF4FC3E6FF50C3E6FF070E006E000E61
:10063400016E4CC304F0000E056EB9DE4551002670
:1006440046510122050E0024E16E000E0120E26EE7
:10065400E66A070E006E000E016E4CC304F0000E35
:10066400056EA5DE4551002646510122060E0024E2
:10067400E16E000E0120E26EE66A02D04C2B90D7A8
:02068400120062
:10068600F250026EF29E0500FF6A0150FE6E0050A7
:08069600FD6E02BEF28E12009F
:10069E000301486B496B486B1E0E485D5AE2070E0C
:1006AE00006E000E016E48C304F0000E056E7ADE79
:1006BE004551002646510122050E0024E96E000E1A
:1006CE000120EA6EEE50000A42E1070E006E000EA7
:1006DE00016E48C304F0000E056E64DE455100261F
:1006EE0046510122060E0024E96E000E0120EA6E2C
:1006FE00EE50010A2CE1070E006E000E016E48C38B
:10070E0004F0000E056E4EDE00504525E96E0150D8
:10071E004621EA6EEECF01F00150471918E1070E9F
:10072E00006E000E016E48C304F0000E056E3ADE38
:10073E004551002646510122050E0024E16E000EA1
:10074E000120E26E010EE66E010E496F02D0482BBB
:08075E00A3D749C300F012000B
:100766000301496B050E495D0AE249514725E16ED1
:10077600000E4821E26E200EE66E492BF3D7495152
:100786004725E16E000E4821E26EE66A49074951A7
:1007960047254A6F000E48214B6F0A0E046E000E65
:1007A600056E45C300F046C301F039DD08C000F010
:1007B60009C001F0300E00264AC3E1FF4BC3E2FF39
:1007C60000C0E6FF0A0E046E000E056E45C300F07B
:1007D60046C301F024DD00C045F301C046F3000E18
:1007E600011802E1000E001801E102D04907CFD737
:0207F6001200EF
:1007F8000B6A0A6A096A086A0E6A033408360450E2
:10080800085E0550D8A0053C095E0650D8A0063CF5
:100818000A5E0750D8A0073C0B5EE86AD8A0010E14
:100828000E5E0336070E0C6E0334083609360A3698
:100838000B360E36045003A012D0085E0550D8A01F
:10084800053C095E0650D8A0063C0A5E0750D8A0B1
:10085800073C0B5EE86AD8A0010E0E5E11D0082690
:100868000550D8B0053C09260650D8B0063C0A26E3
:100878000750D8B0073C0B26E86AD8B0010E0E2600
:1008880003360C2ED1D70234083609360A360B3611
:100898000E36045003A012D0085E0550D8A0053CBF
:1008A800095E0650D8A0063C0A5E0750D8A0073C4F
:1008B8000B5EE86AD8A0010E0E5E11D0082605501E
:1008C800D8B0053C09260650D8B0063C0A26075081
:1008D800D8B0073C0B26E86AD8B0010E0E260236BF
:1008E800070E0C6E0234083609360A360B360E36F9
:1008F800045002A012D0085E0550D8A0053C095E3D
:100908000650D8A0063C0A5E0750D8A0073C0B5EEC
:10091800E86AD8A0010E0E5E11D008260550D8B09E
:10092800053C09260650D8B0063C0A260750D8B020
:10093800073C0B26E86AD8B0010E0E2602360C2EAC
:10094800D1D70134083609360A360B360E3604502C
:1009580002A012D0085E0550D8A0053C095E0650DA
:10096800D8A0063C0A5E0750D8A0073C0B5EE86A90
:10097800D8A0010E0E5E11D008260550D8B0053C4F
:1009880009260650D8B0063C0A260750D8B0073CBE
:100998000B26E86AD8B0010E0E260136070E0C6E3B
:1009A8000134083609360A360B360E36045001A0D3
:1009B80012D0085E0550D8A0053C095E0650D8A0A4
:1009C800063C0A5E0750D8A0073C0B5EE86AD8A030
:1009D800010E0E5E11D008260550D8B0053C092638
:1009E8000650D8B0063C0A260750D8B0073C0B265C
:1009F800E86AD8B0010E0E2601360C2ED1D7003485
:100A0800083609360A360B360E36045001A012D0C5
:100A1800085E0550D8A0053C095E0650D8A0063CE3
:100A28000A5E0750D8A0073C0B5EE86AD8A0010E02
:100A38000E5E11D008260550D8B0053C0926065090
:100A4800D8B0063C0A260750D8B0073C0B26E86AFF
:100A5800D8B0010E0E260036070E0C6E003408368C
:100A680009360A360B360E36045000A012D0085E3E
:100A78000550D8A0053C095E0650D8A0063C0A5E81
:100A88000750D8A0073C0B5EE86AD8A0010E0E5E9E
:100A980011D008260550D8B0053C09260650D8B014
:100AA800063C0A260750D8B0073C0B26E86AD8B09F
:100AB800010E0E2600360C2ED1D700B00ED00450F1
:100AC80008260550D8B0053C09260650D8B0063C83
:0C0AD8000A260750D8B0073C0B2612007D
:100AE4000301486B1E0E485D41E2070E006E000EC6
:100AF400016E48C304F0000E056E59DC4551002612
:100B040046510122050E0024E96E000E0120EA6E12
:100B1400EE50000A29E1070E006E000E016E48C374
:100B240004F0000E056E43DC00504525E96E0150CB
:100B34004621EA6EEECF01F00150471915E1070E88
:100B4400006E000E016E48C304F0000E056E2FDC2B
:100B54004551002646510122050E0024E16E000E87
:0E0B64000120E26E010EE66E482BBCD7120097
:100B7200450E0301566F030E576FDF0E586F010EBD
:100B8200596F0A0E5A6F000E5B6FA9EC00F0010E4E
:100B92005C6F67EC00F036D1010E0301516F010E5C
:100BA200526F010E536F020E546F34EC01F0D9C133
:100BB20051F3450E0301526F030E536F8DEC01F09A
:100BC200020E516F050E526F450E536F030E546F96
:100BD20034EC01F03CD1010E0301516F010E526F52
:100BE200F00E536F010E546F34EC01F0D8C151F383
:100BF200450E0301526F030E536F8DEC01F0020E8E
:100C0200516F050E526F450E536F030E546F34EC45
:100C120001F01DD1010E0301516F010E526FFB0E47
:100C2200536F000E546F34EC01F0DAC151F3450EEC
:100C32000301526F030E536F8DEC01F0020E516FE0
:100C4200050E526F450E536F030E546F34EC01F0D4
:100C5200FED0010E0301516F010E526F0C0E536F45
:100C6200010E546F34EC01F0DCC151F3450E030167
:100C7200526F030E536F8DEC01F0020E516F050E91
:100C8200526F450E536F030E546F34EC01F0DFD0F8
:100C9200010E0301516F010E526F1D0E536F010EB3
:100CA200546F34EC01F0DBC156F3450E0301576F6C
:100CB200030E586FD8EC00F0020E516F050E526F02
:100CC200450E536F030E546F34EC01F0C0D0010E89
:100CD2000301516F010E526FEA0E536F000E546FF3
:100CE20034EC01F00101D751000A0CE1020E0301BC
:100CF200516F010E526FB70E536F000E546F34ECEA
:100D020001F00BD0020E0301516F010E526FC80E9B
:100D1200536F000E546F34EC01F099D0010E0301B1
:100D2200516F010E526FD90E536F000E546F34EC97
:100D320001F00101D451000A0CE1020E0301516FCE
:100D4200010E526F2E0E536F010E546F34EC01F0F0
:100D52000BD0020E0301516F010E526F5A0E536FE8
:100D6200010E546F34EC01F072D0010E0301516F89
:100D7200010E526F6B0E536F010E546F34EC01F083
:100D8200D5C151F3450E0301526F030E536F8DEC23
:100D920001F0020E516F050E526F450E536F030E96
:100DA200546F34EC01F053D0010E0301516F010E68
:100DB200526F7C0E536F010E546F34EC01F0020E31
:100DC2000301516F010E526F58C153F359C154F3CD
:100DD20034EC01F03CD0010E0301516F010E526F51
:100DE2003F0E536F010E546F34EC01F0020E0301FB
:100DF200516F010E526F58C153F359C154F334EC81
:100E020001F025D01251000AD8B4C6D61251010AF7
:100E1200D8B4E1D61251020AD8B4FCD61251030A50
:100E2200D8B417D71251040AD8B432D71251050ACE
:100E3200D8B44DD71251060AD8B470D71251070A46
:100E420094E01251080AB0E01251090AC4E01200FB
:100E52002AC333F22BC334F22CC335F22DC336F23C
:100E62002EC341F22FC342F230C343F231C344F2E4
:100E720032C337F233C338F234C339F235C33AF2EC
:100E820036C33BF237C33CF238C33DF239C33EF2BC
:020E920012004C
:100E94005A0E0201416F020E426F510E436F030E50
:100EA400446F340E336F040E346F000E356F000E32
:100EB400366F500E376F040E386F000E396F000E08
:100EC4003A6F460E3B6F040E3C6F000E3D6F000EF2
:100ED4003E6FAC8A900EAB6E948E949C9EAA03D007
:080EE400AECF00F0FBD71200B5
:100EEC009398939A93909392939493968198819AD2
:100EFC0081968194819281904FEC00F04FEC00F040
:100F0C004FEC00F081828180818844EC00F0819864
:100F1C004FEC00F0818844EC00F081984FEC00F02D
:100F2C00818844EC00F081984FEC00F0819081882E
:100F3C0044EC00F081984FEC00F0818844EC00F018
:100F4C00819881928186818844EC00F081984FECE5
:100F5C0000F081968180818844EC00F0819881902A
:100F6C00818844EC00F081984FEC00F0818844ECCF
:100F7C0000F081988180818844EC00F081984FECDE
:100F8C0000F08190818844EC00F081988186818406
:100F9C0081828180818844EC00F081984FEC00F0D4
:060FAC0002014F8112005A
:100FB20003012C6B1E0E2C5D56E2070E006E000E16
:100FC200016E2CC304F0000E056ED9EC01F0005046
:100FD2002A25E16E01502B21E26EE66A070E006EB1
:100FE200000E016E2CC304F0000E056ED9EC01F068
:100FF2002A5100262B510122010E0024E16E000E1F
:101002000120E26EE66AE66AE66AE66A070E006EAA
:10101200000E016E2CC304F0000E056ED9EC01F037
:101022002A5100262B510122050E0024E16E000EEA
:101032000120E26E010EE66E070E006E000E016EDA
:101042002CC304F0000E056ED9EC01F02A510026E3
:101052002B510122060E0024E16E000E0120E26EE9
:10106200E66A2C2BA7D7D20E2A25E16E000E2B2181
:0C107200E26EE66AE66AE66AE66A1200D0
:08107E0079DD020E146F12006F
:101086001DC005F01EC006F01FC007F020C008F006
:101096004350055E4450065A4550075A4650085A72
:1010A60005C001F006C002F007C003F008C004F056
:1010B6000432033202320132049E01C02AF302C016
:1010C6002BF303C02CF304C02DF3045002014D1979
:1010D60008E103504C1905E102504B1902E1015099
:1010E6004A19D8B4CAD02AC34AF22BC34BF22CC32E
:1010F6004CF22DC34DF23C0E046E000E056E066ECC
:10110600076E2AC300F02BC301F02CC302F02DC3D7
:1011160003F0FCEC03F008C000F009C001F00AC0BF
:1011260002F00BC003F000C02FF33C0E046E000E5D
:10113600056E066E076E2AC300F02BC301F02CC3A2
:1011460002F02DC303F0FCEC03F000C041F301C034
:1011560042F302C043F303C044F341C32AF342C33C
:101166002BF343C32CF344C32DF33C0E046E000E45
:10117600056E066E076E41C300F042C301F043C31D
:1011860002F044C303F0FCEC03F008C000F009C011
:1011960001F00AC002F00BC003F000C02EF33C0EB3
:1011A600046E000E056E066E076E41C300F042C364
:1011B60001F043C302F044C303F0FCEC03F000C0AB
:1011C60045F301C046F3320E0301476F030E486F25
:1011D600B3EC03F02EC356F3380E576F030E586F59
:1011E600D8EC00F02FC356F33C0E576F030E586F22
:1011F600D8EC00F0300E566F030E576F6F0E586F17
:10120600000E596F030E5A6F000E5B6FA9EC00F0CB
:10121600370E566F030E576FB20E586F010E596F89
:10122600020E5A6F000E5B6FA9EC00F03B0E566F74
:10123600030E576FB50E586F010E596F020E5A6F97
:10124600000E5B6FA9EC00F03F0E566F030E576F52
:10125600B80E586F010E596F020E5A6F000E5B6F73
:10126600A9EC00F0406B010E516F010E526F300E6B
:0C127600536F030E546F34EC01F01200B3
:1012820010D0800E03012A6F1AD0C00E2A6F17D019
:10129200940E2A6F14D0D40E2A6F11D0800E2A6FAA
:1012A2000ED003012A51010AECE02A51020AEDE0B4
:1012B2002A51030AEDE02A51040AEDE0EFD72B058B
:1012C200006E2A51002600C02AF302014F8100C09D
:1012D2005CF367EC00F04F912CC35CF367EC00F019
:0412E2004F81120026
:1012E6007AD0500E0301456F020E466F010E476F0E
:1012F600000E486F496F4A6F060E4B6FBAEC02F04C
:10130600500E456F020E466F020E476F000E486F75
:10131600496F4A6F070E4B6FBAEC02F0500E456FDD
:10132600020E466F030E476F000E486F496F4A6FF5
:10133600040E4B6FBAEC02F0500E456F020E466F6C
:10134600040E476F000E486F496F4A6F050E4B6FCC
:10135600BAEC02F0010E0101D66F44D0500E030123
:10136600456F020E466F010E476F000E486F496FBC
:101376004A6F060E4B6FBAEC02F0500E456F020E26
:10138600466F020E476F000E486F496F4A6F070E91
:101396004B6FBAEC02F0500E456F020E466F030E0D
:1013A600476F000E486F496F4A6F040E4B6FBAECD9
:1013B60002F0500E456F020E466F040E476F000E88
:1013C600486F496F4A6F050E4B6FBAEC02F0010E7B
:1013D6000101D66F07D00101D751000A82E0D7512B
:0613E600010ABCE0120048
:1013EC00500E0301456F020E466F360E476F4FECE1
:1013FC0003F0005215E0020E266F02011351000A91
:10140C000EE11451000A0BE1020E0301516F010EA3
:10141C00526F210E536F000E546F34EC01F0276B9A
:02142C001200AC
:10142E003FC230F30201405304E0010E3F190301A5
:10143E00306F030182822C052F6F43C2E1FF44C23D
:10144E00E2FF960EE66E41C200F042C201F043EC9E
:10145E0003F003013051960A04E03051A90A01E06D
:10146E0002D030712C8D43C2E1FF44C2E2FF30C383
:10147E00E6FF41C200F042C201F043EC03F003016B
:10148E002D6B2D512F5D32E32D512A25E96E000E65
:10149E002B21EA6EEECF01F001C031F30150960A16
:1014AE0004E03151A90A01E01FD02D512A25016E09
:1014BE00000E2B21026E01C0E9FF02C0EAFF010EF1
:1014CE00EE18006E01C0E1FF02C0E2FF00C0E6FFB1
:1014DE002DC301F0040E006E015004E000360090A2
:1014EE00FF0FFBD700502C132D2BCBD743C2E1FFA0
:1014FE0044C2E2FF2CC3E6FF41C200F042C201F03B
:10150E0043EC03F0030130512C192E6F2D6B2D512E
:10151E002F5D1FE32D512A25006E000E2B21016E2B
:10152E0000C0D9FF01C0DAFFDE502E1B43C2E1FF1F
:10153E0044C2E2FF00C0E9FF01C0EAFFEECFE6FFC2
:10154E0041C200F042C201F043EC03F003012D2B27
:10155E00DED72E1D016E01C02EF30150960A04E057
:10156E002E51A90A01E001D02E2B43C2E1FF44C245
:10157E00E2FF2EC3E6FF41C200F042C201F043EC8F
:10158E0003F043C2E1FF44C2E2FFA90EE66E41C280
:10159E0000F042C201F043EC03F03BC200F03CC24B
:1015AE0001F043EC03F00050000A01E1F6D78292FD
:0215BE00120019
:1015C0000101D65327E0500E0301456F020E466F0E
:1015D000D9C147F3000E486F496F4A6F320E4B6F07
:1015E000BAEC02F0030E266F02011351000A0EE15D
:1015F0001451000A0BE1020E0301516F010E526FEC
:10160000150E536F020E546F34EC01F0010E276F6C
:061610000101D66B12007F
:10161600500E0301456F020E466F340E476F4FECB6
:1016260003F0005234E0040E266F02011351000A43
:101636000EE11451000A0BE1020E0301516F010E77
:10164600526F4D0E536F000E546F34EC01F0040EC2
:10165600276F500E0301456F020E466FDAC100F088
:10166600000E016E00360136009000500101D85D73
:101676000301476F01C048F3000E4857000E48BFEC
:10168600FF0E496F4A6F350E4B6FBAEC02F082B00F
:1016960007D00101D4B102D0D89008D0D88006D0A6
:1016A6000101D4B102D0D88001D0D89036E2500ED4
:1016B6000301456F020E466F350E476F72EC05F05B
:1016C600500E456F020E466F340E476F72EC05F0F2
:1016D600030E266F02011351000A0EE11451000A8F
:1016E6000BE1020E0301516F010E526F5E0E536F36
:1016F600000E546F34EC01F0010E276F500E0301FB
:10170600456F020E466FDAC147F3000E486F496F08
:0C1716004A6F320E4B6FBAEC02F012006A
:101722007AD0500E0301456F020E466F010E476FCD
:10173200000E486F496F4A6F060E4B6FBAEC02F00B
:10174200500E456F020E466F020E476F000E486F35
:10175200496F4A6F070E4B6FBAEC02F0500E456F9D
:10176200020E466F030E476F000E486F496F4A6FB5
:10177200040E4B6FBAEC02F0500E456F020E466F2C
:10178200040E476F000E486F496F4A6F050E4B6F8C
:10179200BAEC02F0010E0101D66F44D0500E0301E3
:1017A200456F020E466F010E476F000E486F496F7C
:1017B2004A6F060E4B6FBAEC02F0500E456F020EE6
:1017C200466F020E476F000E486F496F4A6F070E51
:1017D2004B6FBAEC02F0500E456F020E466F030ECD
:1017E200476F000E486F496F4A6F040E4B6FBAEC99
:1017F20002F0500E456F020E466F040E476F000E48
:10180200486F496F4A6F050E4B6FBAEC02F0010E3A
:101812000101D66F07D00101D751000A82E0D751EA
:06182200010ABCE0120007
:10182800500E0301456F020E466F330E476F4FECA3
:1018380003F0005238E0266B02011351000A0EE152
:101848001451000A0BE1020E0301516F010E526F91
:10185800320E536F000E546F34EC01F0030E276FF5
:10186800500E0301456F020E466FDAC147F3000EB2
:10187800486F473748374791000E48BFFF0E496FFA
:101888004A6F340E4B6FBAEC02F00101DA511D2495
:10189800496E000E1E204A6E000E1F204B6E000E71
:0818A80020204C6ED66B1200EB
:1018B000010E0201266FE3D00101DEA106D0FF0E6A
:1018C000D95D03E2D92BB9EC05F00101DEA506D004
:1018D000D951000803E2D907B9EC05F00101DEA3F4
:1018E00003D0010E0201146FEDD00101DEA106D07C
:1018F000FF0ED85D03E2D82BB9EC05F00101DEA59F
:1019000006D0D851000803E2D807B9EC05F0010170
:10191000DEA303D0010E0201146FD4D00101DEA1B9
:1019200006D0FF0EDA5D03E2DA2BB9EC05F0010117
:10193000DEA506D0DA51000803E2DA07B9EC05F0BB
:101940000101DEA303D0010E0201146FBBD001011F
:10195000DEA106D0FF0EDC5D03E2DC2BB9EC05F066
:101960000101DEA506D0DC51000803E2DC07B9EC7A
:1019700005F00101DEA303D0010E0201146FA2D015
:101980000101DEA106D0FF0EDB5D03E2DB2BB9EC2B
:1019900005F00101DEA506D0DB51000803E2DB07FC
:1019A000B9EC05F00101DEA303D0010E0201146FB2
:1019B00089D00101DEA106D0010ED75D03E2D72B4D
:1019C000B9EC05F00101DEA506D0D751000803E20D
:1019D000D707B9EC05F00101DEA303D0010E020127
:1019E000146F70D00101DEA106D0010ED45D03E2B8
:1019F000D42BB9EC05F00101DEA506D0D4510008C6
:101A000003E2D407B9EC05F00101DEA303D0010E17
:101A10000201146F57D00101DEA106D0FF0ED55D83
:101A200003E2D52BB9EC05F00101DEA506D0D551B6
:101A3000000803E2D507B9EC05F00101DEA303D0ED
:101A4000010E0201146F3ED00101DEA302D002019B
:101A5000146B0201266B40EC02F00201146B140EB1
:101A60000101DD6F2FD00101DEA302D00201146B52
:101A70000201266B82EC02F00201146B23D012519A
:101A8000000AD8B419D71251010AD8B42ED712516E
:101A9000020AD8B443D71251030AD8B458D7125106
:101AA000040AD8B46DD71251050A83E01251060A10
:101AB00099E01251070AAFE01251080AC5E012512D
:061AC000090AD1E012004A
:101AC600500E0301456F020E466F350E476F4FEC01
:101AD60003F000522AE0266B02011351000A0EE1C0
:101AE6001451000A0BE1020E0301516F010E526FF1
:101AF600950E536F000E546F34EC01F0050E276FF0
:101B0600500E0301456F020E466FDAC147F3000E11
:101B1600486F473748374791000E48BFFF0E496F59
:101B26004A6F360E4B6FBAEC02F082B007D0010155
:101B3600D4B102D0D89008D0D88006D00101D4B153
:101B460002D0D88001D0D89040E2500E0301456FF4
:101B5600020E466F350E476F72EC05F0500E456F5C
:101B6600020E466F360E476F72EC05F0030E266FB7
:101B760002011351000A0EE11451000A0BE1020E94
:101B86000301516F010E526FA60E536F000E546F74
:101B960034EC01F0010E276F500E0301456F020E63
:101BA600466F1DC047F31EC048F31FC049F320C04F
:101BB6004AF34950475F4A50485B4B50495B4C508B
:101BC6004A5B320E4B6FBAEC02F00101D65342E08B
:101BD600500E0301456F020E466F350E476F72ECCD
:101BE60005F0500E456F020E466F360E476F72ECCB
:101BF60005F0030E266F02011351000A0EE114517F
:101C0600000A0BE1020E0301516F010E526F730EB3
:101C1600536F000E546F34EC01F0010E276F500E17
:101C26000301456F020E466F1DC047F31EC048F301
:101C36001FC049F320C04AF34950475F4A50485BEA
:101C46004B50495B4C504A5B320E4B6FBAEC02F07C
:061C56000101D66B120033
:101C5C00500E0301456F020E466F320E476F4FEC6C
:101C6C0003F000522CE0010E266F02011351000A02
:101C7C000EE11451000A0BE1020E0301516F010E2B
:101C8C00526F840E536F000E546F34EC01F0020E41
:101C9C00276F500E0301456F020E466F0101DA519A
:101CAC00DC5D0301476F486B000E485B000E48BFBC
:101CBC00FF0E496F4A6F330E4B6FBAEC02F01200F5
:101CCC000201266B0101DEA50AD0020112510008A7
:101CDC0002E2120702D0090E126F010E146F0101FD
:101CEC00DEA109D0090E0201125D02E2122B01D015
:101CFC00126B010E146F0101DEA303D0030E02015F
:041D0C00146F12003E
:101D10000900F5CFE6FF0006FBE10106F9E112003C
:101D20000101C2510008D8A0C207BE510008D8A0C6
:041D3000BE071200D8
:101D3400600ED36E9B8C0F015D6B5C6B806A816A55
:101D4400826A836A846AD70E926EC00E936EBD0E49
:101D5400946E700E956E0F0E966E810ED56E630E98
:101D6400D76EBF0ED66EF28EF28A76EC07F00C0EAA
:101D740003015C6F67EC00F0150E0B6E4B0E0C6EDE
:101D8400BE0E0D6E0D2EFED70C2EFCD70B2EFAD7E1
:101D94000000808ACF0EAF6EAC844AEC07F09E9AA6
:101DA4009D8A9F8AF28C340E03012A6F040E2B6FD6
:101DB400000E2C6F000E2D6F5A0E2E6F020E2F6F19
:101DC400510E306F030E316F500E326F040E336FAD
:101DD400000E346F000E356F460E366F040E376FEB
:101DE400000E386F000E396F29EC07F0500E2A6F81
:101DF400020E2B6FD9EC07F0020E266F82EC02F074
:0A1E0400DBC151F376EC01F012008F
:101E0E0037C200F038C201F043EC03F0005201E19A
:101E1E002BD133C200F034C201F043EC03F000C00A
:101E2E0047F206D102014751960A03E1020E326FC4
:101E3E00466B1AD147513F1904E04751320A01E06F
:101E4E0005D0030E326F4751461B02D0010E326F82
:101E5E000BD1405309E0400E4715016E0150000AA8
:101E6E0003E1010E326F00D147AF13D0040E326F73
:101E7E0047C24EF24751461B030E4715016E01C075
:101E8E0048F20150000A02E1050E326F010E456F55
:101E9E000CD0050E03015D25E16E000E5E21E26E93
:101EAE00FF0EE66E010E0201326FDED04751A90A17
:101EBE000DE1050E03015D25E16E000E5E21E26E61
:101ECE00FF0EE66E010E0201326FCED04551485D17
:101EDE00006E016A000E015A0050011013E0450514
:101EEE00006E016A000E015A005003015D25E16E7D
:101EFE0001505E21E26E47C2E6FF02014751461BCA
:101F0E00452B13D04505006E016A000E015A005094
:101F1E0003015D25E16E01505E21E26E47C2E6FFD0
:101F2E00050E0201326F4751461B9ED0461D016EB3
:101F3E0001C046F20150960A04E04651A90A01E09A
:101F4E0001D0462B4651471903E1060E326F0CD0D5
:101F5E00050E03015D25E16E000E5E21E26EFF0EA1
:101F6E00E66E010E0201326F7FD04751A90A43E19E
:101F7E00010E326F040E03015D25E16E000E5E212F
:101F8E00E26EFF0EE66E030E5D25E16E000E5E2123
:101F9E00E26E48C2E6FF010E0201456F4551485DF3
:101FAE0029E345C201F0020E006E015004E0003636
:101FBE000090FF0FFBD74E51001619E04505006E3D
:101FCE00016A000E015A005003015D25026E015098
:101FDE005E21036E02C0E9FF03C0EAFF010EEE1898
:101FEE00006E02C0E1FF03C0E2FF00C0E6FF020187
:101FFE00452BD4D70CD0050E03015D25E16E000EE6
:10200E005E21E26EFF0EE66E010E0201326F2CD0E3
:10201E00050E03015D25E16E000E5E21E26EFF0EE0
:10202E00E66E010E0201326F1FD0010E326F1CD010
:10203E0002013251010AD8B4F5D63251020AD8B48F
:10204E00F9D63251030AD8B404D73251040AD8B49F
:10205E002DD73251050AD8B469D73251060A85E018
:0A206E003251070AD5E0E1D7120055
:10207800500E0301456F020E466F040E476F4FEC7A
:1020880003F00052D8A48380500E456F020E466FAD
:10209800050E476F4FEC03F00052D8A48390500E02
:1020A800456F020E466F060E476F4FEC03F0005265
:1020B800D8A48382500E456F020E466F070E476FF5
:1020C8004FEC03F00052D8A48392500E456F020ED5
:1020D800466F080E476F4FEC03F00052D8A4838672
:1020E800500E456F020E466F090E476F4FEC03F016
:1020F8000052D8A48396500E456F020E466F010E0B
:10210800476F4FEC03F00052D8A4476A500E456F52
:10211800020E466F020E476F4FEC03F00052D8A430
:10212800486A2651020A17E1475215E0485213E15E
:1021380091EC0BF0010E486E500E0301456F020E34
:10214800466F060E476F000E486F496F4A6F020EC2
:102158004B6FBAEC02F02651040A17E1475215E01A
:10216800485213E173EC09F0010E486E500E03015A
:10217800456F020E466F060E476F000E486F496F97
:0C2188004A6F020E4B6FBAEC02F012001E
:1021940012D00101DEA304D0010E0201146F126BF0
:1021A40043EC08F015D03FEC08F012D08DDD10D0D0
:1021B40058EC0CF00DD002011451000AEAE014515D
:1021C400010AF1E01451020AF1E01451030AF0E0AB
:0221D4001200F7
:1021D6000201265373E026C249F20101B15337E0EA
:1021E600020E03012A6F010E2B6F3E0E2C6F41EC7F
:1021F60009F0020E03012A6F020E2B6F3E0E2C6FA2
:1022060041EC09F0020E03012A6F030E2B6F3E0EFE
:102216002C6F41EC09F0020E03012A6F100E2B6F92
:102226003C0E2C6F41EC09F0020E03012A6F0F0ED3
:102236002B6F3C0E2C6F41EC09F0020E03012A6F46
:102246000E0E2B6F3C0E2C6F41EC09F036D0020EB1
:1022560003012A6F010E2B6F200E2C6F41EC09F043
:10226600020E03012A6F020E2B6F200E2C6F41EC1B
:1022760009F0020E03012A6F030E2B6F200E2C6F3E
:1022860041EC09F0020E03012A6F100E2B6F200E8F
:102296002C6F41EC09F0020E03012A6F0F0E2B6F13
:1022A600200E2C6F41EC09F0020E03012A6F0E0E70
:1022B6002B6F200E2C6F41EC09F03AD0495336E0D3
:1022C600020E03012A6F010E2B6F200E2C6F41ECBC
:1022D60009F0020E03012A6F020E2B6F200E2C6FDF
:1022E60041EC09F0020E03012A6F030E2B6F200E3C
:1022F6002C6F41EC09F0020E03012A6F100E2B6FB2
:10230600200E2C6F41EC09F0020E03012A6F0F0E0E
:102316002B6F200E2C6F41EC09F0020E03012A6F81
:102326000E0E2B6F200E2C6F41EC09F0B1C149F255
:02233600120093
:1023380011D0E0EC0AF021D08DDC1FD014EC0CF0A9
:102348001CD00BEC0BF019D063EC0DF016D0F6ECAA
:1023580009F013D002012751000AEBE02751010AC6
:10236800EBE02751020AEAE02751030AEAE0275185
:0C237800040AEAE02751050AEAE012001E
:102384000301276B286B83BC02D0278101D02791DE
:1023940080BA02D0278301D0279383B802D027853F
:1023A40001D02795F6D003012751000A0EE0010160
:1023B400C251000A0AE127C328F3010EC26F640E5A
:1023C400BE6F010EC16F27C3BCF1F6D00101C2512B
:1023D400000A0AE103012751000A06E1286B010102
:1023E400BC6B010EC26FC16B0101C251000A10E146
:1023F400030127510101BC190BE1BE51000A08E198
:1024040027C328F3020EC16F060EBE6F0A0EBD6FFE
:10241400C251000A10E1030127510101BC190BE06C
:1024240003012751000A07E027C328F327C3BCF19F
:10243400010E0101C26FC0D0030127510101BC1973
:102444000BE1BE51000A08E1BD51000805E227C3B3
:1024540028F3060EBE6FBD07030127510101BC1905
:102464000EE1BE51000A0BE1BD51000A08E127C389
:1024740028F3060EBE6F0A0EBD6F030EC16F030173
:1024840027510101BC190FE003012751000A0BE099
:1024940027C328F327C3BCF1010E0101C26F640EE8
:1024A400BE6F010EC16F03012751000A06E1286BBC
:1024B4000101BC6B010EC26FC16B7ED003012751B9
:1024C4000101BC190BE1BE51000A08E1BD5100082D
:1024D40005E227C328F3060EBE6FBD07030127518B
:1024E4000101BC190CE1BE51000A09E1BD51000A09
:1024F40006E127C328F3060EBE6F040EC16F030165
:1025040027510101BC190FE003012751000A0BE018
:1025140027C328F327C3BCF1010E0101C26F640E67
:10252400BE6F010EC16F03012751000A06E1286B3B
:102534000101BC6B010EC26FC16B3ED00301275178
:102544000101BC1907E1BE51000A04E127C328F3C5
:10255400060EBE6F030127510101BC190FE00301F0
:102564002751000A0BE027C328F327C3BCF1010E4F
:102574000101C26F640EBE6F010EC16F03012751CA
:10258400000A06E1286B0101BC6B010EC26FC16B2E
:1025940013D00101C151000AD8B405D7C151010AB1
:1025A400D8B414D7C151020AD8B446D7C151030ACA
:0E25B40085E0C151040AC2E028C300F0120005
:1025C20002012C536DE02C6B64D01DC043F01EC081
:1025D20044F01FC045F020C046F0010E476E500E79
:1025E2000301456F020E466F010E476F72EC05F054
:1025F200500E456F020E466FD5C147F3000E486F6D
:10260200496F4A6F010E4B6FBAEC02F0C80E02011D
:10261200286F0B0E0C6E620E0D6E0D2EFED70C2E59
:10262200FCD70000280E03012A6F020E2B6F010E49
:102632002C6F17EC0AF0838E33D0DC0E0201286F68
:1026420003012651020A04E02651040A01E003D0E4
:10265200C80E0201286F03012651010A04E0265127
:10266200030A01E003D0D20E0201286F0B0E0C6E9A
:10267200620E0D6E0D2EFED70C2EFCD70000280E1A
:1026820003012A6F020E2B6F010E2C6F17EC0AF05A
:1026920007D002012851010A98E02851020ACDE030
:0226A200120024
:1026A400D20E03012725E96E000E2821EA6EEECF33
:1026B40001F0EECF02F0EECF03F0EECF04F00450C1
:1026C400FF0A08E10350FF0A05E10250FF0A02E194
:1026D4000150FF0A23E0D20E2725046E000E2821A4
:1026E400056E04C0E9FF05C0EAFF010EEE24006E8A
:1026F400000EEE20016E000EEE20026E000EEE20A3
:10270400036E04C0E1FF05C0E2FF00C0E6FF01C0A4
:10271400E6FF02C0E6FF03C0E6FF0AD0D20E27257B
:10272400E16E000E2821E26EE66AE66AE66AE66A6F
:02273400120091
:102736000301296B296B1E0E295DD8B07CD0070ECC
:10274600006E000E016E29C304F0000E056ED9EC72
:1027560001F02751002628510122050E0024E96EBA
:10276600000E0120EA6EEE50000A63E1070E006ECD
:10277600000E016E29C304F0000E056ED9EC01F0BF
:102786002751002628510122010E0024E96E000E71
:102796000120EA6EEECF05F0EECF06F0EECF07F0A1
:1027A600EECF08F0D20E2725D96E000E2821DA6E5C
:1027B600DECF01F0DECF02F0DECF03F0DECF04F095
:1027C6000850041808E10750031805E106500218DE
:1027D60002E1055001182DE1070E006E000E016E94
:1027E60029C304F0000E056ED9EC01F0275100262E
:1027F60028510122060E0024E96E000E0120EA6E21
:10280600EE50000A16E1070E006E000E016E29C397
:1028160004F0000E056ED9EC01F027510026285170
:102826000122060E0024E16E000E0120E26E010E6A
:08283600E66E292B80D7120089
:10283E0097EC15F09AEC0EF0010E0301516F010E9C
:10284E00526F8E0E536F010E546F34EC01F0020E68
:10285E000301516F010E526F9F0E536F010E546F95
:10286E0034EC01F00101B0530AE090EC0EF0DD51B2
:10287E00000803E2DD07808601D08096B06BBB5363
:10288E0027E0000E006EC051005C02E1BF5100084F
:10289E0005E2010EBF5F000EC05B01D0809AB153FE
:1028AE00010ED8A4000EB16F8FDC010E1D26000E96
:1028BE001E221F222022500E0301276F020E286FA8
:1028CE00EADE500E276F020E286F2EDF0101BB6B62
:1028DE0052DD00C0DEF10050000A07E0680E010173
:1028EE00BF6F010EC06F030EDD6F02011351000AA0
:1028FE0001E149DC1ADD5EDE3CEC10F0000E006EEC
:10290E000101C051005C02E1BF510008D8A0808ACD
:04291E00A9D7FFD75F
:102B2E0010EE1DF00B0E006E030E016E220EF66EF1
:0E2B3E00290EF76E000EF86E88EC0EF01200F5
:0429220000000000B1
:102926002020202020436C6F736564202020202007
:0129360000A0
:1029370020202020496E76616C69642020202020A9
:01294700008F
:04294800000000008B
:01294C00008A
:01294D000089
:04294E000000000085
:1029520020202020436C6F73696E67202020202086
:012962000074
:10296300202020204F70656E6E696E672020202026
:012973000063
:042974004C433A0096
:10297800202020204F70656E6E696E672020202011
:01298800004E
:1029890020202020204F70656E65642020202020A3
:01299900003D
:10299A0020202020496E76616C6964202020202046
:0129AA00002C
:1029AB00202020204F70656E6E696E6720202020DE
:0129BB00001B
:1029BC0020202053746172742F53746F7020202068
:0129CC00000A
:1029CD002020204F70656E2F436C6F736520202083
:0129DD0000F9
:1029DE003720495220696E204D6F646520202020DB
:0129EE0000E8
:1029EF003620576F726B696E67204D6F64652020BC
:0129FF0000D7
:102A00003320496E76616C69642054696D652020BD
:012A100000C5
:102A110034204175746F636C6F73652054696D6503
:012A210000B4
:102A220035204E65742041646472657373202020E2
:012A320000A3
:102A3300202020202020204E432020202020202042
:012A43000092
:102A4400313020446973636172642045786974206D
:012A54000081
:042A55002E357300A7
:042A59002E307300A8
:022A5D00C301B3
:102A5F00202020202020204E4F202020202020200A
:012A6F000066
:102A7000382043617220506173732054696D652062
:012A80000055
:102A8100392053617665204368616E676573202044
:012A91000044
:012A92000043
:102A930020202020205374617274212020202020C4
:012AA3000032
:102AA4002020202020202020202020202020202022
:012AB4000021
:012AB5000020
:012AB600001F
:032AB700482000B4
:032ABA004D2000AC
:032ABD00532000A3
:012AC0000015
:012AC1000014
:012AC2000013
:012AC3000012
:022AC4006801A7
:012AC600000F
:012AC700000E
:102AC80020202020202020202020202020202020FE
:012AD80000FD
:012AD90000FC
:012ADA0000FB
:012ADB0000FA
:012ADC0000F9
:012ADD000AEE
:012ADE000AED
:012ADF0001F5
:012AE00000F5
:012AE10014E0
:012AE20005EE
:012AE30000F2
:102AE40020202020202020202020202020202020E2
:012AF40000E1
:102AF5003220436C6F73696E672054696D652020C1
:012B050000CF
:102B060031204F70656E6E696E672054696D652061
:012B160000BE
:012B170000BD
:012B180000BC
:012B190000BB
:102B1A00202020204F70656E6E696E67202020206D
:012B2A0000AA
:012B2B0000A9
:012B2C0000A8
:020000040030CA
:0E00000015187F7CFF8991FF0FC00FE00F40A5
:0200000400F00A
:10000000141402280A00000F000000000000000085
:10001000FFFFFFFFFFFFFFFFFFFFFFFFFFFFFFFFF0
:10002000FFFFFFFFFFFFFFFFFFFFFFFFFFFFFFFFE0
:10003000FFFFFFFFFFFFFFFFFFFFFFFFFFFFFFFFD0
:10004000FFFFFFFFFFFFFFFFFFFFFFFFFFFFFFFFC0
:00000001FF
