:0400000024EF15F0E4
:1000080000C018F001C017F002C016F003C015F0C8
:10001800E1CF1BF0E2CF1CF0E9CF19F0EACF1AF0DC
:10002800F2A410D0F2AA0ED0010E3D6E462A190E87
:10003800465C03E3010E2E6E466A630ED76EBF0E52
:10004800D66EF2949DAA0AD09EAA08D0320E02015A
:10005800BA6F010EBB6F81EC10F09E9A18C000F0C9
:1000680017C001F016C002F015C003F019C0E9FF6F
:0E0078001AC0EAFF1BC0E1FF1CC0E2FF11002E
:0A008600850E0D6E0D2EFED7120040
:100090003A0E0C6E230E0D6E0D2EFED70C2EFCD7D5
:0200A00012004C
:0C00A200020E0D6E0D2EFED700001200A5
:1000AE00086A080E0C6E003408360450085ED8B08C
:0E00BE0002D00826D89000360C2EF5D712007E
:1000CC000201B9BF02D0819601D08186B9BD02D0A0
:1000DC00819401D08184B9BB02D0819201D08182FC
:1000EC00B9B902D0819001D08180010131B102D027
:1000FC00818A01D0819A8188CEDF81980201B9B7BB
:10010C0002D0819601D08186B9B502D0819401D0FC
:10011C008184B9B302D0819201D08182B9B102D06D
:10012C00819001D08180010131B102D0818A01D04E
:10013C00819A8188B0DF819831A102D0A3DF01D0F0
:04014C009CDF120022
:0E01500001013191B3C2B9F2B9DF3181120061
:10015E00B5C204F0B6C205F0B3C202F0B4C203F0E9
:10016E00B7C200F0B8C201F0010E0201B75F000E77
:10017E00B85B005001100FE004C0E9FF05C0EAFFB4
:10018E0002C0E1FF03C0E2FFEECFE6FF024A032A00
:10019E00044A052AE5D7B3C200F0B4C201F012003A
:1001AE000201B66B030EB65D0AE2B651B425E16EDE
:1001BE00000EB521E26E200EE66EB62BF3D7B651C9
:1001CE00B425E16E000EB521E26EE66AB607B651B1
:1001DE00B425B76F000EB521B86F0A0E046EB3C208
:1001EE0000F05EDF08C000F0300E0026B7C2E1FF5F
:1001FE00B8C2E2FF00C0E6FF0A0E046EB3C200F002
:10020E004FDF00C0B3F20050000A01E102D0B60782
:04021E00DED7120015
:1002220094928292010E01014E6F2F6BA8C230F19F
:100232000201A851960A04E0A851A90A01E006D0D9
:0E024200010EA8190101306FFF0E2F6F120080
:1002500010D0800E0201A86F1AD0C00EA86F17D060
:10026000940EA86F14D0D40EA86F11D0800EA86F72
:100270000ED00201A851010AECE0A851020AEDE0FB
:10028000A851030AEDE0A851040AEDE0EFD7A90553
:10029000006EA851002600C0A8F200C0B9F216DF17
:1002A00031910201AC6BAC51AA25E96E000EAB2175
:1002B000EA6EEE520CE0AC51AA25E96E000EAB21BD
:1002C000EA6EEECFB3F244DF0201AC2BECD70101B2
:0402D0003181120066
:1002D4000B6A0A6A096A00500402F4CF09F0F3CFEA
:1002E40008F001500502F4CF0BF0F3CF0AF00050F0
:1002F4000502F3500926F4500A22E86A0B22015041
:100304000402F3500926F4500A22E86A0B2208C0BA
:1003140000F009C001F00AC002F00BC003F01200A3
:100324000900F5CFE6FF0006FBE10106F9E1120042
:10033400A8C2C9FFC7B002D00000FCD7C9CF00F0E3
:020344001200A5
:0C034600BAB201D0FDD7A8C279FF1200A6
:100352007F9CA9C275FFA8C274FF7F9E7F8073CF66
:0403620000F0120095
:10036600086A096A100E0C6E013408360936045004
:10037600085E0550D8A0053C095ED8B007D00450E9
:1003860008260550D8B0053C0926D8900036013617
:060396000C2EEAD7120054
:10039C00A8C2B3F20201B333B39FA9C2B4F2AAC28A
:1003AC00B5F2FFDE010EA815016E0150010A17E12E
:1003BC00030EA925B36F000EAA21B46F2E0EAB6FDE
:1003CC00350EAC6F730EAD6FAE6BAB0EB56F020E20
:1003DC00B66F040EB76F000EB86FBBDE16D0030EEF
:1003EC00A925B36F000EAA21B46F2E0EAF6F300E7D
:1003FC00B06F730EB16FB26BAF0EB56F020EB66FFE
:0C040C00040EB76F000EB86FA4DE1200E3
:100418007FA202D00000FCD77F9CA9C275FFA8C2AA
:1004280074FFAAC273FF7F9E7F84F2CF00F0F29E12
:10043800550E7E6EAA0E7E6E7F8200BE02D0F29EA0
:0804480001D0F28E7F94120036
:0E045000ACB202D00000FCD7A8C2ADFF120073
:0A045E00000EACB2010E006E120099
:0A046800000E9EBA010E006E120095
:10047200AECF01F0ABA202D0AB98AB8801C000F0C6
:02048200120066
:0A048400000EBAB2010E006E120065
:0A048E00000EA4BA010E006E120069
:100498007ACF01F0A6A202D0A698A68801C000F0E3
:0204A800120040
:1004AA000B6A0A6A096A086A0E6A03340836045033
:1004BA00085E0550D8A0053C095E0650D8A0063C47
:1004CA000A5E0750D8A0073C0B5EE86AD8A0010E66
:1004DA000E5E0336070E0C6E0334083609360A36EA
:1004EA000B360E36045003A012D0085E0550D8A071
:1004FA00053C095E0650D8A0063C0A5E0750D8A003
:10050A00073C0B5EE86AD8A0010E0E5E11D00826E1
:10051A000550D8B0053C09260650D8B0063C0A2634
:10052A000750D8B0073C0B26E86AD8B0010E0E2651
:10053A0003360C2ED1D70234083609360A360B3662
:10054A000E36045003A012D0085E0550D8A0053C10
:10055A00095E0650D8A0063C0A5E0750D8A0073CA0
:10056A000B5EE86AD8A0010E0E5E11D0082605506F
:10057A00D8B0053C09260650D8B0063C0A260750D2
:10058A00D8B0073C0B26E86AD8B0010E0E26023610
:10059A00070E0C6E0234083609360A360B360E364A
:1005AA00045002A012D0085E0550D8A0053C095E8E
:1005BA000650D8A0063C0A5E0750D8A0073C0B5E3E
:1005CA00E86AD8A0010E0E5E11D008260550D8B0F0
:1005DA00053C09260650D8B0063C0A260750D8B072
:1005EA00073C0B26E86AD8B0010E0E2602360C2EFE
:1005FA00D1D70134083609360A360B360E3604507E
:10060A0002A012D0085E0550D8A0053C095E06502B
:10061A00D8A0063C0A5E0750D8A0073C0B5EE86AE1
:10062A00D8A0010E0E5E11D008260550D8B0053CA0
:10063A0009260650D8B0063C0A260750D8B0073C0F
:10064A000B26E86AD8B0010E0E260136070E0C6E8C
:10065A000134083609360A360B360E36045001A024
:10066A0012D0085E0550D8A0053C095E0650D8A0F5
:10067A00063C0A5E0750D8A0073C0B5EE86AD8A081
:10068A00010E0E5E11D008260550D8B0053C092689
:10069A000650D8B0063C0A260750D8B0073C0B26AD
:1006AA00E86AD8B0010E0E2601360C2ED1D70034D6
:1006BA00083609360A360B360E36045001A012D017
:1006CA00085E0550D8A0053C095E0650D8A0063C35
:1006DA000A5E0750D8A0073C0B5EE86AD8A0010E54
:1006EA000E5E11D008260550D8B0053C09260650E2
:1006FA00D8B0063C0A260750D8B0073C0B26E86A51
:10070A00D8B0010E0E260036070E0C6E00340836DD
:10071A0009360A360B360E36045000A012D0085E8F
:10072A000550D8A0053C095E0650D8A0063C0A5ED2
:10073A000750D8A0073C0B5EE86AD8A0010E0E5EEF
:10074A0011D008260550D8B0053C09260650D8B065
:10075A00063C0A260750D8B0073C0B26E86AD8B0F0
:10076A00010E0E2600360C2ED1D700B00ED0045042
:10077A0008260550D8B0053C09260650D8B0063CD4
:0C078A000A260750D8B0073C0B261200CE
:100796000101B46BB56BB46B1E0EB45D6AE2B1C1F8
:1007A600B6F1B2C1B7F1070E006E000E016EB4C10C
:1007B60004F0000E056E8BDDB6510026B7510122FE
:1007C600050E0024E96E000E0120EA6EEE50000AC6
:1007D6004EE1B1C1B6F1B2C1B7F1070E006E000E1F
:1007E600016EB4C104F0000E056E71DDB65100262F
:1007F600B7510122060E0024E96E000E0120EA6EB2
:10080600EE50010A34E1B1C1B6F1B2C1B7F1070E3B
:10081600006E000E016EB4C104F0000E056E57DDC9
:100826000050B625E96E0150B721EA6EEECF01F011
:100836000150B3191CE1B1C1B6F1B2C1B7F1070E4F
:10084600006E000E016EB4C104F0000E056E3FDDB1
:10085600B6510026B7510122050E0024E16E000EA6
:100866000120E26E010EE66E010EB56F02D0B42BCA
:0808760093D7B5C100F0120098
:10087E000201A86BA96B66DD00C027F0010EA86F00
:10088E00000EA96F5FDD00C025F0020EA86F000EEE
:10089E00A96F58DD00C026F0030EA86F000EA96FD9
:1008AE0051DD00C028F0040EA86F000EA96F4ADDBE
:1008BE0000C02BF0050EA86F000EA96F43DD00C01F
:1008CE002CF0060EA86F000EA96F3CDD00C029F0BB
:0208DE00120006
:1008E0000101B56B050EB55D0AE2B551B325E16EA8
:1008F000000EB421E26E200EE66EB52BF3D7B55193
:10090000B325E16E000EB421E26EE66AB507B5517B
:10091000B325B66F000EB421B76F0A0E046E000E39
:10092000056EB1C100F0B2C101F01DDD08C000F0DC
:1009300009C001F0300E0026B6C1E1FFB7C1E2FFE9
:1009400000C0E6FF0A0E046E000E056EB1C100F095
:10095000B2C101F008DD00C0B1F101C0B2F1000E7A
:10096000011802E1000E001801E102D0B507CFD74F
:02097000120073
:100972009E0E0201B36F020EB46F600EF66E2B0E66
:10098200F76E000EF86EB10EE16E010EE26E110E00
:10099200006E010E016EC5DCB10EB56F010EB66FB1
:1009A2000A0EB76F000EB86FAFEC00F0010EB96F10
:1009B20066EC00F0DAD1010E0201A86F010EA96FF8
:1009C200710EF66E2B0EF76E000EF86EC20EE16E11
:1009D200010EE26E110E006E010E016EA2DCC20E5D
:1009E200AA6F010EAB6F33DC27C0A8F29E0E020184
:1009F200A96F020EAA6FD1DC020EA86F050EA96FB5
:100A02009E0EAA6F020EAB6F22DCD1D1010E020143
:100A1200A86F010EA96F820EF66E2B0EF76E000EF6
:100A2200F86ED30EE16E010EE26E110E006E010E33
:100A3200016E77DCD30EAA6F010EAB6F08DC25C006
:100A4200A8F29E0E0201A96F020EAA6FA6DC020E88
:100A5200A86F050EA96F9E0EAA6F020EAB6F28EC4F
:100A620001F0A5D1010E0201A86F010EA96F930E2C
:100A7200F66E2B0EF76E000EF86EE40EE16E010EAE
:100A8200E26E110E006E010E016E4BDCE40EAA6FD7
:100A9200010EAB6F28EC01F026C0A8F29E0E0201F7
:100AA200A96F020EAA6F79DC020EA86F050EA96F5C
:100AB2009E0EAA6F020EAB6F28EC01F078D1010EE8
:100AC2000201A86F010EA96FA40EF66E2B0EF76E2F
:100AD200000EF86EF50EE16E010EE26E110E006E62
:100AE200010E016E1EDCF50EAA6F010EAB6F28EC33
:100AF20001F028C0A8F29E0E0201A96F020EAA6F91
:100B02004CDC020EA86F050EA96F9E0EAA6F020E94
:100B1200AB6F28EC01F04BD1010E0201A86F010E60
:100B2200A96FB50EF66E2B0EF76E000EF86E060E5E
:100B3200E16E020EE26E110E006E010E016E92EC7B
:100B420001F0060EAA6F020EAB6F28EC01F02BC06B
:100B5200B3F29E0E0201B46F020EB56FD7EC00F035
:100B6200020EA86F050EA96F9E0EAA6F020EAB6F42
:100B720028EC01F01CD1010E0201A86F010EA96F31
:100B8200C60EF66E2B0EF76E000EF86E170EE16EA5
:100B9200020EE26E110E006E010E016E92EC01F079
:100BA200170EAA6F020EAB6F28EC01F02C50000A50
:100BB2001CE1020E0201A86F010EA96FD70EF66E9C
:100BC2002B0EF76E000EF86E280EE16E020EE26E2C
:100BD200110E006E010E016E92EC01F0280EAA6F4A
:100BE200020EAB6F28EC01F01BD0020E0201A86FBF
:100BF200010EA96FE80EF66E2B0EF76E000EF86E60
:100C0200390EE16E020EE26E110E006E010E016EE1
:100C120092EC01F0390EAA6F020EAB6F28EC01F0D4
:100C2200C6D0010E0201A86F010EA96FF90EF66E71
:100C32002B0EF76E000EF86E4A0EE16E020EE26E99
:100C4200100E006E010E016E92EC01F04A0EAA6FB8
:100C5200020EAB6F28EC01F02950000A1CE1020ED3
:100C62000201A86F010EA96F090EF66E2C0EF76E27
:100C7200000EF86E5A0EE16E020EE26E110E006E5A
:100C8200010E016E92EC01F05A0EAA6F020EAB6FCA
:100C920028EC01F01BD0020E0201A86F010EA96F11
:100CA2001A0EF66E2C0EF76E000EF86E6B0EE16EDB
:100CB200020EE26E110E006E010E016E92EC01F058
:100CC2006B0EAA6F020EAB6F28EC01F070D0010E12
:100CD2000201A86F010EA96F2B0EF66E2C0EF76E95
:100CE200000EF86E7C0EE16E020EE26E110E006EC8
:100CF200010E016E92EC01F07C0EAA6F020EAB6F38
:100D020028EC01F0020E0201A86F010EA96F23C0A8
:100D1200AAF224C0ABF228EC01F049D0010E020184
:100D2200A86F010EA96F3C0EF66E2C0EF76E000E28
:100D3200F86E8D0EE16E020EE26E110E006E010E65
:100D4200016E92EC01F08D0EAA6F020EAB6F28ECD1
:100D520001F0020E0201A86F010EA96F23C0AAF2D0
:100D620024C0ABF228EC01F022D02250000AD8B401
:100D720022D62250010AD8B449D62250020AD8B447
:100D820071D62250030AD8B49AD62250040AD8B493
:100D9200C3D62250050AD8B4EED62250060AD8B4D9
:100DA20040D72250070A93E02250080AB7E0120007
:100DB200F250026EF29E0500FF6A0150FE6E005074
:080DC200FD6E02BEF28E12006C
:100DCA000101B96BBA6BBB6BBC6BD20EB125E96E74
:100DDA00000EB221EA6EB351EE24B96FB451EE207F
:100DEA00BA6FB551EE20BB6FB651EE20BC6FB86B2F
:100DFA001E0EB85DD8B086D0B1C1BDF1B2C1BEF188
:100E0A00070E006E000E016EB8C104F0000E056EEA
:100E1A006AEC01F0BD510026BE510122050E0024E4
:100E2A00E96E000E0120EA6EEE50010A69E1B1C1D5
:100E3A00BDF1B2C1BEF1070E006E000E016EB8C15F
:100E4A0004F0000E056E6AEC01F00050BD25E16E5B
:100E5A000150BE21E26EB7C1E6FFB1C1BDF1B2C118
:100E6A00BEF1070E006E000E016EB8C104F0000E4E
:100E7A00056E6AEC01F0BD510026BE510122010E39
:100E8A000024E16E000E0120E26EB9C1E6FFBAC18C
:100E9A00E6FFBBC1E6FFBCC1E6FFB1C1BDF1B2C10D
:100EAA00BEF1070E006E000E016EB8C104F0000E0E
:100EBA00056E6AEC01F0BD510026BE510122050EF5
:100ECA000024E16E000E0120E26EE66AB1C1BDF1B6
:100EDA00B2C1BEF1070E006E000E016EB8C104F079
:100EEA00000E056E6AEC01F0BD510026BE510122CA
:100EFA00060E0024E16E000E0120E26EE66A02D0C0
:060F0A00B82B76D712009F
:100F10000201A86BA96B27C0AAF20CEC02F0010E2B
:100F20000201A86F000EA96F25C0AAF20CEC02F016
:100F3000020E0201A86F000EA96F26C0AAF20CECE7
:100F400002F0030E0201A86F000EA96F28C0AAF2DA
:100F50000CEC02F0040E0201A86F000EA96F2BC06A
:100F6000AAF20CEC02F0050E0201A86F000EA96FA8
:100F70002CC0AAF20CEC02F0060E0201A86F000EC3
:100F8000A96F29C0AAF20CEC02F02BC0A8F211EC58
:040F900001F012005A
:100F94000101B46B1E0EB45D50E2B1C1B5F1B2C132
:100FA400B6F1070E006E000E016EB4C104F0000E1F
:100FB400056E6AEC01F0B5510026B6510122050E0A
:100FC4000024E96E000E0120EA6EEE50000A33E1BF
:100FD400B1C1B5F1B2C1B6F1070E006E000E016EDB
:100FE400B4C104F0000E056E6AEC01F00050B525A2
:100FF400E96E0150B621EA6EEECF01F00150B3194B
:101004001AE1B1C1B5F1B2C1B6F1070E006E000E1E
:10101400016EB4C104F0000E056E6AEC01F0B55126
:101024000026B6510122050E0024E16E000E0120B7
:0C103400E26E010EE66EB42BADD7120088
:101040007EC146F17FC147F180C148F181C149F1BC
:1010500082C14FF183C150F184C151F185C152F178
:1010600086C14AF187C14BF188C14CF189C14DF16C
:101070008AC153F18BC154F18CC155F18DC156F128
:0210800012005C
:10108200500E01014F6F040E506FA80E516F020EE9
:10109200526F720E466F040E476F000E486F000EBD
:1010A200496F680E4A6F040E4B6F000E4C6F000EB4
:1010B2004D6F5E0E536F040E546F000E556F000E8F
:1010C200566FAC8A900EAB6E948E949C9EAA03D0FF
:0810D200AECF00F0FBD71200C5
:1010DA009398939A93909392939493968198819AE2
:1010EA00819681948192819048EC00F048EC00F05E
:1010FA0048EC00F081828180818851EC00F081986F
:10110A0048EC00F0818851EC00F0819848EC00F03E
:10111A00818851EC00F0819848EC00F08190818838
:10112A0051EC00F0819848EC00F0818851EC00F015
:10113A00819881928186818851EC00F0819848ECEF
:10114A0000F081968180818851EC00F0819881902D
:10115A00818851EC00F0819848EC00F0818851ECCC
:10116A0000F081988180818851EC00F0819848ECE8
:10117A0000F08190818851EC00F081988186818409
:10118A0081828180818851EC00F0819848EC00F0DE
:06119A0001013181120089
:1011A0000101806B1E0E805D66E27EC181F17FC110
:1011B00082F1070E006E000E016E80C104F0000E79
:1011C000056E6AEC01F000508125E16E015082212C
:1011D000E26EE66A7EC181F17FC182F1070E006E88
:1011E000000E016E80C104F0000E056E6AEC01F085
:1011F0008151002682510122010E0024E16E000E71
:101200000120E26EE66AE66AE66AE66A7EC181F17C
:101210007FC182F1070E006E000E016E80C104F0E6
:10122000000E056E6AEC01F0815100268251012208
:10123000050E0024E16E000E0120E26E010EE66E46
:101240007EC181F17FC182F1070E006E000E016E3A
:1012500080C104F0000E056E6AEC01F08151002699
:1012600082510122060E0024E16E000E0120E26E82
:10127000E66A802B97D7D20E7E25E16E000E7F2185
:0C128000E26EE66AE66AE66AE66A1200C0
:0A128C00B9EC04F0020E1E6E120011
:1012960010D0800E01017E6F1AD0C00E7E6F17D05F
:1012A600940E7E6F14D0D40E7E6F11D0800E7E6F9A
:1012B6000ED001017E51010AECE07E51020AEDE0FA
:1012C6007E51030AEDE07E51040AEDE0EFD77F057B
:1012D600006E7E51002600C07EF1318100C0B9F259
:1012E60066EC00F0319180C1B9F266EC00F0318114
:0212F6001200E4
:1012F8003EC005F03FC006F040C007F041C008F00E
:101308003850055E3950065A3A50075A3B50085A29
:1013180005C001F006C002F007C003F008C004F0E1
:101328000432033202320132049E01C07EF102C04F
:101338007FF103C080F104C081F1045001013F191D
:1013480008E103503E1905E102503D1902E1015040
:101358003C19D8B4DAD07EC13CF17FC13DF180C1DF
:101368003EF181C13FF13C0E046E000E056E066E23
:10137800076E7EC100F07FC101F080C102F081C11B
:1013880003F055EC02F008C000F009C001F00AC0F3
:1013980002F00BC003F000C083F13C0E046E000E97
:1013A800056E066E076E7EC100F07FC101F080C138
:1013B80002F081C103F055EC02F000C07EF101C0DB
:1013C8007FF102C080F103C081F13C0E046E000E73
:1013D800056E066E076E55EC02F008C000F009C0F5
:1013E80001F00AC002F00BC003F000C082F13C0E0D
:1013F800046E000E056E066E076E7EC100F07FC19A
:1014080001F080C102F081C103F055EC02F000C088
:10141800B1F101C0B2F1860EB36F010EB46F70EC7A
:1014280004F082C1B3F28C0E0201B46F010EB56FE5
:10143800D7EC00F083C1B3F2900EB46F010EB56F14
:10144800D7EC00F0840EB36F010EB46F4C0E01019F
:10145800956F430E966F3A0E976F986B950E020133
:10146800B56F010EB66F030EB76F000EB86FAFEC15
:1014780000F08B0EB36F010EB46F480E0101996F27
:10148800200E9A6F9B6B990E0201B56F010EB66F15
:10149800020EB76F000EB86FAFEC00F08F0EB36F8F
:1014A800010EB46F4D0E01019C6F200E9D6F9E6B57
:1014B8009C0E0201B56F010EB66F020EB76F000EDB
:1014C800B86FAFEC00F0930EB36F010EB46F530E0C
:1014D80001019F6F200EA06FA16B9F0E0201B56FD7
:1014E800010EB66F020EB76F000EB86FAFEC00F0CA
:1014F8000101946B010E0201A86F010EA96F840E01
:0C150800AA6F010EAB6F28EC01F012007E
:1015140072D0580E0101B16F000EB26F010EB36F9D
:10152400000EB46FB56FB66F060EB76F4CDC580E75
:10153400B16F000EB26F020EB36F000EB46FB56FD1
:10154400B66F070EB76F3FDC580EB16F000EB26F67
:10155400030EB36F000EB46FB56FB66F040EB76FA2
:1015640032DC580EB16F000EB26F040EB36F000E72
:10157400B46FB56FB66F050EB76F25DC010E2A6E1A
:1015840040D00101580EB16F000EB26F010EB36F5F
:10159400000EB46FB56FB66F060EB76F14DC580E3D
:1015A400B16F000EB26F020EB36F000EB46FB56F61
:1015B400B66F070EB76F07DC580EB16F000EB26F2F
:1015C400030EB36F000EB46FB56FB66F040EB76F32
:1015D400E5EC06F0580EB16F000EB26F040EB36F57
:1015E400000EB46FB56FB66F050EB76FE5EC06F07D
:1015F400010E2A6E06D02C50000A8BE02C50010AF2
:04160400C0E0120030
:10160800580E0101B16F000EB26F360EB36FCBECFE
:1016180003F0005224E0020E2E6F1D50000A1EE156
:101628001E50000A1BE1020E0201A86F010EA96FED
:10163800FF0EF66E2C0EF76E000EF86E7E0EE16E43
:10164800010EE26E110E006E010E016E92EC01F0B9
:101658007E0EAA6F010EAB6F28EC01F01F6A120014
:1016680030C184F101012F5303E0010E3019846F5A
:1016780082828005836F51C1E1FF52C1E2FF960E5D
:10168800E66E4FC100F050C101F0D9EC06F001013F
:101698008451960A04E08451A90A01E002D08471B9
:1016A800808D51C1E1FF52C1E2FF84C1E6FF4FC105
:1016B80000F050C101F0D9EC06F00101816B8151B5
:1016C800835D32E381517E25E96E000E7F21EA6E4B
:1016D800EECF01F001C085F10150960A04E0855172
:1016E800A90A01E01FD081517E25016E000E7F21DD
:1016F800026E01C0E9FF02C0EAFF010EEE18006E9B
:1017080001C0E1FF02C0E2FF00C0E6FF81C101F0B5
:10171800040E006E015004E000360090FF0FFBD766
:1017280000508013812BCBD751C1E1FF52C1E2FF9A
:1017380080C1E6FF4FC100F050C101F0D9EC06F0BE
:10174800010184518019826F816B8151835D1FE390
:1017580081517E25006E000E7F21016E00C0D9FFE9
:1017680001C0DAFFDE50821B51C1E1FF52C1E2FF26
:1017780000C0E9FF01C0EAFFEECFE6FF4FC100F06D
:1017880050C101F0D9EC06F00101812BDED7821D92
:10179800016E01C082F10150960A04E08251A90A43
:1017A80001E001D0822B51C1E1FF52C1E2FF82C1A9
:1017B800E6FF4FC100F050C101F0D9EC06F051C16D
:1017C800E1FF52C1E2FFA90EE66E4FC100F050C121
:1017D80001F0D9EC06F053C100F054C101F0D9EC86
:0E17E80006F00050000A01E1F6D782921200CE
:1017F600206A21A409D02250000802E2220602D063
:10180600080E226E010E1E6E21A008D0080E225C64
:1018160002E2222A01D0226A010E1E6E21A202D005
:06182600030E1E6E12000D
:10182C00580E0101B16F000EB26F340EB36FCBECDA
:10183C0003F0005240E0040E2E6F1D50000A1EE112
:10184C001E50000A1BE1020E0201A86F010EA96FC7
:10185C00DD0EF66E2C0EF76E000EF86E7E0EE16E3F
:10186C00010EE26E110E006E010E016E92EC01F093
:10187C007E0EAA6F010EAB6F28EC01F0040E1F6EEA
:10188C00580EB16F000EB26F26C000F0000E016E44
:10189C000036013600900050255CB36F01C0B4F1E6
:1018AC00000EB457000EB4BFFF0EB56FB66F350EF9
:1018BC00B76FE5EC06F082B006D029B002D0D89014
:1018CC0007D0D88005D029B002D0D88001D0D890CC
:1018DC0043E2580EB16F000EB26F350EB36FCAEC07
:1018EC0007F0580EB16F000EB26F340EB36FCAEC26
:1018FC0007F0030E2E6F1D50000A1EE11E50000A49
:10190C001BE1020E0201A86F010EA96FEE0EF66E1E
:10191C002C0EF76E000EF86E8F0EE16E010EE26E5D
:10192C00110E006E010E016E92EC01F08F0EAA6F7B
:10193C00010EAB6F28EC01F0010E1F6E580EB16F4B
:10194C00000EB26F26C0B3F1000EB46FB56FB66F58
:0A195C00320EB76FE5EC06F0120042
:1019660078D0580E0101B16F000EB26F010EB36F41
:10197600000EB46FB56FB66F060EB76FE5EC06F0E6
:10198600580EB16F000EB26F020EB36F000EB46F39
:10199600B56FB66F070EB76FE5EC06F0580EB16F70
:1019A600000EB26F030EB36F000EB46FB56FB66F55
:1019B600040EB76FE5EC06F0580EB16F000EB26F6D
:1019C600040EB36F000EB46FB56FB66F050EB76F2A
:1019D600E5EC06F0010E2A6E42D00101580EB16FF9
:1019E600000EB26F010EB36F000EB46FB56FB66F17
:1019F600060EB76FE5EC06F0580EB16F000EB26F2B
:101A0600020EB36F000EB46FB56FB66F070EB76FE9
:101A1600E5EC06F0580EB16F000EB26F030EB36F11
:101A2600000EB46FB56FB66F040EB76FE5EC06F037
:101A3600580EB16F000EB26F040EB36F000EB46F86
:101A4600B56FB66F050EB76FE5EC06F0010E2A6EA0
:101A560006D02C50000A85E02C50010ABEE0120088
:101A6600580E0101B16F000EB26F330EB36FCBEC9F
:101A760003F0005245E02E6B1D50000A1EE11E5079
:101A8600000A1BE1020E0201A86F010EA96F100EDB
:101A9600F66E2D0EF76E000EF86E7E0EE16E010EDE
:101AA600E26E110E006E010E016E92EC01F07E0EDA
:101AB600AA6F010EAB6F28EC01F0030E1F6E580ED5
:101AC600B16F000EB26F26C0B3F1000EB46FB3371C
:101AD600B437B391000EB4BFFF0EB56FB66F340EB8
:101AE600B76FE5EC06F026503E24426E000E3F200E
:101AF600436E000E4020446E000E4120456E2A6A59
:021B06001200CB
:101B08002A5235E0580E0101B16F000EB26F27C09E
:101B1800B3F1000EB46FB56FB66F320EB76FE5EC68
:101B280006F0030E2E6F1D50000A1EE11E50000A1B
:101B38001BE1020E0201A86F010EA96F320EF66EAC
:101B48002D0EF76E000EF86E7E0EE16E010EE26E3F
:101B5800110E006E010E016E92EC01F07E0EAA6F5E
:101B6800010EAB6F28EC01F0010E1F6E2A6A1200FD
:101B7800580E0101B16F000EB26F350EB36FCBEC8A
:101B880003F0005238E02E6B1D50000A1EE11E5073
:101B9800000A1BE1020E0201A86F010EA96F880E50
:101BA800F66E2C0EF76E000EF86E7E0EE16E010ECC
:101BB800E26E110E006E010E016E92EC01F07E0EC7
:101BC800AA6F010EAB6F28EC01F0050E1F6E580EC0
:101BD800B16F000EB26F26C0B3F1000EB46FB33709
:101BE800B437B391000EB4BFFF0EB56FB66F360EA3
:101BF800B76FE5EC06F082B006D029B002D0D890D5
:101C080007D0D88005D029B002D0D88001D0D8908C
:101C18004DE2580EB16F000EB26F350EB36FCAECBD
:101C280007F0580EB16F000EB26F360EB36FCAECE4
:101C380007F0030E2E6F1D50000A1EE11E50000A09
:101C48001BE1020E0201A86F010EA96F990EF66E34
:101C58002C0EF76E000EF86E8F0EE16E010EE26E1E
:101C6800110E006E010E016E92EC01F08F0EAA6F3C
:101C7800010EAB6F28EC01F0010E1F6E580EB16F0C
:101C8800000EB26F3EC0B3F13FC0B4F140C0B5F131
:101C980041C0B6F14250B35F4350B45B4450B55BAA
:101CA8004550B65B320EB76FE5EC06F02A524EE0AF
:101CB800580EB16F000EB26F350EB36FCAEC07F055
:101CC800580EB16F000EB26F360EB36FCAEC07F044
:101CD800030E2E6F1D50000A1EE11E50000A1BE164
:101CE800020E0201A86F010EA96FAA0EF66E2C0E45
:101CF800F76E000EF86EA00EE16E010EE26E110E88
:101D0800006E010E016E92EC01F0A00EAA6F010E9A
:101D1800AB6F28EC01F0010E1F6E580EB16F000E6C
:101D2800B26F3EC0B3F13FC0B4F140C0B5F141C09D
:101D3800B6F14250B35F4350B45B4450B55B455075
:0E1D4800B65B320EB76FE5EC06F02A6A1200A9
:101D5600580E0101B16F000EB26F320EB36FCBECAD
:101D660003F0005238E0010E2E6F1D50000A1EE1EE
:101D76001E50000A1BE1020E0201A86F010EA96F98
:101D8600210EF66E2D0EF76E000EF86E7E0EE16ECB
:101D9600010EE26E110E006E010E016E92EC01F064
:101DA6007E0EAA6F010EAB6F28EC01F0020E1F6EBD
:101DB600580EB16F000EB26F2650285CB36FB46B2D
:101DC600000EB45B000EB4BFFF0EB56FB66F330ED8
:081DD600B76FE5EC06F0120006
:101DDE00010E206EB8D021A006D0FF0E275C03E2C4
:101DEE00272AB9EC04F021A406D02750000803E2FC
:101DFE002706B9EC04F021A202D0010E1E6EC5D04A
:101E0E0021A006D0FF0E255C03E2252AB9EC04F0D2
:101E1E0021A406D02550000803E22506B9EC04F0F3
:101E2E0021A202D0010E1E6EB0D021A006D0FF0E50
:101E3E00265C03E2262AB9EC04F021A406D0265033
:101E4E00000803E22606B9EC04F021A202D0010E2E
:101E5E001E6E9BD021A006D0FF0E285C03E2282A1E
:101E6E00B9EC04F021A406D02850000803E228069D
:101E7E00B9EC04F021A202D0010E1E6E86D021A074
:101E8E0006D0FF0E2B5C03E22B2AB9EC04F021A442
:101E9E0006D02B50000803E22B06B9EC04F021A269
:101EAE0002D0010E1E6E71D021A006D0010E2C5C48
:101EBE0003E22C2AB9EC04F021A406D02C50000821
:101ECE0003E22C06B9EC04F021A202D0010E1E6E24
:101EDE005CD021A006D0010E2C5C03E22C2AB9ECBA
:101EEE0004F021A406D02C50000803E22C06B9EC15
:101EFE0004F021A202D0010E1E6E47D021A006D002
:101F0E00010E295C03E2292AB9EC04F021A406D0C3
:101F1E002950000803E22906B9EC04F021A202D0F0
:101F2E00010E1E6E32D021B21E6A206A88EC07F0B6
:101F3E001E6A140E366E29D021B21E6A206A3FEC3C
:101F4E0004F01E6A22D02250000AD8B444D7225080
:101F5E00010AD8B455D72250020AD8B466D72250F7
:101F6E00030AD8B477D72250040A89E02250050A12
:101F7E009BE02250060AADE02250070ABFE0225035
:0C1F8E00080AD1E02250090AD7E0120036
:101F9A00580E0101B16F000EB26F040EB36FCBEC95
:101FAA0003F00052D8A48380580EB16F000EB26FAE
:101FBA00050EB36FCBEC03F00052D8A48390580EF1
:101FCA00B16F000EB26F060EB36FCBEC03F0005286
:101FDA00D8A48382580EB16F000EB26F070EB36F8A
:101FEA00CBEC03F00052D8A48392580EB16F000EC6
:101FFA00B26F080EB36FCBEC03F00052D8A48386FD
:10200A00580EB16F000EB26F090EB36FCBEC03F02E
:10201A000052D8A48396580EB16F000EB26F010E0B
:10202A00B36FCBEC03F00052D8A4376A580EB16FE5
:10203A00000EB26F020EB36FCBEC03F00052D8A4BD
:10204A00356A2E51020A16E1375214E0355212E16E
:10205A0085DC010E356E580E0101B16F000EB26FAC
:10206A00060EB36F000EB46FB56FB66F020EB76F80
:10207A00E5EC06F02E51040A17E1375215E0355205
:10208A0013E18AEC0AF0010E356E580E0101B16FA8
:10209A00000EB26F060EB36F000EB46FB56FB66F57
:0A20AA00020EB76FE5EC06F012001D
:1020B40031500008D8A0310633500008D8A03306A8
:0220C400120008
:1020C60010D021A203D0010E1E6E226A7CEC09F00C
:1020D60014D046EC09F011D0FBEC0BF00ED07CDEF0
:1020E6000CD01E50000AEDE01E50010AF2E01E5010
:0C20F600020AF2E01E50030AF2E01200A1
:102102004AC100F04BC101F0D9EC06F0005201E1E6
:102112002BD146C100F047C101F0D9EC06F000C056
:1021220043F106D101014351960A03E1020E4E6FBB
:10213200456B1AD14351301904E04351320A01E090
:1021420005D0030E4E6F4351451B02D0010E4E6F58
:102152000BD12F5309E0400E4315016E0150000AC6
:1021620003E1010E4E6F00D143AF13D0040E4E6F48
:1021720043C140F14351451B030E4315016E01C09B
:1021820042F10150000A02E1050E4E6F010E446F4A
:102192000CD0050E0201BA25E16E000EBB21E26EE3
:1021A200FF0EE66E010E01014E6FDED04351A90A09
:1021B2000DE1050E0201BA25E16E000EBB21E26EB1
:1021C200FF0EE66E010E01014E6FCED04451425D0C
:1021D200006E016A000E015A0050011013E044051E
:1021E200006E016A000E015A00500201BA25E16E2A
:1021F2000150BB21E26E43C1E6FF01014351451B81
:10220200442B13D04405006E016A000E015A00509F
:102212000201BA25E16E0150BB21E26E43C1E6FF25
:10222200050E01014E6F4351451B9ED0451D016EA7
:1022320001C045F10150960A04E04551A90A01E0A6
:1022420001D0452B4551431903E1060E4E6F0CD0C8
:10225200050E0201BA25E16E000EBB21E26EFF0EF1
:10226200E66E010E01014E6F7FD04351A90A43E190
:10227200010E4E6F040E0201BA25E16E000EBB2163
:10228200E26EFF0EE66E030EBA25E16E000EBB2172
:10229200E26E42C1E6FF010E0101446F4451425D0C
:1022A20029E344C101F0020E006E015004E0003641
:1022B2000090FF0FFBD74051001619E04405006E55
:1022C200016A000E015A00500201BA25026E015045
:1022D200BB21036E02C0E9FF03C0EAFF010EEE1844
:1022E200006E02C0E1FF03C0E2FF00C0E6FF010191
:1022F200442BD4D70CD0050E0201BA25E16E000E94
:10230200BB21E26EFF0EE66E010E01014E6F2CD074
:10231200050E0201BA25E16E000EBB21E26EFF0E30
:10232200E66E010E01014E6F1FD0010E4E6F1CD0E2
:1023320001014E51010AD8B4F5D64E51020AD8B461
:10234200F9D64E51030AD8B404D74E51040AD8B470
:102352002DD74E51050AD8B469D74E51060A85E0E9
:0A2362004E51070AD5E0E1D7120042
:10236C00205268E020C041F13C5232E0020E0101E3
:10237C007E6F010E7F6F3E0E806F4BEC09F0020EEC
:10238C007E6F020E7F6F3E0E806F4BEC09F0020EDB
:10239C007E6F030E7F6F3E0E806F4BEC09F0020ECA
:1023AC007E6F100E7F6F3C0E806F4BEC09F0020EAF
:1023BC007E6F0F0E7F6F3C0E806F4BEC09F0020EA0
:1023CC007E6F0E0E7F6F3C0E806F4BEC09F031D0A0
:1023DC000101020E7E6F010E7F6F200E806F4BECA1
:1023EC0009F0020E7E6F020E7F6F200E806F4BEC99
:1023FC0009F0020E7E6F030E7F6F200E806F4BEC88
:10240C0009F0020E7E6F100E7F6F200E806F4BEC6A
:10241C0009F0020E7E6F0F0E7F6F200E806F4BEC5B
:10242C0009F0020E7E6F0E0E7F6F200E806F4BEC4C
:10243C0009F035D00101415330E0020E7E6F010EE0
:10244C007F6F200E806F4BEC09F0020E7E6F020E38
:10245C007F6F200E806F4BEC09F0020E7E6F030E27
:10246C007F6F200E806F4BEC09F0020E7E6F100E0A
:10247C007F6F200E806F4BEC09F0020E7E6F0F0EFB
:10248C007F6F200E806F4BEC09F0020E7E6F0E0EEC
:10249C007F6F200E806F4BEC09F03CC041F11200B5
:1024AC00600ED36E9B8C0F015D6B5C6B806A816AD6
:1024BC00826A836A846AD70E926EC00E936EBD0ECA
:1024CC00946E700E956E0F0E966E810ED56E630E19
:1024DC00D76EBF0ED66EF28EF28A6DEC08F00C0E33
:1024EC000201B96F66EC00F0150E0B6E4B0E0C6E04
:1024FC00BE0E0D6E0D2EFED70C2EFCD70B2EFAD762
:10250C000000808ACF0EAF6EAC8441EC08F09E9A2E
:10251C009D8A9F8AF28C720E7E6F040E7F6F000E66
:10252C00806F000E816F500E826F040E836FA80EA9
:10253C00846F020E856F680E866F040E876F000E17
:10254C00886F000E896F5E0E8A6F040E8B6F000E03
:10255C008C6F000E8D6F20EC08F0580E7E6F000E05
:10256C007F6FD0EC08F0020E2E6F3FEC04F02BC006
:08257C00A8F211EC01F01200BD
:102584000101365365E0366B5CD03EC038F03FC085
:1025940039F040C03AF041C03BF0010E376E580E9E
:1025A400B16F000EB26F010EB36FCAEC07F0580E94
:1025B400B16F000EB26F3C0EB36F000EB46FB56F07
:1025C400B66F010EB76FE5EC06F0C80E326F0B0E56
:1025D4000C6E620E0D6E0D2EFED70C2EFCD7000075
:1025E400320E7E6F010E7F6F010E806F34EC0BF0A4
:1025F400838E2ED0DC0E0101326F2E51020A04E0CC
:102604002E51040A01E002D0C80E326F2E51010A85
:1026140004E02E51030A01E002D0D20E326F0B0EF9
:102624000C6E620E0D6E0D2EFED70C2EFCD7000024
:10263400320E7E6F010E7F6F010E806F34EC0BF053
:1026440007D001013251010AA0E03251020AD2E05E
:02265400120072
:1026560012D084EC0DF021D0ABEC0EF01ED033EC92
:102666000DF01BD016EC0CF018D0BCEC0DF015D00C
:1026760004EC0BF012D01F50000AEBE01F50010AC9
:10268600EBE01F50020AEBE01F50030AEBE01F507D
:0C269600040AEBE01F50050AEBE0120004
:1026A200D20E01017925E96E000E7A21EA6EEECF93
:1026B20001F0EECF02F0EECF03F0EECF04F00450C3
:1026C200FF0A08E10350FF0A05E10250FF0A02E196
:1026D2000150FF0A23E0D20E7925046E000E7A2102
:1026E200056E04C0E9FF05C0EAFF010EEE24006E8C
:1026F200000EEE20016E000EEE20026E000EEE20A5
:10270200036E04C0E1FF05C0E2FF00C0E6FF01C0A6
:10271200E6FF02C0E6FF03C0E6FF0AD0D20E79252B
:10272200E16E000E7A21E26EE66AE66AE66AE66A1F
:02273200120093
:1027340001017B6B7B6B1E0E7B5DD8B08CD079C1A5
:102744007CF17AC17DF1070E006E000E016E7BC133
:1027540004F0000E056E6AEC01F07C5100267D51F8
:102764000122050E0024E96E000E0120EA6EEE50EF
:10277400000A6FE179C17CF17AC17DF1070E006E28
:10278400000E016E7BC104F0000E056E6AEC01F0D0
:102794007C5100267D510122010E0024E96E000EB9
:1027A4000120EA6EEECF05F0EECF06F0EECF07F093
:1027B400EECF08F0D20E7925D96E000E7A21DA6EAA
:1027C400DECF01F0DECF02F0DECF03F0DECF04F087
:1027D4000850041808E10750031805E106500218D0
:1027E40002E10550011835E179C17CF17AC17DF12E
:1027F400070E006E000E016E7BC104F0000E056E24
:102804006AEC01F07C5100267D510122060E002461
:10281400E96E000E0120EA6EEE50000A1AE179C159
:102824007CF17AC17DF1070E006E000E016E7BC152
:1028340004F0000E056E6AEC01F07C5100267D5117
:102844000122060E0024E16E000E0120E26E010E4C
:08285400E66E7B2B70D7120029
:10285C000101796B7A6B83BC02D0798101D07991BB
:10286C0083BA02D0798301D0799383B802D0798569
:10287C0001D07995CED07951000A0DE03150000A83
:10288C000AE179C17AF1010E316E640E336E010EDC
:10289C002D6E79C134F0CFD03150000A08E1795156
:1028AC00000A05E17A6B346A010E316E2D6A3150E3
:1028BC00000A0EE1795134180BE13350000A08E19B
:1028CC0079C17AF1020E2D6E060E336E0A0E326E3F
:1028DC003150000A0CE17951341809E07951000AA1
:1028EC0006E079C17AF179C134F0010E316EA3D0D2
:1028FC00795134180BE13350000A08E132500008CA
:10290C0005E279C17AF1060E336E3206795134182C
:10291C000EE13350000A0BE13250000A08E179C194
:10292C007AF1060E336E0A0E326E030E2D6E79514D
:10293C0034180DE07951000A0AE079C17AF179C1B5
:10294C0034F0010E316E640E336E010E2D6E795122
:10295C00000A05E17A6B346A010E316E2D6A6BD078
:10296C00795134180BE13350000A08E13250000859
:10297C0005E279C17AF1060E336E320679513418BC
:10298C000CE13350000A09E13250000A06E179C12A
:10299C007AF1060E336E040E2D6E795134180DE05B
:1029AC007951000A0AE079C17AF179C134F0010E4B
:1029BC00316E640E336E010E2D6E7951000A05E1F5
:1029CC007A6B346A010E316E2D6A35D07951341818
:1029DC0007E13350000A04E179C17AF1060E336E37
:1029EC00795134180DE07951000A0AE079C17AF175
:1029FC0079C134F0010E316E640E336E010E2D6E02
:102A0C007951000A05E17A6B346A010E316E2D6A38
:102A1C0012D02D50000AD8B42ED72D50010AD8B49C
:102A2C003BD72D50020AD8B463D72D50030A98E037
:0C2A3C002D50040ACBE07AC100F012001B
:102A4800A2EC16F02FDD010E0201A86F010EA96F8E
:102A5800BB0EF66E2C0EF76E000EF86E570EE16E7A
:102A6800010EE26E110E006E010E016E92EC01F085
:102A7800570EAA6F010EAB6F28EC01F0020E02018F
:102A8800A86F010EA96FCC0EF66E2C0EF76E000E15
:102A9800F86E680EE16E010EE26E110E006E010E08
:102AA800016E92EC01F0680EAA6F010EAB6F28EC74
:102AB80001F03D520AE05AEC10F03650000803E2EB
:102AC8003606808601D080963D6A2E5225E0000E9B
:102AD800006E3050005C02E12F50000805E2010E44
:102AE8002F5E000E305A01D0809A3C52010ED8A4B5
:102AF800000E3C6E37DC010E3E26000E3F224022BF
:102B08004122580E796F000E7A6FC7DD580E796F23
:102B1800000E7A6F0BDE2E6A9DDE00C021F0005099
:102B2800000A06E0680E2F6E010E306E030E366E38
:102B38001D50000A02E163EC10F089DD1FDDCDECC9
:102B48000FF0000E006E3050005C02E12F500008BC
:082B5800D8A0808AAED7FFD798
:102D440010EE1DF03B0E006E010E016E4D0EF66E80
:0E2D54002C0EF76E000EF86E92EC01F01200DD
:102B60002020202020202020202020202020202065
:012B70000064
:102B710031204F70656E6E696E672054696D6520F6
:012B81000053
:102B82003220436C6F73696E672054696D65202033
:012B92000042
:102B93003320496E76616C69642054696D65202029
:012BA3000031
:102BA40034204175746F636C6F73652054696D656F
:012BB4000020
:102BB50035204E657420416464726573732020204E
:012BC500000F
:102BC6003620576F726B696E67204D6F64652020E3
:012BD60000FE
:102BD70020202053746172742F53746F702020204B
:012BE70000ED
:102BE8002020204F70656E2F436C6F736520202066
:012BF80000DC
:102BF9003720495220696E204D6F646520202000DE
:102C0900202020202020204E43202020202020206A
:012C190000BA
:102C1A00202020202020204E4F202020202020204D
:012C2A0000A9
:102C2B00382053617665204368616E676573202099
:012C3B000098
:102C3C003920446973636172642026204578697475
:012C4C000087
:012C4D000086
:012C4E000085
:012C4F000084
:012C50000083
:012C51000082
:012C52000081
:022C5300470038
:012C55000A74
:012C5600017C
:012C57000A72
:012C58001467
:012C5900007A
:012C5A000079
:012C5B000078
:012C5C000077
:012C5D000076
:012C5E000075
:022C5F0068010A
:012C61000072
:012C62000071
:012C63000070
:012C6400006F
:012C6500006E
:012C66000568
:012C6700006C
:042C68000000000068
:012C6C000067
:012C6D000066
:042C6E000000000062
:042C7200000000005E
:012C7600005D
:102C7700202020202020202020202020202020204D
:012C8700004C
:102C880020202020496E76616C6964202020202055
:012C9800003B
:102C9900202020204F70656E6E696E6720202020ED
:012CA900002A
:102CAA00202020204F70656E6E696E6720202020DC
:012CBA000019
:102CBB00202020202053746172742120202020209A
:012CCB000008
:102CCC0020202020202020202020202020202020F8
:012CDC0000F7
:102CDD0020202020436C6F73696E672020202020F8
:012CED0000E6
:102CEE00202020204F70656E6E696E672020202098
:012CFE0000D5
:102CFF002020202020436C6F73656420202020202B
:012D0F0000C3
:102D100020202020496E76616C69642020202020CC
:012D200000B2
:102D210020202020204F70656E6564202020202007
:012D310000A1
:102D3200202020204F70656E6E696E672020202053
:012D42000090
:020000040030CA
:0E00000015187F7CFF8991FF0FC00FE00F40A5
:0200000400F00A
:10000000141402280A000000000000000000000094
:10001000FFFFFFFFFFFFFFFFFFFFFFFFFFFFFFFFF0
:10002000FFFFFFFFFFFFFFFFFFFFFFFFFFFFFFFFE0
:10003000FFFFFFFFFFFFFFFFFFFFFFFFFFFFFFFFD0
:10004000FFFFFFFFFFFFFFFFFFFFFFFFFFFFFFFFC0
:00000001FF
