:0400000069EF15F09F
:1000080000C018F001C017F002C016F003C015F0C8
:10001800E1CF1BF0E2CF1CF0E9CF19F0EACF1AF0DC
:10002800F2A410D0F2AA0ED0010E306E582A190E82
:10003800585C03E3010E316E586A630ED76EBF0E2B
:10004800D66EF2949DAA0AD09EAA08D0320E02015A
:10005800CD6F010ECE6FC5EC10F09E9A18C000F05F
:1000680017C001F016C002F015C003F019C0E9FF6F
:0E0078001AC0EAFF1BC0E1FF1CC0E2FF11002E
:0A008600850E0D6E0D2EFED7120040
:100090003A0E0C6E230E0D6E0D2EFED70C2EFCD7D5
:0200A00012004C
:0C00A200020E0D6E0D2EFED700001200A5
:1000AE00086A080E0C6E003408360450085ED8B08C
:0E00BE0002D00826D89000360C2EF5D712007E
:1000CC000201CCBF02D0819601D08186CCBD02D07A
:1000DC00819401D08184CCBB02D0819201D08182E9
:1000EC00CCB902D0819001D08180010131B102D014
:1000FC00818A01D0819A8188CEDF81980201CCB7A8
:10010C0002D0819601D08186CCB502D0819401D0E9
:10011C008184CCB302D0819201D08182CCB102D047
:10012C00819001D08180010131B102D0818A01D04E
:10013C00819A8188B0DF819831A102D0A3DF01D0F0
:04014C009CDF120022
:0E01500001013191C6C2CCF2B9DF318112003B
:10015E00C8C204F0C9C205F0C6C202F0C7C203F09D
:10016E00CAC200F0CBC201F0010E0201CA5F000E3E
:10017E00CB5B005001100FE004C0E9FF05C0EAFFA1
:10018E0002C0E1FF03C0E2FFEECFE6FF024A032A00
:10019E00044A052AE5D7C6C200F0C7C201F0120014
:1001AE000201C96B030EC95D0AE2C951C725E16E92
:1001BE00000EC821E26E200EE66EC92BF3D7C95190
:1001CE00C725E16E000EC821E26EE66AC907C95165
:1001DE00C725CA6F000EC821CB6F0A0E046EC6C2A9
:1001EE0000F05EDF08C000F0300E0026CAC2E1FF4C
:1001FE00CBC2E2FF00C0E6FF0A0E046EC6C200F0DC
:10020E004FDF00C0C6F20050000A01E102D0C9075C
:04021E00DED7120015
:1002220094928292010E0101576F3C6BBBC230F176
:100232000201BB51960A04E0BB51A90A01E006D0B3
:0E024200010EBB190101306FFF0E3C6F120060
:1002500010D0800E0201BB6F1AD0C00EBB6F17D03A
:10026000940EBB6F14D0D40EBB6F11D0800EBB6F39
:100270000ED00201BB51010AECE0BB51020AEDE0D5
:10028000BB51030AEDE0BB51040AEDE0EFD7BC051A
:10029000006EBB51002600C0BBF200C0CCF216DFDE
:1002A00031910201BF6BBF51BD25E96E000EBE2129
:1002B000EA6EEE520CE0BF51BD25E96E000EBE2184
:1002C000EA6EEECFC6F244DF0201BF2BECD701018C
:0402D0003181120066
:1002D4000B6A0A6A096A00500402F4CF09F0F3CFEA
:1002E40008F001500502F4CF0BF0F3CF0AF00050F0
:1002F4000502F3500926F4500A22E86A0B22015041
:100304000402F3500926F4500A22E86A0B2208C0BA
:1003140000F009C001F00AC002F00BC003F01200A3
:100324000900F5CFE6FF0006FBE10106F9E1120042
:10033400BBC2C9FFC7B002D00000FCD7C9CF00F0D0
:020344001200A5
:0C034600BAB201D0FDD7BBC279FF120093
:100352007F9CBCC275FFBBC274FF7F9E7F8073CF40
:0403620000F0120095
:10036600086A096A100E0C6E013408360936045004
:10037600085E0550D8A0053C095ED8B007D00450E9
:1003860008260550D8B0053C0926D8900036013617
:060396000C2EEAD7120054
:10039C00BBC2C6F20201C633C69FBCC2C7F2BDC205
:1003AC00C8F2FFDE010EBB15016E0150010A17E108
:1003BC00030EBC25C66F000EBD21C76F2E0EBE6F7F
:1003CC00350EBF6F730EC06FC16BBE0EC86F020EC1
:1003DC00C96F040ECA6F000ECB6FBBDE16D0030EB6
:1003EC00BC25C66F000EBD21C76F2E0EC26F300E1E
:1003FC00C36F730EC46FC56BC20EC86F020EC96F8C
:0C040C00040ECA6F000ECB6FA4DE1200BD
:100418007FA202D00000FCD77F9CBCC275FFBBC284
:1004280074FFBDC273FF7F9E7F84F2CF00F0F29EFF
:10043800550E7E6EAA0E7E6E7F8200BE02D0F29EA0
:0804480001D0F28E7F94120036
:0E045000ACB202D00000FCD7BBC2ADFF120060
:0A045E00000EACB2010E006E120099
:0A046800000E9EBA010E006E120095
:10047200AECF01F0ABA202D0AB98AB8801C000F0C6
:02048200120066
:0A048400000EBAB2010E006E120065
:0A048E00000EA4BA010E006E120069
:100498007ACF01F0A6A202D0A698A68801C000F0E3
:0204A800120040
:1004AA000B6A0A6A096A086A0E6A03340836045033
:1004BA00085E0550D8A0053C095E0650D8A0063C47
:1004CA000A5E0750D8A0073C0B5EE86AD8A0010E66
:1004DA000E5E0336070E0C6E0334083609360A36EA
:1004EA000B360E36045003A012D0085E0550D8A071
:1004FA00053C095E0650D8A0063C0A5E0750D8A003
:10050A00073C0B5EE86AD8A0010E0E5E11D00826E1
:10051A000550D8B0053C09260650D8B0063C0A2634
:10052A000750D8B0073C0B26E86AD8B0010E0E2651
:10053A0003360C2ED1D70234083609360A360B3662
:10054A000E36045003A012D0085E0550D8A0053C10
:10055A00095E0650D8A0063C0A5E0750D8A0073CA0
:10056A000B5EE86AD8A0010E0E5E11D0082605506F
:10057A00D8B0053C09260650D8B0063C0A260750D2
:10058A00D8B0073C0B26E86AD8B0010E0E26023610
:10059A00070E0C6E0234083609360A360B360E364A
:1005AA00045002A012D0085E0550D8A0053C095E8E
:1005BA000650D8A0063C0A5E0750D8A0073C0B5E3E
:1005CA00E86AD8A0010E0E5E11D008260550D8B0F0
:1005DA00053C09260650D8B0063C0A260750D8B072
:1005EA00073C0B26E86AD8B0010E0E2602360C2EFE
:1005FA00D1D70134083609360A360B360E3604507E
:10060A0002A012D0085E0550D8A0053C095E06502B
:10061A00D8A0063C0A5E0750D8A0073C0B5EE86AE1
:10062A00D8A0010E0E5E11D008260550D8B0053CA0
:10063A0009260650D8B0063C0A260750D8B0073C0F
:10064A000B26E86AD8B0010E0E260136070E0C6E8C
:10065A000134083609360A360B360E36045001A024
:10066A0012D0085E0550D8A0053C095E0650D8A0F5
:10067A00063C0A5E0750D8A0073C0B5EE86AD8A081
:10068A00010E0E5E11D008260550D8B0053C092689
:10069A000650D8B0063C0A260750D8B0073C0B26AD
:1006AA00E86AD8B0010E0E2601360C2ED1D70034D6
:1006BA00083609360A360B360E36045001A012D017
:1006CA00085E0550D8A0053C095E0650D8A0063C35
:1006DA000A5E0750D8A0073C0B5EE86AD8A0010E54
:1006EA000E5E11D008260550D8B0053C09260650E2
:1006FA00D8B0063C0A260750D8B0073C0B26E86A51
:10070A00D8B0010E0E260036070E0C6E00340836DD
:10071A0009360A360B360E36045000A012D0085E8F
:10072A000550D8A0053C095E0650D8A0063C0A5ED2
:10073A000750D8A0073C0B5EE86AD8A0010E0E5EEF
:10074A0011D008260550D8B0053C09260650D8B065
:10075A00063C0A260750D8B0073C0B26E86AD8B0F0
:10076A00010E0E2600360C2ED1D700B00ED0045042
:10077A0008260550D8B0053C09260650D8B0063CD4
:0C078A000A260750D8B0073C0B261200CE
:100796000101B56BB66BB56B1E0EB55D6AE2B2C1F3
:1007A600B7F1B3C1B8F1070E006E000E016EB5C108
:1007B60004F0000E056E8BDDB7510026B8510122FC
:1007C600050E0024E96E000E0120EA6EEE50000AC6
:1007D6004EE1B2C1B7F1B3C1B8F1070E006E000E1B
:1007E600016EB5C104F0000E056E71DDB75100262D
:1007F600B8510122060E0024E96E000E0120EA6EB1
:10080600EE50010A34E1B2C1B7F1B3C1B8F1070E37
:10081600006E000E016EB5C104F0000E056E57DDC8
:100826000050B725E96E0150B821EA6EEECF01F00F
:100836000150B4191CE1B2C1B7F1B3C1B8F1070E4A
:10084600006E000E016EB5C104F0000E056E3FDDB0
:10085600B7510026B8510122050E0024E16E000EA4
:100866000120E26E010EE66E010EB66F02D0B52BC8
:0808760093D7B6C100F0120097
:10087E000201BB6BBC6B66DD00C027F0010EBB6FC7
:10088E00000EBC6F5FDD00C025F0020EBB6F000EC8
:10089E00BC6F58DD00C026F0030EBB6F000EBC6FA0
:1008AE0051DD00C028F0040EBB6F000EBC6F4ADD98
:1008BE0000C02BF0050EBB6F000EBC6F43DD00C0F9
:1008CE002CF0060EBB6F000EBC6F3CDD00C029F095
:1008DE00070EBB6F000EBC6F35DD00C02AF0120094
:1008EE000101B66B050EB65D0AE2B651B425E16E96
:1008FE00000EB521E26E200EE66EB62BF3D7B65182
:10090E00B425E16E000EB521E26EE66AB607B65169
:10091E00B425B76F000EB521B86F0A0E046E000E27
:10092E00056EB2C100F0B3C101F016DD08C000F0D3
:10093E0009C001F0300E0026B7C1E1FFB8C1E2FFD9
:10094E0000C0E6FF0A0E046E000E056EB2C100F086
:10095E00B3C101F001DD00C0B2F101C0B3F1000E70
:10096E00011802E1000E001801E102D0B607CFD740
:02097E00120065
:10098000B10E0201C66F020EC76FEA0EF66E2B0E95
:10099000F76E000EF86EB20EE16E010EE26E110EF1
:1009A000006E010E016EBEDCB20EC86F010EC96F83
:1009B0000A0ECA6F000ECB6FAFEC00F0010ECC6FC9
:1009C00066EC00F009D2010E0201BB6F010EBC6F94
:1009D000FB0EF66E2B0EF76E000EF86EC30EE16E78
:1009E000010EE26E110E006E010E016E9BDCC30E55
:1009F000BD6F010EBE6F2CDC27C0BBF2B10E020131
:100A0000BC6F020EBD6FCADC020EBB6F050EBC6F61
:100A1000B10EBD6F020EBE6F1BDC04D2010E0201CF
:100A2000BB6F010EBC6F0C0EF66E2C0EF76E000E37
:100A3000F86ED40EE16E010EE26E110E006E010E24
:100A4000016E70DCD40EBD6F010EBE6F01DC25C0DF
:100A5000BBF2B10E0201BC6F020EBD6F9FDC020E35
:100A6000BB6F050EBC6FB10EBD6F020EBE6F28ECE2
:100A700001F0D8D1010E0201BB6F010EBC6F1D0E3B
:100A8000F66E2C0EF76E000EF86EE50EE16E010E9E
:100A9000E26E110E006E010E016E44DCE50EBD6FBC
:100AA000010EBE6F28EC01F026C0BBF2B10E0201B0
:100AB000BC6F020EBD6F72DC020EBB6F050EBC6F09
:100AC000B10EBD6F020EBE6F28EC01F0ABD1010E6E
:100AD0000201BB6F010EBC6F2E0EF66E2C0EF76E70
:100AE000000EF86EF60EE16E010EE26E110E006E53
:100AF000010E016E17DCF60EBD6F010EBE6F28EC05
:100B000001F028C0BBF2B10E0201BC6F020EBD6F36
:100B100045DC020EBB6F050EBC6FB10EBD6F020E41
:100B2000BE6F28EC01F07ED1010E0201BB6F010EF9
:100B3000BC6F3F0EF66E2C0EF76E000EF86E070EB1
:100B4000E16E020EE26E110E006E010E016E92EC6D
:100B500001F0070EBD6F020EBE6F28EC01F02BC036
:100B6000C6F2B10E0201C76F020EC86FD7EC00F0DB
:100B7000020EBB6F050EBC6FB10EBD6F020EBE6FD5
:100B800028EC01F04FD1010E0201BB6F010EBC6FCA
:100B9000500EF66E2C0EF76E000EF86E180EE16E0B
:100BA000020EE26E110E006E010E016E92EC01F06B
:100BB000180EBD6F020EBE6F28EC01F02C50000A1B
:100BC0001CE1020E0201BB6F010EBC6F610EF66EDE
:100BD0002C0EF76E000EF86E290EE16E020EE26E1C
:100BE000110E006E010E016E92EC01F0290EBD6F28
:100BF000020EBE6F28EC01F01BD0020E0201BB6F8B
:100C0000010EBC6F720EF66E2C0EF76E000EF86EB3
:100C10003A0EE16E020EE26E110E006E010E016ED2
:100C200092EC01F03A0EBD6F020EBE6F28EC01F09F
:100C3000F9D0010E0201BB6F010EBC6F830EF66E80
:100C40002C0EF76E000EF86E4B0EE16E020EE26E89
:100C5000110E006E010E016E92EC01F04B0EBD6F95
:100C6000020EBE6F28EC01F02950000A1CE1020EB2
:100C70000201BB6F010EBC6F940EF66E2C0EF76E68
:100C8000000EF86E5C0EE16E020EE26E110E006E4A
:100C9000010E016E92EC01F05C0EBD6F020EBE6F94
:100CA00028EC01F01BD0020E0201BB6F010EBC6FDD
:100CB000A50EF66E2C0EF76E000EF86E6D0EE16E40
:100CC000020EE26E110E006E010E016E92EC01F04A
:100CD0006D0EBD6F020EBE6F28EC01F0A3D0010EA9
:100CE0000201BB6F010EBC6FB60EF66E2C0EF76ED6
:100CF000000EF86E7E0EE16E020EE26E110E006EB8
:100D0000010E016E92EC01F07E0EBD6F020EBE6F01
:100D100028EC01F02AC0BBF2B10E0201BC6F020E3A
:100D2000BD6FCEEC01F0020EBB6F050EBC6FB10EB5
:100D3000BD6F020EBE6F28EC01F074D0010E0201EF
:100D4000BB6F010EBC6FC70EF66E2C0EF76E000E59
:100D5000F86E8F0EE16E020EE26E110E006E010E45
:100D6000016E92EC01F08F0EBD6F020EBE6F28EC8B
:100D700001F0020E0201BB6F010EBC6F20C0BDF27C
:100D800021C0BEF228EC01F04DD0010E0201BB6F74
:100D9000010EBC6FD80EF66E2C0EF76E000EF86EBC
:100DA000A00EE16E020EE26E110E006E010E016EDB
:100DB00092EC01F0A00EBD6F020EBE6F28EC01F0A8
:100DC000020E0201BB6F010EBC6F20C0BDF221C03C
:100DD000BEF228EC01F026D02450000AD8B4F3D596
:100DE0002450010AD8B41AD62450020AD8B442D6E4
:100DF0002450030AD8B46BD62450040AD8B494D62D
:100E00002450050AD8B4BFD62450060AD8B411D746
:100E10002450070AD8B463D72450080A8FE024501E
:060E2000090AB3E0120014
:100E2600F250026EF29E0500FF6A0150FE6E0050FF
:080E3600FD6E02BEF28E1200F7
:100E3E000101BA6BBB6BBC6BBD6BD20EB225E96EFA
:100E4E00000EB321EA6EB451EE24BA6FB551EE2006
:100E5E00BB6FB651EE20BC6FB751EE20BD6FB96BB4
:100E6E001E0EB95DD8B086D0B2C1BEF1B3C1BFF10E
:100E7E00070E006E000E016EB9C104F0000E056E75
:100E8E006AEC01F0BE510026BF510122050E00246E
:100E9E00E96E000E0120EA6EEE50010A69E1B2C160
:100EAE00BEF1B3C1BFF1070E006E000E016EB9C1E7
:100EBE0004F0000E056E6AEC01F00050BE25E16EE6
:100ECE000150BF21E26EB8C1E6FFB2C1BEF1B3C19F
:100EDE00BFF1070E006E000E016EB9C104F0000ED8
:100EEE00056E6AEC01F0BE510026BF510122010EC3
:100EFE000024E16E000E0120E26EBAC1E6FFBBC116
:100F0E00E6FFBCC1E6FFBDC1E6FFB2C1BEF1B3C193
:100F1E00BFF1070E006E000E016EB9C104F0000E97
:100F2E00056E6AEC01F0BE510026BF510122050E7E
:100F3E000024E16E000E0120E26EE66AB2C1BEF13F
:100F4E00B3C1BFF1070E006E000E016EB9C104F001
:100F5E00000E056E6AEC01F0BE510026BF51012253
:100F6E00060E0024E16E000E0120E26EE66A02D04B
:060F7E00B92B76D712002A
:100F84000201BB6BBC6B27C0BDF20CEC02F0010E7E
:100F94000201BB6F000EBC6F25C0BDF20CEC02F069
:100FA400020E0201BB6F000EBC6F26C0BDF20CEC3A
:100FB40002F0030E0201BB6F000EBC6F28C0BDF22D
:100FC4000CEC02F0040E0201BB6F000EBC6F2BC0D0
:100FD400BDF20CEC02F0050E0201BB6F000EBC6FFB
:100FE4002CC0BDF20CEC02F0060E0201BB6F000E29
:100FF400BC6F29C0BDF20CEC02F0070E0201BB6FFE
:10100400000EBC6F2AC0BDF20CEC02F02BC0BBF288
:0610140011EC01F01200D6
:10101A000101B56B1E0EB55D50E2B2C1B6F1B3C1A6
:10102A00B7F1070E006E000E016EB5C104F0000E96
:10103A00056E6AEC01F0B6510026B7510122050E81
:10104A000024E96E000E0120EA6EEE50000A33E138
:10105A00B2C1B6F1B3C1B7F1070E006E000E016E50
:10106A00B5C104F0000E056E6AEC01F00050B62519
:10107A00E96E0150B721EA6EEECF01F00150B419C2
:10108A001AE1B2C1B6F1B3C1B7F1070E006E000E94
:10109A00016EB5C104F0000E056E6AEC01F0B6519E
:1010AA000026B7510122050E0024E16E000E012030
:0C10BA00E26E010EE66EB52BADD7120001
:1010C6007FC152F180C153F181C154F182C155F102
:1010D60083C14CF184C14DF185C14EF186C14FF1FA
:1010E60087C142F188C143F189C144F18AC145F102
:1010F6008BC148F18CC149F18DC14AF18EC14BF1CA
:021106001200D5
:10110800500E01014C6F040E4D6FBB0E4E6F020E58
:101118004F6F720E526F040E536F000E546F000E15
:10112800556F680E426F040E436F000E446F000E39
:10113800456F5E0E486F040E496F000E4A6F000E31
:101148004B6FAC8A900EAB6E948E949C9EAA03D083
:08115800AECF00F0FBD712003E
:101160009398939A93909392939493968198819A5B
:10117000819681948192819048EC00F048EC00F0D7
:1011800048EC00F081828180818851EC00F08198E8
:1011900048EC00F0818851EC00F0819848EC00F0B8
:1011A000818851EC00F0819848EC00F081908188B2
:1011B00051EC00F0819848EC00F0818851EC00F08F
:1011C000819881928186818851EC00F0819848EC69
:1011D00000F081968180818851EC00F081988190A7
:1011E000818851EC00F0819848EC00F0818851EC46
:1011F00000F081988180818851EC00F0819848EC62
:1012000000F08190818851EC00F081988186818482
:1012100081828180818851EC00F0819848EC00F057
:0612200001013181120002
:101226000101816B1E0E815D66E27FC182F180C184
:1012360083F1070E006E000E016E81C104F0000EF0
:10124600056E6AEC01F000508225E16E01508321A3
:10125600E26EE66A7FC182F180C183F1070E006EFD
:10126600000E016E81C104F0000E056E6AEC01F0FD
:101276008251002683510122010E0024E16E000EE8
:101286000120E26EE66AE66AE66AE66A7FC182F1F4
:1012960080C183F1070E006E000E016E81C104F05D
:1012A600000E056E6AEC01F0825100268351012280
:1012B600050E0024E16E000E0120E26E010EE66EC0
:1012C6007FC182F180C183F1070E006E000E016EB0
:1012D60081C104F0000E056E6AEC01F08251002611
:1012E60083510122060E0024E16E000E0120E26EFB
:1012F600E66A812B97D7D20E7F25E16E000E8021FC
:0C130600E26EE66AE66AE66AE66A120039
:0A131200C0EC04F0020E1F6E120082
:10131C0010D0800E01017F6F1AD0C00E7F6F17D0D6
:10132C00940E7F6F14D0D40E7F6F11D0800E7F6F10
:10133C000ED001017F51010AECE07F51020AEDE071
:10134C007F51030AEDE07F51040AEDE0EFD78005F1
:10135C00006E7F51002600C07FF1318100C0CCF2BD
:10136C0066EC00F0319181C1CCF266EC00F0318179
:02137C0012005D
:10137E0043C005F044C006F045C007F046C008F073
:10138E003F50055E4050065A4150075A4250085A87
:10139E0005C001F006C002F007C003F008C004F05B
:1013AE000432033202320132049E01C07FF102C0C8
:1013BE0080F103C081F104C082F104500101401993
:1013CE0008E103503F1905E102503E1902E10150B8
:1013DE003D19D8B4DAD07FC13DF180C13EF181C153
:1013EE003FF182C140F13C0E046E000E056E066E9A
:1013FE00076E7FC100F080C101F081C102F082C191
:10140E0003F055EC02F008C000F009C001F00AC06C
:10141E0002F00BC003F000C084F13C0E046E000E0F
:10142E00056E066E076E7FC100F080C101F081C1AE
:10143E0002F082C103F055EC02F000C07FF101C052
:10144E0080F102C081F103C082F13C0E046E000EE9
:10145E00056E066E076E55EC02F008C000F009C06E
:10146E0001F00AC002F00BC003F000C083F13C0E85
:10147E00046E000E056E066E076E7FC100F080C111
:10148E0001F081C102F082C103F055EC02F000C000
:10149E00B2F101C0B3F1870EB46F010EB56F77ECE8
:1014AE0004F083C1C6F28D0E0201C76F010EC86F24
:1014BE00D7EC00F084C1C6F2910EC76F010EC86F53
:1014CE00D7EC00F0850EC66F010EC76F4C0E0101F2
:1014DE00966F430E976F3A0E986F996B960E0201A8
:1014EE00C86F010EC96F030ECA6F000ECB6FAFEC43
:1014FE0000F08C0EC66F010EC76F480E01019A6F79
:10150E00200E9B6F9C6B9A0E0201C86F010EC96F65
:10151E00020ECA6F000ECB6FAFEC00F0900EC66FCE
:10152E00010EC76F4D0E01019D6F200E9E6F9F6BBA
:10153E009D0E0201C86F010EC96F020ECA6F000E1A
:10154E00CB6FAFEC00F0940EC66F010EC76F530E4B
:10155E000101A06F200EA16FA26BA00E0201C86F39
:10156E00010EC96F020ECA6F000ECB6FAFEC00F00A
:10157E000101956B010E0201BB6F010EBC6F850E52
:0C158E00BD6F010EBE6F28EC01F01200D2
:10159A0073D05A0E0101B26F000EB36F010EB46F11
:1015AA00000EB56FB66FB76F060EB86F43DC5A0EF2
:1015BA00B26F000EB36F020EB46F000EB56FB66F46
:1015CA00B76F070EB86F36DC5A0EB26F000EB36FE4
:1015DA00030EB46F000EB56FB66FB76F040EB86F17
:1015EA0029DC5A0EB26F000EB36F040EB46F000EF0
:1015FA00B56FB66FB76F050EB86F1CDC010E1E6EA5
:10160A0041D001015A0EB26F000EB36F010EB46FD2
:10161A00000EB56FB66FB76F060EB86F0BDC5A0EB9
:10162A00B26F000EB36F020EB46F000EB56FB66FD5
:10163A00B76F070EB86F1FEC07F05A0EB26F000EA5
:10164A00B36F030EB46F000EB56FB66FB76F040EAB
:10165A00B86F1FEC07F05A0EB26F000EB36F040E8C
:10166A00B46F000EB56FB66FB76F050EB86F1FEC8B
:10167A0007F0010E1E6E06D02C50000A8AE02C508C
:06168A00010ABFE012009E
:101690005A0E0101B26F000EB36F360EB46FCBEC71
:1016A00003F0005224E0020E596E1D50000A1EE1A4
:1016B0001F50000A1BE1020E0201BB6F010EBC6F3E
:1016C0009C0EF66E2D0EF76E000EF86E7F0EE16E1C
:1016D000010EE26E110E006E010E016E92EC01F031
:1016E0007F0EBD6F010EBE6F28EC01F0236A120061
:1016F00030C185F101013C5303E0010E3019856FC3
:1017000082828105846F4EC1E1FF4FC1E2FF960ED8
:10171000E66E4CC100F04DC101F013EC07F0010181
:101720008551960A04E08551A90A01E002D085712D
:10173000818D4EC1E1FF4FC1E2FF85C1E6FF4CC183
:1017400000F04DC101F013EC07F00101826B8251F2
:10175000845D32E382517F25E96E000E8021EA6EBE
:10176000EECF01F001C086F10150960A04E08651E7
:10177000A90A01E01FD082517F25016E000E802151
:10178000026E01C0E9FF02C0EAFF010EEE18006E12
:1017900001C0E1FF02C0E2FF00C0E6FF82C101F02C
:1017A000040E006E015004E000360090FF0FFBD7DE
:1017B00000508113822BCBD74EC1E1FF4FC1E2FF16
:1017C00081C1E6FF4CC100F04DC101F013EC07F000
:1017D000010185518119836F826B8251845D1FE302
:1017E00082517F25006E000E8021016E00C0D9FF5E
:1017F00001C0DAFFDE50831B4EC1E1FF4FC1E2FFA3
:1018000000C0E9FF01C0EAFFEECFE6FF4CC100F0E7
:101810004DC101F013EC07F00101822BDED7831DCF
:10182000016E01C083F10150960A04E08351A90AB8
:1018300001E001D0832B4EC1E1FF4FC1E2FF83C124
:10184000E6FF4CC100F04DC101F013EC07F04EC1B2
:10185000E1FF4FC1E2FFA90EE66E4CC100F04DC1A1
:1018600001F013EC07F048C100F049C101F013EC9E
:0E18700007F00050000A01E1F6D78292120044
:10187E00226A38A009D02450000802E2240602D0C1
:10188E00090E246E010E1F6E38A408D0090E245CBA
:10189E0002E2242A01D0246A010E1F6E38A202D061
:0618AE00030E1F6E120084
:1018B4005A0E0101B26F000EB36F340EB46FCBEC4D
:1018C40003F0005240E0040E596E1D50000A1EE160
:1018D4001F50000A1BE1020E0201BB6F010EBC6F18
:1018E4007A0EF66E2D0EF76E000EF86E7F0EE16E18
:1018F400010EE26E110E006E010E016E92EC01F00B
:101904007F0EBD6F010EBE6F28EC01F0040E236E36
:101914005A0EB26F000EB36F26C000F0000E016EB7
:101924000036013600900050255CB46F01C0B5F15B
:10193400000EB557000EB5BFFF0EB66FB76F350E6C
:10194400B86F1FEC07F082B006D029B002D0D8904F
:1019540007D0D88005D029B002D0D88001D0D89043
:1019640043E25A0EB26F000EB36F350EB46F0DEC36
:1019740008F05A0EB26F000EB36F340EB46F0DEC54
:1019840008F0030E596E1D50000A1EE11F50000A94
:101994001BE1020E0201BB6F010EBC6F8B0EF66ED3
:1019A4002D0EF76E000EF86E900EE16E010EE26ED3
:1019B400110E006E010E016E92EC01F0900EBD6FDF
:1019C400010EBE6F28EC01F0010E236E5A0EB26FA9
:1019D400000EB36F26C0B4F1000EB56FB66FB76FCB
:0A19E400320EB86F1FEC07F012007E
:1019EE0078D05A0E0101B26F000EB36F010EB46FB4
:1019FE00000EB56FB66FB76F060EB86F1FEC07F01F
:101A0E005A0EB26F000EB36F020EB46F000EB56FAA
:101A1E00B66FB76F070EB86F1FEC07F05A0EB26FA6
:101A2E00000EB36F030EB46F000EB56FB66FB76FC7
:101A3E00040EB86F1FEC07F05A0EB26F000EB36FA4
:101A4E00040EB46F000EB56FB66FB76F050EB86F9C
:101A5E001FEC07F0010E1E6E42D001015A0EB26F3E
:101A6E00000EB36F010EB46F000EB56FB66FB76F89
:101A7E00060EB86F1FEC07F05A0EB26F000EB36F62
:101A8E00020EB46F000EB56FB66FB76F070EB86F5C
:101A9E001FEC07F05A0EB26F000EB36F030EB46F49
:101AAE00000EB56FB66FB76F040EB86F1FEC07F070
:101ABE005A0EB26F000EB36F040EB46F000EB56FF8
:101ACE00B66FB76F050EB86F1FEC07F0010E1E6EE6
:101ADE0006D02C50000A85E02C50010ABEE0120000
:101AEE005A0E0101B26F000EB36F330EB46FCBEC12
:101AFE0003F0005245E0596A1D50000A1EE11F50C6
:101B0E00000A1BE1020E0201BB6F010EBC6FAD0E8F
:101B1E00F66E2D0EF76E000EF86E7F0EE16E010E54
:101B2E00E26E110E006E010E016E92EC01F07F0E50
:101B3E00BD6F010EBE6F28EC01F0030E236E5A0E20
:101B4E00B26F000EB36F26C0B4F1000EB56FB4378E
:101B5E00B537B491000EB5BFFF0EB66FB76F340E2A
:101B6E00B86F1FEC07F0265043243A6E000E442047
:101B7E003B6E000E45203C6E000E46203D6E1E6AEA
:021B8E00120043
:101B90001E5235E05A0E0101B26F000EB36F27C01E
:101BA000B4F1000EB56FB66FB76F320EB86F1FECA1
:101BB00007F0030E596E1D50000A1EE11F50000A67
:101BC0001BE1020E0201BB6F010EBC6FCF0EF66E61
:101BD0002D0EF76E000EF86E7F0EE16E010EE26EB6
:101BE000110E006E010E016E92EC01F07F0EBD6FC2
:101BF000010EBE6F28EC01F0010E236E1E6A12006A
:101C00005A0E0101B26F000EB36F350EB46FCBECFC
:101C100003F0005238E0596A1D50000A1EE11F50BF
:101C2000000A1BE1020E0201BB6F010EBC6F250E04
:101C3000F66E2D0EF76E000EF86E7F0EE16E010E41
:101C4000E26E110E006E010E016E92EC01F07F0E3D
:101C5000BD6F010EBE6F28EC01F0050E236E5A0E0B
:101C6000B26F000EB36F26C0B4F1000EB56FB4377B
:101C7000B537B491000EB5BFFF0EB66FB76F360E15
:101C8000B86F1FEC07F082B006D029B002D0D89010
:101C900007D0D88005D029B002D0D88001D0D89004
:101CA0004DE25A0EB26F000EB36F350EB46F0DECED
:101CB00008F05A0EB26F000EB36F360EB46F0DEC13
:101CC00008F0030E596E1D50000A1EE11F50000A55
:101CD0001BE1020E0201BB6F010EBC6F360EF66EE9
:101CE0002D0EF76E000EF86E900EE16E010EE26E94
:101CF000110E006E010E016E92EC01F0900EBD6FA0
:101D0000010EBE6F28EC01F0010E236E5A0EB26F69
:101D1000000EB36F43C0B4F144C0B5F145C0B6F195
:101D200046C0B7F13A50B45F3B50B55B3C50B65B30
:101D30003D50B75B320EB86F1FEC07F01E524EE0FD
:101D40005A0EB26F000EB36F350EB46F0DEC08F083
:101D50005A0EB26F000EB36F360EB46F0DEC08F072
:101D6000030E596E1D50000A1EE11F50000A1BE1B0
:101D7000020E0201BB6F010EBC6F470EF66E2D0EF8
:101D8000F76E000EF86EA10EE16E010EE26E110EFE
:101D9000006E010E016E92EC01F0A10EBD6F010EFE
:101DA000BE6F28EC01F0010E236E5A0EB26F000ECA
:101DB000B36F43C0B4F144C0B5F145C0B6F146C0FD
:101DC000B7F13A50B45F3B50B55B3C50B65B3D5009
:0E1DD000B75B320EB86F1FEC07F01E6A1200F0
:101DDE005A0E0101B26F000EB36F320EB46FCBEC20
:101DEE0003F0005238E0010E596E1D50000A1EE13C
:101DFE001F50000A1BE1020E0201BB6F010EBC6FE9
:101E0E00BE0EF66E2D0EF76E000EF86E7F0EE16EA4
:101E1E00010EE26E110E006E010E016E92EC01F0DB
:101E2E007F0EBD6F010EBE6F28EC01F0020E236E09
:101E3E005A0EB26F000EB36F2650285CB46FB56B9E
:101E4E00000EB55B000EB5BFFF0EB66FB76F330E4B
:081E5E00B86F1FEC07F0120041
:101E6600010E226EB8D038A406D0FF0E275C03E21E
:101E7600272AC0EC04F038A006D02750000803E259
:101E86002706C0EC04F038A202D0010E1F6EC5D0A2
:101E960038A406D0FF0E255C03E2252AC0EC04F028
:101EA60038A006D02550000803E22506C0EC04F051
:101EB60038A202D0010E1F6EB0D038A406D0FF0E95
:101EC600265C03E2262AC0EC04F038A006D0265091
:101ED600000803E22606C0EC04F038A202D0010E88
:101EE6001F6E9BD038A406D0FF0E285C03E2282A7A
:101EF600C0EC04F038A006D02850000803E22806FB
:101F0600C0EC04F038A202D0010E1F6E86D038A4B1
:101F160006D0FF0E2B5C03E22B2AC0EC04F038A09F
:101F260006D02B50000803E22B06C0EC04F038A2C2
:101F360002D0010E1F6E71D038A406D0010E2C5CA3
:101F460003E22C2AC0EC04F038A006D02C5000087E
:101F560003E22C06C0EC04F038A202D0010E1F6E7C
:101F66005CD038A406D0010E295C03E2292AC0EC15
:101F760004F038A006D02950000803E22906C0EC78
:101F860004F038A202D0010E1F6E47D038A406D046
:101F9600FF0E2A5C03E22A2AC0EC04F038A006D021
:101FA6002A50000803E22A06C0EC04F038A202D048
:101FB600010E1F6E32D038B21F6A226AC2EC07F0D9
:101FC6001F6A140E396E29D038B21F6A226A3FEC96
:101FD60004F01F6A22D02450000AD8B444D72450F3
:101FE600010AD8B455D72450020AD8B466D724506B
:101FF600030AD8B477D72450040A89E02450050A86
:102006009BE02450060AADE02450070ABFE02450A6
:0C201600080AD1E02450090AD7E01200AB
:102022005A0E0101B26F000EB36F040EB46FCBEC07
:1020320003F00052D8A483805A0EB26F000EB36F21
:10204200050EB46FCBEC03F00052D8A483905A0E65
:10205200B26F000EB36F060EB46FCBEC03F00052FA
:10206200D8A483825A0EB26F000EB36F070EB46FFC
:10207200CBEC03F00052D8A483925A0EB26F000E3A
:10208200B36F080EB46FCBEC03F00052D8A4838672
:102092005A0EB26F000EB36F090EB46FCBEC03F0A1
:1020A2000052D8A483965A0EB26F000EB36F010E7F
:1020B200B46FCBEC03F00052D8A4366A5A0EB26F5A
:1020C200000EB36F020EB46FCBEC03F00052D8A433
:1020D200376A5950020A16E1365214E0375212E1B9
:1020E20085DC010E376E5A0E0101B26F000EB36F1E
:1020F200060EB46F000EB56FB66FB76F020EB86FF3
:102102001FEC07F05950040A17E1365215E0375216
:1021120013E1CDEC0AF0010E376E5A0E0101B26FD7
:10212200000EB36F060EB46F000EB56FB66FB76FC9
:0A213200020EB86F1FEC07F0120058
:10213C0032500008D8A0320634500008D8A034061B
:02214C0012007F
:10214E0010D038A203D0010E1F6E246ABFEC09F026
:10215E0014D089EC09F011D03FEC0CF00ED07CDEDF
:10216E000CD01F50000AEDE01F50010AF2E01F5084
:0C217E00020AF2E01F50030AF2E0120017
:10218A0042C100F043C101F013EC07F0005201E133
:10219A002BD152C100F053C101F013EC07F000C07B
:1021AA0047F106D101014751960A03E1020E576F22
:1021BA00506B1AD14751301904E04751320A01E0F5
:1021CA0005D0030E576F4751501B02D0010E576FAF
:1021DA000BD13C5309E0400E4715016E0150000A2D
:1021EA0003E1010E576F00D147AF13D0040E576FAA
:1021FA0047C141F14751501B030E4715016E01C0FB
:10220A0056F10150000A02E1050E576F010E516F97
:10221A000CD0050E0201CD25E16E000ECE21E26E34
:10222A00FF0EE66E010E0101576FDED04751A90A73
:10223A000DE1050E0201CD25E16E000ECE21E26E02
:10224A00FF0EE66E010E0101576FCED05151565D59
:10225A00006E016A000E015A0050011013E0510588
:10226A00006E016A000E015A00500201CD25E16E8E
:10227A000150CE21E26E47C1E6FF01014751501BD2
:10228A00512B13D05105006E016A000E015A0050FD
:10229A000201CD25E16E0150CE21E26E47C1E6FF73
:1022AA00050E0101576F4751501B9ED0501D016EFC
:1022BA0001C050F10150960A04E05051A90A01E008
:1022CA0001D0502B5051471903E1060E576F0CD01D
:1022DA00050E0201CD25E16E000ECE21E26EFF0E43
:1022EA00E66E010E0101576F7FD04751A90A43E1FB
:1022FA00010E576F040E0201CD25E16E000ECE21AC
:10230A00E26EFF0EE66E030ECD25E16E000ECE21C3
:10231A00E26E56C1E6FF010E0101516F5151565D41
:10232A0029E351C101F0020E006E015004E00036AB
:10233A000090FF0FFBD74151001619E05105006EBE
:10234A00016A000E015A00500201CD25026E0150A9
:10235A00CE21036E02C0E9FF03C0EAFF010EEE18A8
:10236A00006E02C0E1FF03C0E2FF00C0E6FF010108
:10237A00512BD4D70CD0050E0201CD25E16E000EEB
:10238A00CE21E26EFF0EE66E010E0101576F2CD0D0
:10239A00050E0201CD25E16E000ECE21E26EFF0E82
:1023AA00E66E010E0101576F1FD0010E576F1CD048
:1023BA0001015751010AD8B4F5D65751020AD8B4C7
:1023CA00F9D65751030AD8B404D75751040AD8B4D6
:1023DA002DD75751050AD8B469D75751060A85E04F
:0A23EA005751070AD5E0E1D71200B1
:1023F400225268E022C046F13E5232E0020E010150
:102404007F6F010E806F3E0E816F8EEC09F0020E1D
:102414007F6F020E806F3E0E816F8EEC09F0020E0C
:102424007F6F030E806F3E0E816F8EEC09F0020EFB
:102434007F6F100E806F3C0E816F8EEC09F0020EE0
:102444007F6F0F0E806F3C0E816F8EEC09F0020ED1
:102454007F6F0E0E806F3C0E816F8EEC09F031D0D1
:102464000101020E7F6F010E806F200E816F8EECD2
:1024740009F0020E7F6F020E806F200E816F8EECCA
:1024840009F0020E7F6F030E806F200E816F8EECB9
:1024940009F0020E7F6F100E806F200E816F8EEC9C
:1024A40009F0020E7F6F0F0E806F200E816F8EEC8D
:1024B40009F0020E7F6F0E0E806F200E816F8EEC7E
:1024C40009F035D00101465330E0020E7F6F010E52
:1024D400806F200E816F8EEC09F0020E7F6F020E6A
:1024E400806F200E816F8EEC09F0020E7F6F030E59
:1024F400806F200E816F8EEC09F0020E7F6F100E3C
:10250400806F200E816F8EEC09F0020E7F6F0F0E2C
:10251400806F200E816F8EEC09F0020E7F6F0E0E1D
:10252400806F200E816F8EEC09F03EC046F11200E0
:10253400600ED36E9B8C0F015D6B5C6B806A816A4D
:10254400826A836A846AD70E926EC00E936EBD0E41
:10255400946E700E956E0F0E966E810ED56E630E90
:10256400D76EBF0ED66EF28EF28AB0EC08F00C0E67
:102574000201CC6F66EC00F0150E0B6E4B0E0C6E68
:10258400BE0E0D6E0D2EFED70C2EFCD70B2EFAD7D9
:102594000000808ACF0EAF6EAC8484EC08F09E9A63
:1025A4009D8A9F8AF28C720E7F6F040E806F000EDC
:1025B400816F000E826F500E836F040E846FBB0E0A
:1025C400856F020E866F680E876F040E886F000E8B
:1025D400896F000E8A6F5E0E8B6F040E8C6F000E77
:1025E4008D6F000E8E6F63EC08F05A0E7F6F000E35
:1025F400806F13EC09F0020E596E3FEC04F02BC00F
:08260400BBF211EC01F0120021
:10260C000101365366E0366B5DD043C03FF044C0E9
:10261C0040F045C041F046C042F0010E366E5A0EF5
:10262C00B26F000EB36F010EB46F0DEC08F05A0EC2
:10263C00B26F000EB36F2AC0B4F1000EB56FB66F57
:10264C00B76F010EB86F1FEC07F0C80E326F0B0E90
:10265C000C6E620E0D6E0D2EFED70C2EFCD70000EC
:10266C00320E7F6F010E806F010E816F78EC0BF0D4
:10267C00838E2FD0DC0E0101326F5950020A04E018
:10268C005950040A01E002D0C80E326F5950010AA9
:10269C0004E05950030A01E003D00101D20E326F5D
:1026AC000B0E0C6E620E0D6E0D2EFED70C2EFCD783
:1026BC000000320E7F6F010E806F010E816F78EC7F
:1026CC000BF007D001013251010A9FE03251020A8E
:0426DC00D1E0120037
:1026E00012D0C8EC0DF021D0EFEC0EF01ED077EC3C
:1026F0000DF01BD05AEC0CF018D000EC0EF015D0F9
:1027000048EC0BF012D02350000AEBE02350010AF2
:10271000EBE02350020AEBE02350030AEBE02350E6
:0C272000040AEBE02350050AEBE0120075
:10272C00D20E01017A25E96E000E7B21EA6EEECF06
:10273C0001F0EECF02F0EECF03F0EECF04F0045038
:10274C00FF0A08E10350FF0A05E10250FF0A02E10B
:10275C000150FF0A23E0D20E7A25046E000E7B2175
:10276C00056E04C0E9FF05C0EAFF010EEE24006E01
:10277C00000EEE20016E000EEE20026E000EEE201A
:10278C00036E04C0E1FF05C0E2FF00C0E6FF01C01C
:10279C00E6FF02C0E6FF03C0E6FF0AD0D20E7A25A0
:1027AC00E16E000E7B21E26EE66AE66AE66AE66A94
:0227BC00120009
:1027BE0001017C6B7C6B1E0E7C5DD8B08CD07AC117
:1027CE007DF17BC17EF1070E006E000E016E7CC1A5
:1027DE0004F0000E056E6AEC01F07D5100267E516C
:1027EE000122050E0024E96E000E0120EA6EEE5065
:1027FE00000A6FE17AC17DF17BC17EF1070E006E9A
:10280E00000E016E7CC104F0000E056E6AEC01F044
:10281E007D5100267E510122010E0024E96E000E2C
:10282E000120EA6EEECF05F0EECF06F0EECF07F008
:10283E00EECF08F0D20E7A25D96E000E7B21DA6E1D
:10284E00DECF01F0DECF02F0DECF03F0DECF04F0FC
:10285E000850041808E10750031805E10650021845
:10286E0002E10550011835E17AC17DF17BC17EF19F
:10287E00070E006E000E016E7CC104F0000E056E98
:10288E006AEC01F07D5100267E510122060E0024D5
:10289E00E96E000E0120EA6EEE50000A1AE17AC1CE
:1028AE007DF17BC17EF1070E006E000E016E7CC1C4
:1028BE0004F0000E056E6AEC01F07D5100267E518B
:1028CE000122060E0024E16E000E0120E26E010EC2
:0828DE00E66E7C2B70D712009E
:1028E60001017A6B7B6B83BC02D07A8101D07A912D
:1028F60083BA02D07A8301D07A9383B802D07A85DC
:1029060001D07A95CED07A51000A0DE03250000AF5
:102916000AE17AC17BF1010E326E640E346E010E4D
:102926002F6E7AC135F0CFD03250000A08E17A51C5
:10293600000A05E17B6B356A010E326E2F6A325052
:10294600000A0EE17A5135180BE13450000A08E10D
:102956007AC17BF1020E2F6E060E346E0A0E336EAE
:102966003250000A0CE17A51351809E07A51000A12
:1029760006E07AC17BF17AC135F0010E326EA3D042
:102986007A5135180BE13450000A08E1335000083B
:1029960005E27AC17BF1060E346E33067A5135189C
:1029A6000EE13450000A0BE13350000A08E17AC107
:1029B6007BF1060E346E0A0E336E030E2F6E7A51BD
:1029C60035180DE07A51000A0AE07AC17BF17AC126
:1029D60035F0010E326E640E346E010E2F6E7A5192
:1029E600000A05E17B6B356A010E326E2F6A6BD0E9
:1029F6007A5135180BE13450000A08E133500008CB
:102A060005E27AC17BF1060E346E33067A5135182B
:102A16000CE13450000A09E13350000A06E17AC19C
:102A26007BF1060E346E040E2F6E7A5135180DE0CA
:102A36007A51000A0AE07AC17BF17AC135F0010EBB
:102A4600326E640E346E010E2F6E7A51000A05E165
:102A56007B6B356A010E326E2F6A35D07A51351886
:102A660007E13450000A04E17AC17BF1060E346EA8
:102A76007A5135180DE07A51000A0AE07AC17BF1E5
:102A86007AC135F0010E326E640E346E010E2F6E71
:102A96007A51000A05E17B6B356A010E326E2F6AA8
:102AA60012D02F50000AD8B42ED72F50010AD8B40E
:102AB6003BD72F50020AD8B463D72F50030A98E0A9
:0C2AC6002F50040ACBE07BC100F012008E
:102AD200F0EC16F02EDD010E0201BB6F010EBC6F91
:102AE200580EF66E2D0EF76E000EF86E580EE16E51
:102AF200010EE26E110E006E010E016E92EC01F0FB
:102B0200580EBD6F010EBE6F28EC01F0020E0201DD
:102B1200BB6F010EBC6F690EF66E2D0EF76E000EC6
:102B2200F86E690EE16E010EE26E110E006E010E7C
:102B3200016E92EC01F0690EBD6F010EBE6F28ECC2
:102B420001F030520AE09EEC10F03950000803E226
:102B52003906808601D08096306A315225E0000E17
:102B6200006E2E50005C02E12D50000805E2010EBD
:102B72002D5E000E2E5A01D0809A3E52010ED8A42C
:102B8200000E3E6E36DC010E4326000E4422452224
:102B920046225A0E7A6F000E7B6FC7DD5A0E7A6F8D
:102BA200000E7B6F0BDE316A9DDE00C038F00050F4
:102BB200000A06E0680E2D6E010E2E6E030E396EAF
:102BC2001D50000A02E1A7EC10F089DD1EDD11ECB8
:102BD20010F0000E006E2E50005C02E12D50000835
:082BE200D8A0808AAED7FFD70E
:102DE00010EE1DF03C0E006E010E016EE90EF66E47
:0E2DF0002C0EF76E000EF86E92EC01F0120041
:102BEA0020202020202020202020202020202020DB
:012BFA0000DA
:102BFB0031204F70656E6E696E672054696D65206C
:012C0B0000C8
:102C0C003220436C6F73696E672054696D652020A8
:012C1C0000B7
:102C1D003320496E76616C69642054696D6520209E
:012C2D0000A6
:102C2E0034204175746F636C6F73652054696D65E4
:012C3E000095
:102C3F0035204E65742041646472657373202020C3
:012C4F000084
:102C50003620576F726B696E67204D6F6465202058
:012C60000073
:102C610020202053746172742F53746F70202020C0
:012C71000062
:102C72002020204F70656E2F436C6F7365202020DB
:012C82000051
:102C83003720495220696E204D6F64652020202033
:012C93000040
:102C9400202020202020204E4F20202020202020D3
:012CA400002F
:102CA500202020202020204E4320202020202020CE
:012CB500001E
:102CB600382043617220506173732054696D65201A
:012CC600000D
:102CC700392053617665204368616E6765732020FC
:012CD70000FC
:102CD80031302044697363617264204578697420D7
:012CE80000EB
:012CE90000EA
:012CEA0000E9
:012CEB0000E8
:022CEC0047009F
:012CEE0000E5
:012CEF0000E4
:012CF00000E3
:012CF1000AD8
:012CF20001E0
:012CF3000AD6
:012CF40014CB
:012CF50000DE
:012CF60000DD
:012CF70000DC
:012CF80000DB
:022CF900680170
:012CFB0000D8
:012CFC0000D7
:012CFD0000D6
:012CFE0000D5
:012CFF0000D4
:012D000000D2
:012D010000D1
:012D020000D0
:012D030000CF
:012D040000CE
:012D050005C8
:042D060000000000C9
:012D0A0000C8
:042D0B0000000000C4
:042D0F0000000000C0
:102D130020202020202020202020202020202020B0
:012D230000AF
:012D240000AE
:102D250020202020496E76616C69642020202020B7
:012D3500009D
:102D3600202020204F70656E6E696E67202020204F
:012D4600008C
:102D4700202020204F70656E6E696E67202020203E
:012D5700007B
:102D580020202020205374617274212020202020FC
:012D6800006A
:102D6900202020202020202020202020202020205A
:012D79000059
:102D7A0020202020436C6F73696E6720202020205A
:012D8A000048
:102D8B00202020204F70656E6E696E6720202020FA
:012D9B000037
:102D9C002020202020436C6F73656420202020208D
:012DAC000026
:102DAD0020202020496E76616C696420202020202F
:012DBD000015
:102DBE0020202020204F70656E656420202020206A
:012DCE000004
:102DCF00202020204F70656E6E696E6720202020B6
:012DDF0000F3
:020000040030CA
:0E00000015187F7CFF8991FF0FC00FE00F40A5
:0200000400F00A
:10000000141402280A00010F000000000000000084
:10001000FFFFFFFFFFFFFFFFFFFFFFFFFFFFFFFFF0
:10002000FFFFFFFFFFFFFFFFFFFFFFFFFFFFFFFFE0
:10003000FFFFFFFFFFFFFFFFFFFFFFFFFFFFFFFFD0
:10004000FFFFFFFFFFFFFFFFFFFFFFFFFFFFFFFFC0
:00000001FF
